{
  "transactions": [
    {
      "hash": "0x0bd73c6ed8bba1d8be9c34e42d5f344a5b3166d4f4432733b2cfdb4ccb5fa746",
      "transactionType": "CREATE",
      "contractName": "MockERC20",
      "contractAddress": "0xcc5f8fc3ccab02157f82afb7e19fc65f4808849e",
      "function": null,
      "arguments": [
        "Mock USDC",
        "mUSDC",
        "18"
      ],
      "transaction": {
        "from": "0x77d1bb07e6f487f47c8f481dff80de5c27821d09",
        "gas": "0x124b05",
        "value": "0x0",
        "input": "0x608060405234801561001057600080fd5b50604051610f2e380380610f2e83398101604081905261002f91610337565b338383600361003e8382610450565b50600461004b8282610450565b5050506001600160a01b03811661007d57604051631e4fbdf760e01b8152600060048201526024015b60405180910390fd5b610086816100c8565b506005805460ff60a01b1916600160a01b60ff8416021790556100c0336100ae83600a610611565b6100bb90620f4240610627565b61011a565b505050610651565b600580546001600160a01b038381166001600160a01b0319831681179093556040519116919082907f8be0079c531659141344cd1fd0a4f28419497f9722a3daafe3b4186f6b6457e090600090a35050565b6001600160a01b0382166101445760405163ec442f0560e01b815260006004820152602401610074565b61015060008383610154565b5050565b6001600160a01b03831661017f578060026000828254610174919061063e565b909155506101f19050565b6001600160a01b038316600090815260208190526040902054818110156101d25760405163391434e360e21b81526001600160a01b03851660048201526024810182905260448101839052606401610074565b6001600160a01b03841660009081526020819052604090209082900390555b6001600160a01b03821661020d5760028054829003905561022c565b6001600160a01b03821660009081526020819052604090208054820190555b816001600160a01b0316836001600160a01b03167fddf252ad1be2c89b69c2b068fc378daa952ba7f163c4a11628f55a4df523b3ef8360405161027191815260200190565b60405180910390a3505050565b634e487b7160e01b600052604160045260246000fd5b600082601f8301126102a557600080fd5b81516001600160401b038111156102be576102be61027e565b604051601f8201601f19908116603f011681016001600160401b03811182821017156102ec576102ec61027e565b60405281815283820160200185101561030457600080fd5b60005b8281101561032357602081860181015183830182015201610307565b506000918101602001919091529392505050565b60008060006060848603121561034c57600080fd5b83516001600160401b0381111561036257600080fd5b61036e86828701610294565b602086015190945090506001600160401b0381111561038c57600080fd5b61039886828701610294565b925050604084015160ff811681146103af57600080fd5b809150509250925092565b600181811c908216806103ce57607f821691505b6020821081036103ee57634e487b7160e01b600052602260045260246000fd5b50919050565b601f82111561044b578282111561044b57806000526020600020601f840160051c6020851015610422575060005b90810190601f840160051c0360005b8181101561044757600083820155600101610431565b5050505b505050565b81516001600160401b038111156104695761046961027e565b61047d8161047784546103ba565b846103f4565b6020601f8211600181146104b157600083156104995750848201515b600019600385901b1c1916600184901b17845561050b565b600084815260208120601f198516915b828110156104e157878501518255602094850194600190920191016104c1565b50848210156104ff5786840151600019600387901b60f8161c191681555b505060018360011b0184555b5050505050565b634e487b7160e01b600052601160045260246000fd5b6001815b60018411156105635780850481111561054757610547610512565b600184161561055557908102905b60019390931c92800261052c565b935093915050565b60008261057a5750600161060b565b816105875750600061060b565b816001811461059d57600281146105a7576105c3565b600191505061060b565b60ff8411156105b8576105b8610512565b50506001821b61060b565b5060208310610133831016604e8410600b84101617156105e6575081810a61060b565b6105f36000198484610528565b806000190482111561060757610607610512565b0290505b92915050565b600061062060ff84168361056b565b9392505050565b808202811582820484141761060b5761060b610512565b8082018082111561060b5761060b610512565b6108ce806106606000396000f3fe608060405234801561001057600080fd5b50600436106100cf5760003560e01c806370a082311161008c57806395d89b411161006657806395d89b41146101ba578063a9059cbb146101c2578063dd62ed3e146101d5578063f2fde38b1461020e57600080fd5b806370a082311461016e578063715018a6146101975780638da5cb5b1461019f57600080fd5b806306fdde03146100d4578063095ea7b3146100f257806318160ddd1461011557806323b872dd14610127578063313ce5671461013a57806340c10f1914610159575b600080fd5b6100dc610221565b6040516100e99190610717565b60405180910390f35b610105610100366004610781565b6102b3565b60405190151581526020016100e9565b6002545b6040519081526020016100e9565b6101056101353660046107ab565b6102cd565b600554600160a01b900460ff1660405160ff90911681526020016100e9565b61016c610167366004610781565b6102f1565b005b61011961017c3660046107e8565b6001600160a01b031660009081526020819052604090205490565b61016c6102ff565b6005546040516001600160a01b0390911681526020016100e9565b6100dc610313565b6101056101d0366004610781565b610322565b6101196101e336600461080a565b6001600160a01b03918216600090815260016020908152604080832093909416825291909152205490565b61016c61021c3660046107e8565b610330565b6060600380546102309061083d565b80601f016020809104026020016040519081016040528092919081815260200182805461025c9061083d565b80156102a95780601f1061027e576101008083540402835291602001916102a9565b820191906000526020600020905b81548152906001019060200180831161028c57829003601f168201915b5050505050905090565b6000336102c1818585610373565b60019150505b92915050565b6000336102db858285610385565b6102e6858585610404565b506001949350505050565b6102fb8282610463565b5050565b610307610499565b61031160006104c6565b565b6060600480546102309061083d565b6000336102c1818585610404565b610338610499565b6001600160a01b03811661036757604051631e4fbdf760e01b8152600060048201526024015b60405180910390fd5b610370816104c6565b50565b6103808383836001610518565b505050565b6001600160a01b038381166000908152600160209081526040808320938616835292905220546000198110156103fe57818110156103ef57604051637dc7a0d960e11b81526001600160a01b0384166004820152602481018290526044810183905260640161035e565b6103fe84848484036000610518565b50505050565b6001600160a01b03831661042e57604051634b637e8f60e11b81526000600482015260240161035e565b6001600160a01b0382166104585760405163ec442f0560e01b81526000600482015260240161035e565b6103808383836105ed565b6001600160a01b03821661048d5760405163ec442f0560e01b81526000600482015260240161035e565b6102fb600083836105ed565b6005546001600160a01b031633146103115760405163118cdaa760e01b815233600482015260240161035e565b600580546001600160a01b038381166001600160a01b0319831681179093556040519116919082907f8be0079c531659141344cd1fd0a4f28419497f9722a3daafe3b4186f6b6457e090600090a35050565b6001600160a01b0384166105425760405163e602df0560e01b81526000600482015260240161035e565b6001600160a01b03831661056c57604051634a1406b160e11b81526000600482015260240161035e565b6001600160a01b03808516600090815260016020908152604080832093871683529290522082905580156103fe57826001600160a01b0316846001600160a01b03167f8c5be1e5ebec7d5bd14f71427d1e84f3dd0314c0f7b2291e5b200ac8c7c3b925846040516105df91815260200190565b60405180910390a350505050565b6001600160a01b03831661061857806002600082825461060d9190610877565b9091555061068a9050565b6001600160a01b0383166000908152602081905260409020548181101561066b5760405163391434e360e21b81526001600160a01b0385166004820152602481018290526044810183905260640161035e565b6001600160a01b03841660009081526020819052604090209082900390555b6001600160a01b0382166106a6576002805482900390556106c5565b6001600160a01b03821660009081526020819052604090208054820190555b816001600160a01b0316836001600160a01b03167fddf252ad1be2c89b69c2b068fc378daa952ba7f163c4a11628f55a4df523b3ef8360405161070a91815260200190565b60405180910390a3505050565b602081526000825180602084015260005b818110156107455760208186018101516040868401015201610728565b506000604082850101526040601f19601f83011684010191505092915050565b80356001600160a01b038116811461077c57600080fd5b919050565b6000806040838503121561079457600080fd5b61079d83610765565b946020939093013593505050565b6000806000606084860312156107c057600080fd5b6107c984610765565b92506107d760208501610765565b929592945050506040919091013590565b6000602082840312156107fa57600080fd5b61080382610765565b9392505050565b6000806040838503121561081d57600080fd5b61082683610765565b915061083460208401610765565b90509250929050565b600181811c9082168061085157607f821691505b60208210810361087157634e487b7160e01b600052602260045260246000fd5b50919050565b808201808211156102c757634e487b7160e01b600052601160045260246000fdfea264697066735822122031e76dff8298f2c5789f0f4223e4f80c7b0329a1c28656c4c6903785d51bcadf64736f6c63430008210033000000000000000000000000000000000000000000000000000000000000006000000000000000000000000000000000000000000000000000000000000000a0000000000000000000000000000000000000000000000000000000000000001200000000000000000000000000000000000000000000000000000000000000094d6f636b2055534443000000000000000000000000000000000000000000000000000000000000000000000000000000000000000000000000000000000000056d55534443000000000000000000000000000000000000000000000000000000",
        "nonce": "0x23",
        "chainId": "0x66eee"
      },
      "additionalContracts": [],
      "isFixedGasLimit": false
    },
    {
      "hash": "0xe2933e088503e88ee5688b39cfb1495b00f790c160f9edea42a707696a18b8a5",
      "transactionType": "CREATE",
      "contractName": "MockERC20",
      "contractAddress": "0xda222533d71c37a9370c6b5a26bcb4c07ecb0454",
      "function": null,
      "arguments": [
        "Mock DAI",
        "mDAI",
        "18"
      ],
      "transaction": {
        "from": "0x77d1bb07e6f487f47c8f481dff80de5c27821d09",
        "gas": "0x124a6c",
        "value": "0x0",
        "input": "0x608060405234801561001057600080fd5b50604051610f2e380380610f2e83398101604081905261002f91610337565b338383600361003e8382610450565b50600461004b8282610450565b5050506001600160a01b03811661007d57604051631e4fbdf760e01b8152600060048201526024015b60405180910390fd5b610086816100c8565b506005805460ff60a01b1916600160a01b60ff8416021790556100c0336100ae83600a610611565b6100bb90620f4240610627565b61011a565b505050610651565b600580546001600160a01b038381166001600160a01b0319831681179093556040519116919082907f8be0079c531659141344cd1fd0a4f28419497f9722a3daafe3b4186f6b6457e090600090a35050565b6001600160a01b0382166101445760405163ec442f0560e01b815260006004820152602401610074565b61015060008383610154565b5050565b6001600160a01b03831661017f578060026000828254610174919061063e565b909155506101f19050565b6001600160a01b038316600090815260208190526040902054818110156101d25760405163391434e360e21b81526001600160a01b03851660048201526024810182905260448101839052606401610074565b6001600160a01b03841660009081526020819052604090209082900390555b6001600160a01b03821661020d5760028054829003905561022c565b6001600160a01b03821660009081526020819052604090208054820190555b816001600160a01b0316836001600160a01b03167fddf252ad1be2c89b69c2b068fc378daa952ba7f163c4a11628f55a4df523b3ef8360405161027191815260200190565b60405180910390a3505050565b634e487b7160e01b600052604160045260246000fd5b600082601f8301126102a557600080fd5b81516001600160401b038111156102be576102be61027e565b604051601f8201601f19908116603f011681016001600160401b03811182821017156102ec576102ec61027e565b60405281815283820160200185101561030457600080fd5b60005b8281101561032357602081860181015183830182015201610307565b506000918101602001919091529392505050565b60008060006060848603121561034c57600080fd5b83516001600160401b0381111561036257600080fd5b61036e86828701610294565b602086015190945090506001600160401b0381111561038c57600080fd5b61039886828701610294565b925050604084015160ff811681146103af57600080fd5b809150509250925092565b600181811c908216806103ce57607f821691505b6020821081036103ee57634e487b7160e01b600052602260045260246000fd5b50919050565b601f82111561044b578282111561044b57806000526020600020601f840160051c6020851015610422575060005b90810190601f840160051c0360005b8181101561044757600083820155600101610431565b5050505b505050565b81516001600160401b038111156104695761046961027e565b61047d8161047784546103ba565b846103f4565b6020601f8211600181146104b157600083156104995750848201515b600019600385901b1c1916600184901b17845561050b565b600084815260208120601f198516915b828110156104e157878501518255602094850194600190920191016104c1565b50848210156104ff5786840151600019600387901b60f8161c191681555b505060018360011b0184555b5050505050565b634e487b7160e01b600052601160045260246000fd5b6001815b60018411156105635780850481111561054757610547610512565b600184161561055557908102905b60019390931c92800261052c565b935093915050565b60008261057a5750600161060b565b816105875750600061060b565b816001811461059d57600281146105a7576105c3565b600191505061060b565b60ff8411156105b8576105b8610512565b50506001821b61060b565b5060208310610133831016604e8410600b84101617156105e6575081810a61060b565b6105f36000198484610528565b806000190482111561060757610607610512565b0290505b92915050565b600061062060ff84168361056b565b9392505050565b808202811582820484141761060b5761060b610512565b8082018082111561060b5761060b610512565b6108ce806106606000396000f3fe608060405234801561001057600080fd5b50600436106100cf5760003560e01c806370a082311161008c57806395d89b411161006657806395d89b41146101ba578063a9059cbb146101c2578063dd62ed3e146101d5578063f2fde38b1461020e57600080fd5b806370a082311461016e578063715018a6146101975780638da5cb5b1461019f57600080fd5b806306fdde03146100d4578063095ea7b3146100f257806318160ddd1461011557806323b872dd14610127578063313ce5671461013a57806340c10f1914610159575b600080fd5b6100dc610221565b6040516100e99190610717565b60405180910390f35b610105610100366004610781565b6102b3565b60405190151581526020016100e9565b6002545b6040519081526020016100e9565b6101056101353660046107ab565b6102cd565b600554600160a01b900460ff1660405160ff90911681526020016100e9565b61016c610167366004610781565b6102f1565b005b61011961017c3660046107e8565b6001600160a01b031660009081526020819052604090205490565b61016c6102ff565b6005546040516001600160a01b0390911681526020016100e9565b6100dc610313565b6101056101d0366004610781565b610322565b6101196101e336600461080a565b6001600160a01b03918216600090815260016020908152604080832093909416825291909152205490565b61016c61021c3660046107e8565b610330565b6060600380546102309061083d565b80601f016020809104026020016040519081016040528092919081815260200182805461025c9061083d565b80156102a95780601f1061027e576101008083540402835291602001916102a9565b820191906000526020600020905b81548152906001019060200180831161028c57829003601f168201915b5050505050905090565b6000336102c1818585610373565b60019150505b92915050565b6000336102db858285610385565b6102e6858585610404565b506001949350505050565b6102fb8282610463565b5050565b610307610499565b61031160006104c6565b565b6060600480546102309061083d565b6000336102c1818585610404565b610338610499565b6001600160a01b03811661036757604051631e4fbdf760e01b8152600060048201526024015b60405180910390fd5b610370816104c6565b50565b6103808383836001610518565b505050565b6001600160a01b038381166000908152600160209081526040808320938616835292905220546000198110156103fe57818110156103ef57604051637dc7a0d960e11b81526001600160a01b0384166004820152602481018290526044810183905260640161035e565b6103fe84848484036000610518565b50505050565b6001600160a01b03831661042e57604051634b637e8f60e11b81526000600482015260240161035e565b6001600160a01b0382166104585760405163ec442f0560e01b81526000600482015260240161035e565b6103808383836105ed565b6001600160a01b03821661048d5760405163ec442f0560e01b81526000600482015260240161035e565b6102fb600083836105ed565b6005546001600160a01b031633146103115760405163118cdaa760e01b815233600482015260240161035e565b600580546001600160a01b038381166001600160a01b0319831681179093556040519116919082907f8be0079c531659141344cd1fd0a4f28419497f9722a3daafe3b4186f6b6457e090600090a35050565b6001600160a01b0384166105425760405163e602df0560e01b81526000600482015260240161035e565b6001600160a01b03831661056c57604051634a1406b160e11b81526000600482015260240161035e565b6001600160a01b03808516600090815260016020908152604080832093871683529290522082905580156103fe57826001600160a01b0316846001600160a01b03167f8c5be1e5ebec7d5bd14f71427d1e84f3dd0314c0f7b2291e5b200ac8c7c3b925846040516105df91815260200190565b60405180910390a350505050565b6001600160a01b03831661061857806002600082825461060d9190610877565b9091555061068a9050565b6001600160a01b0383166000908152602081905260409020548181101561066b5760405163391434e360e21b81526001600160a01b0385166004820152602481018290526044810183905260640161035e565b6001600160a01b03841660009081526020819052604090209082900390555b6001600160a01b0382166106a6576002805482900390556106c5565b6001600160a01b03821660009081526020819052604090208054820190555b816001600160a01b0316836001600160a01b03167fddf252ad1be2c89b69c2b068fc378daa952ba7f163c4a11628f55a4df523b3ef8360405161070a91815260200190565b60405180910390a3505050565b602081526000825180602084015260005b818110156107455760208186018101516040868401015201610728565b506000604082850101526040601f19601f83011684010191505092915050565b80356001600160a01b038116811461077c57600080fd5b919050565b6000806040838503121561079457600080fd5b61079d83610765565b946020939093013593505050565b6000806000606084860312156107c057600080fd5b6107c984610765565b92506107d760208501610765565b929592945050506040919091013590565b6000602082840312156107fa57600080fd5b61080382610765565b9392505050565b6000806040838503121561081d57600080fd5b61082683610765565b915061083460208401610765565b90509250929050565b600181811c9082168061085157607f821691505b60208210810361087157634e487b7160e01b600052602260045260246000fd5b50919050565b808201808211156102c757634e487b7160e01b600052601160045260246000fdfea264697066735822122031e76dff8298f2c5789f0f4223e4f80c7b0329a1c28656c4c6903785d51bcadf64736f6c63430008210033000000000000000000000000000000000000000000000000000000000000006000000000000000000000000000000000000000000000000000000000000000a0000000000000000000000000000000000000000000000000000000000000001200000000000000000000000000000000000000000000000000000000000000084d6f636b2044414900000000000000000000000000000000000000000000000000000000000000000000000000000000000000000000000000000000000000046d44414900000000000000000000000000000000000000000000000000000000",
        "nonce": "0x24",
        "chainId": "0x66eee"
      },
      "additionalContracts": [],
      "isFixedGasLimit": false
    },
    {
      "hash": "0xfdd1c98b102e6fd2b9fd172ee21da06873e00e34ed5ca3c0df48b3ddb82f971b",
      "transactionType": "CREATE",
      "contractName": "MockETH",
      "contractAddress": "0x62b64cc9b1aa2f2c9d612f0b4a58cfba0eec9be2",
      "function": null,
      "arguments": null,
      "transaction": {
        "from": "0x77d1bb07e6f487f47c8f481dff80de5c27821d09",
        "gas": "0x112ffb",
        "value": "0x0",
        "input": "0x608060405234801561001057600080fd5b50336040518060400160405280600a81526020016926b7b1b59022ba3432b960b11b815250604051806040016040528060048152602001630da8aa8960e31b81525081600390816100619190610325565b50600461006e8282610325565b5050506001600160a01b0381166100a057604051631e4fbdf760e01b8152600060048201526024015b60405180910390fd5b6100a9816100c3565b506100be3369d3c21bcecceda1000000610115565b61040e565b600580546001600160a01b038381166001600160a01b0319831681179093556040519116919082907f8be0079c531659141344cd1fd0a4f28419497f9722a3daafe3b4186f6b6457e090600090a35050565b6001600160a01b03821661013f5760405163ec442f0560e01b815260006004820152602401610097565b61014b6000838361014f565b5050565b6001600160a01b03831661017a57806002600082825461016f91906103e7565b909155506101ec9050565b6001600160a01b038316600090815260208190526040902054818110156101cd5760405163391434e360e21b81526001600160a01b03851660048201526024810182905260448101839052606401610097565b6001600160a01b03841660009081526020819052604090209082900390555b6001600160a01b03821661020857600280548290039055610227565b6001600160a01b03821660009081526020819052604090208054820190555b816001600160a01b0316836001600160a01b03167fddf252ad1be2c89b69c2b068fc378daa952ba7f163c4a11628f55a4df523b3ef8360405161026c91815260200190565b60405180910390a3505050565b634e487b7160e01b600052604160045260246000fd5b600181811c908216806102a357607f821691505b6020821081036102c357634e487b7160e01b600052602260045260246000fd5b50919050565b601f821115610320578282111561032057806000526020600020601f840160051c60208510156102f7575060005b90810190601f840160051c0360005b8181101561031c57600083820155600101610306565b5050505b505050565b81516001600160401b0381111561033e5761033e610279565b6103528161034c845461028f565b846102c9565b6020601f821160018114610386576000831561036e5750848201515b600019600385901b1c1916600184901b1784556103e0565b600084815260208120601f198516915b828110156103b65787850151825560209485019460019092019101610396565b50848210156103d45786840151600019600387901b60f8161c191681555b505060018360011b0184555b5050505050565b8082018082111561040857634e487b7160e01b600052601160045260246000fd5b92915050565b6108be8061041d6000396000f3fe608060405234801561001057600080fd5b50600436106100cf5760003560e01c806370a082311161008c57806395d89b411161006657806395d89b41146101aa578063a9059cbb146101b2578063dd62ed3e146101c5578063f2fde38b146101fe57600080fd5b806370a082311461015e578063715018a6146101875780638da5cb5b1461018f57600080fd5b806306fdde03146100d4578063095ea7b3146100f257806318160ddd1461011557806323b872dd14610127578063313ce5671461013a57806340c10f1914610149575b600080fd5b6100dc610211565b6040516100e99190610707565b60405180910390f35b610105610100366004610771565b6102a3565b60405190151581526020016100e9565b6002545b6040519081526020016100e9565b61010561013536600461079b565b6102bd565b604051601281526020016100e9565b61015c610157366004610771565b6102e1565b005b61011961016c3660046107d8565b6001600160a01b031660009081526020819052604090205490565b61015c6102ef565b6005546040516001600160a01b0390911681526020016100e9565b6100dc610303565b6101056101c0366004610771565b610312565b6101196101d33660046107fa565b6001600160a01b03918216600090815260016020908152604080832093909416825291909152205490565b61015c61020c3660046107d8565b610320565b6060600380546102209061082d565b80601f016020809104026020016040519081016040528092919081815260200182805461024c9061082d565b80156102995780601f1061026e57610100808354040283529160200191610299565b820191906000526020600020905b81548152906001019060200180831161027c57829003601f168201915b5050505050905090565b6000336102b1818585610363565b60019150505b92915050565b6000336102cb858285610375565b6102d68585856103f4565b506001949350505050565b6102eb8282610453565b5050565b6102f7610489565b61030160006104b6565b565b6060600480546102209061082d565b6000336102b18185856103f4565b610328610489565b6001600160a01b03811661035757604051631e4fbdf760e01b8152600060048201526024015b60405180910390fd5b610360816104b6565b50565b6103708383836001610508565b505050565b6001600160a01b038381166000908152600160209081526040808320938616835292905220546000198110156103ee57818110156103df57604051637dc7a0d960e11b81526001600160a01b0384166004820152602481018290526044810183905260640161034e565b6103ee84848484036000610508565b50505050565b6001600160a01b03831661041e57604051634b637e8f60e11b81526000600482015260240161034e565b6001600160a01b0382166104485760405163ec442f0560e01b81526000600482015260240161034e565b6103708383836105dd565b6001600160a01b03821661047d5760405163ec442f0560e01b81526000600482015260240161034e565b6102eb600083836105dd565b6005546001600160a01b031633146103015760405163118cdaa760e01b815233600482015260240161034e565b600580546001600160a01b038381166001600160a01b0319831681179093556040519116919082907f8be0079c531659141344cd1fd0a4f28419497f9722a3daafe3b4186f6b6457e090600090a35050565b6001600160a01b0384166105325760405163e602df0560e01b81526000600482015260240161034e565b6001600160a01b03831661055c57604051634a1406b160e11b81526000600482015260240161034e565b6001600160a01b03808516600090815260016020908152604080832093871683529290522082905580156103ee57826001600160a01b0316846001600160a01b03167f8c5be1e5ebec7d5bd14f71427d1e84f3dd0314c0f7b2291e5b200ac8c7c3b925846040516105cf91815260200190565b60405180910390a350505050565b6001600160a01b0383166106085780600260008282546105fd9190610867565b9091555061067a9050565b6001600160a01b0383166000908152602081905260409020548181101561065b5760405163391434e360e21b81526001600160a01b0385166004820152602481018290526044810183905260640161034e565b6001600160a01b03841660009081526020819052604090209082900390555b6001600160a01b038216610696576002805482900390556106b5565b6001600160a01b03821660009081526020819052604090208054820190555b816001600160a01b0316836001600160a01b03167fddf252ad1be2c89b69c2b068fc378daa952ba7f163c4a11628f55a4df523b3ef836040516106fa91815260200190565b60405180910390a3505050565b602081526000825180602084015260005b818110156107355760208186018101516040868401015201610718565b506000604082850101526040601f19601f83011684010191505092915050565b80356001600160a01b038116811461076c57600080fd5b919050565b6000806040838503121561078457600080fd5b61078d83610755565b946020939093013593505050565b6000806000606084860312156107b057600080fd5b6107b984610755565b92506107c760208501610755565b929592945050506040919091013590565b6000602082840312156107ea57600080fd5b6107f382610755565b9392505050565b6000806040838503121561080d57600080fd5b61081683610755565b915061082460208401610755565b90509250929050565b600181811c9082168061084157607f821691505b60208210810361086157634e487b7160e01b600052602260045260246000fd5b50919050565b808201808211156102b757634e487b7160e01b600052601160045260246000fdfea26469706673582212203a03aa613a51a0d6e468d1fa3f846687bc955ed4165037cd5b126ed4b318e6d564736f6c63430008210033",
        "nonce": "0x25",
        "chainId": "0x66eee"
      },
      "additionalContracts": [],
      "isFixedGasLimit": false
    },
    {
      "hash": "0xf4f43e4154da610c7d1464cafe1c05ec10cccd4d95a196db4c22dd982b5b4f2a",
      "transactionType": "CREATE",
      "contractName": "MockWETH",
      "contractAddress": "0xe160dc7bd1e9d63a47a1d4cd082c332dd19d870c",
      "function": null,
      "arguments": null,
      "transaction": {
        "from": "0x77d1bb07e6f487f47c8f481dff80de5c27821d09",
        "gas": "0x15096d",
        "value": "0x0",
        "input": "0x608060405234801561001057600080fd5b50336040518060400160405280601281526020017126b7b1b5902bb930b83832b21022ba3432b960711b815250604051806040016040528060058152602001640daae8aa8960db1b815250816003908161006a919061032e565b506004610077828261032e565b5050506001600160a01b0381166100a957604051631e4fbdf760e01b8152600060048201526024015b60405180910390fd5b6100b2816100cc565b506100c73369d3c21bcecceda100000061011e565b610417565b600580546001600160a01b038381166001600160a01b0319831681179093556040519116919082907f8be0079c531659141344cd1fd0a4f28419497f9722a3daafe3b4186f6b6457e090600090a35050565b6001600160a01b0382166101485760405163ec442f0560e01b8152600060048201526024016100a0565b61015460008383610158565b5050565b6001600160a01b03831661018357806002600082825461017891906103f0565b909155506101f59050565b6001600160a01b038316600090815260208190526040902054818110156101d65760405163391434e360e21b81526001600160a01b038516600482015260248101829052604481018390526064016100a0565b6001600160a01b03841660009081526020819052604090209082900390555b6001600160a01b03821661021157600280548290039055610230565b6001600160a01b03821660009081526020819052604090208054820190555b816001600160a01b0316836001600160a01b03167fddf252ad1be2c89b69c2b068fc378daa952ba7f163c4a11628f55a4df523b3ef8360405161027591815260200190565b60405180910390a3505050565b634e487b7160e01b600052604160045260246000fd5b600181811c908216806102ac57607f821691505b6020821081036102cc57634e487b7160e01b600052602260045260246000fd5b50919050565b601f821115610329578282111561032957806000526020600020601f840160051c6020851015610300575060005b90810190601f840160051c0360005b818110156103255760008382015560010161030f565b5050505b505050565b81516001600160401b0381111561034757610347610282565b61035b816103558454610298565b846102d2565b6020601f82116001811461038f57600083156103775750848201515b600019600385901b1c1916600184901b1784556103e9565b600084815260208120601f198516915b828110156103bf578785015182556020948501946001909201910161039f565b50848210156103dd5786840151600019600387901b60f8161c191681555b505060018360011b0184555b5050505050565b8082018082111561041157634e487b7160e01b600052601160045260246000fd5b92915050565b610b7e806104266000396000f3fe6080604052600436106100ec5760003560e01c806370a082311161008a578063a9059cbb11610059578063a9059cbb14610281578063d0e30db0146100fb578063dd62ed3e146102a1578063f2fde38b146102e7576100fb565b806370a08231146101f9578063715018a61461022f5780638da5cb5b1461024457806395d89b411461026c576100fb565b806323b872dd116100c657806323b872dd1461017d5780632e1a7d4d1461019d578063313ce567146101bd57806340c10f19146101d9576100fb565b806306fdde0314610103578063095ea7b31461012e57806318160ddd1461015e576100fb565b366100fb576100f9610307565b005b6100f9610307565b34801561010f57600080fd5b50610118610348565b60405161012591906109ae565b60405180910390f35b34801561013a57600080fd5b5061014e610149366004610a18565b6103da565b6040519015158152602001610125565b34801561016a57600080fd5b506002545b604051908152602001610125565b34801561018957600080fd5b5061014e610198366004610a42565b6103f4565b3480156101a957600080fd5b506100f96101b8366004610a7f565b610418565b3480156101c957600080fd5b5060405160128152602001610125565b3480156101e557600080fd5b506100f96101f4366004610a18565b610557565b34801561020557600080fd5b5061016f610214366004610a98565b6001600160a01b031660009081526020819052604090205490565b34801561023b57600080fd5b506100f9610565565b34801561025057600080fd5b506005546040516001600160a01b039091168152602001610125565b34801561027857600080fd5b50610118610579565b34801561028d57600080fd5b5061014e61029c366004610a18565b610588565b3480156102ad57600080fd5b5061016f6102bc366004610aba565b6001600160a01b03918216600090815260016020908152604080832093909416825291909152205490565b3480156102f357600080fd5b506100f9610302366004610a98565b610596565b61031133346105d4565b60405134815233907fe1fffcc4923d04b559f4d29a8bfc6cda04eb5b0d3c460751c2402c5c5cc9109c9060200160405180910390a2565b60606003805461035790610aed565b80601f016020809104026020016040519081016040528092919081815260200182805461038390610aed565b80156103d05780601f106103a5576101008083540402835291602001916103d0565b820191906000526020600020905b8154815290600101906020018083116103b357829003601f168201915b5050505050905090565b6000336103e881858561060a565b60019150505b92915050565b60003361040285828561061c565b61040d85858561069b565b506001949350505050565b3360009081526020819052604090205481111561047c5760405162461bcd60e51b815260206004820152601e60248201527f4d6f636b574554483a20696e73756666696369656e742062616c616e6365000060448201526064015b60405180910390fd5b61048633826106fa565b604051600090339083908381818185875af1925050503d80600081146104c8576040519150601f19603f3d011682016040523d82523d6000602084013e6104cd565b606091505b505090508061051e5760405162461bcd60e51b815260206004820152601d60248201527f4d6f636b574554483a20455448207472616e73666572206661696c65640000006044820152606401610473565b60405182815233907f7fcf532c15f0a6db0bd6d0e038bea71d30d808c7d98cb3bf7268a95bf5081b659060200160405180910390a25050565b61056182826105d4565b5050565b61056d610730565b610577600061075d565b565b60606004805461035790610aed565b6000336103e881858561069b565b61059e610730565b6001600160a01b0381166105c857604051631e4fbdf760e01b815260006004820152602401610473565b6105d18161075d565b50565b6001600160a01b0382166105fe5760405163ec442f0560e01b815260006004820152602401610473565b610561600083836107af565b61061783838360016108d9565b505050565b6001600160a01b03838116600090815260016020908152604080832093861683529290522054600019811015610695578181101561068657604051637dc7a0d960e11b81526001600160a01b03841660048201526024810182905260448101839052606401610473565b610695848484840360006108d9565b50505050565b6001600160a01b0383166106c557604051634b637e8f60e11b815260006004820152602401610473565b6001600160a01b0382166106ef5760405163ec442f0560e01b815260006004820152602401610473565b6106178383836107af565b6001600160a01b03821661072457604051634b637e8f60e11b815260006004820152602401610473565b610561826000836107af565b6005546001600160a01b031633146105775760405163118cdaa760e01b8152336004820152602401610473565b600580546001600160a01b038381166001600160a01b0319831681179093556040519116919082907f8be0079c531659141344cd1fd0a4f28419497f9722a3daafe3b4186f6b6457e090600090a35050565b6001600160a01b0383166107da5780600260008282546107cf9190610b27565b9091555061084c9050565b6001600160a01b0383166000908152602081905260409020548181101561082d5760405163391434e360e21b81526001600160a01b03851660048201526024810182905260448101839052606401610473565b6001600160a01b03841660009081526020819052604090209082900390555b6001600160a01b03821661086857600280548290039055610887565b6001600160a01b03821660009081526020819052604090208054820190555b816001600160a01b0316836001600160a01b03167fddf252ad1be2c89b69c2b068fc378daa952ba7f163c4a11628f55a4df523b3ef836040516108cc91815260200190565b60405180910390a3505050565b6001600160a01b0384166109035760405163e602df0560e01b815260006004820152602401610473565b6001600160a01b03831661092d57604051634a1406b160e11b815260006004820152602401610473565b6001600160a01b038085166000908152600160209081526040808320938716835292905220829055801561069557826001600160a01b0316846001600160a01b03167f8c5be1e5ebec7d5bd14f71427d1e84f3dd0314c0f7b2291e5b200ac8c7c3b925846040516109a091815260200190565b60405180910390a350505050565b602081526000825180602084015260005b818110156109dc57602081860181015160408684010152016109bf565b506000604082850101526040601f19601f83011684010191505092915050565b80356001600160a01b0381168114610a1357600080fd5b919050565b60008060408385031215610a2b57600080fd5b610a34836109fc565b946020939093013593505050565b600080600060608486031215610a5757600080fd5b610a60846109fc565b9250610a6e602085016109fc565b929592945050506040919091013590565b600060208284031215610a9157600080fd5b5035919050565b600060208284031215610aaa57600080fd5b610ab3826109fc565b9392505050565b60008060408385031215610acd57600080fd5b610ad6836109fc565b9150610ae4602084016109fc565b90509250929050565b600181811c90821680610b0157607f821691505b602082108103610b2157634e487b7160e01b600052602260045260246000fd5b50919050565b808201808211156103ee57634e487b7160e01b600052601160045260246000fdfea2646970667358221220f4f3381b4e06aabb59fd3397834ad7971403d4202f1ef1dc5f73008daf71c27264736f6c63430008210033",
        "nonce": "0x26",
        "chainId": "0x66eee"
      },
      "additionalContracts": [],
      "isFixedGasLimit": false
    },
    {
      "hash": "0x7ba3652311c472bcfa3140f8d9e0c1b6561f50bf5e04f000d2042060b1c04bec",
      "transactionType": "CREATE",
      "contractName": "MockPriceFeed",
      "contractAddress": "0xd371a1b9dcc0c6657fce940bcea759a8dcb005d9",
      "function": null,
      "arguments": null,
      "transaction": {
        "from": "0x77d1bb07e6f487f47c8f481dff80de5c27821d09",
        "gas": "0xd248e",
        "value": "0x0",
        "input": "0x6080604052348015600f57600080fd5b503380603557604051631e4fbdf760e01b81526000600482015260240160405180910390fd5b603c816041565b506091565b600080546001600160a01b038381166001600160a01b0319831681178455604051919092169283917f8be0079c531659141344cd1fd0a4f28419497f9722a3daafe3b4186f6b6457e09190a35050565b6107dc806100a06000396000f3fe608060405234801561001057600080fd5b506004361061009d5760003560e01c8063715018a611610066578063715018a6146101235780638da5cb5b1461012b578063baaa61be14610146578063cfed246b14610159578063f2fde38b1461017957600080fd5b8062e4768b146100a25780630a6f93e6146100b757806341976e09146100ea5780634352fa9f146100fd5780634aa0665214610110575b600080fd5b6100b56100b03660046105a3565b61018c565b005b6100d76100c53660046105cd565b60026020526000908152604090205481565b6040519081526020015b60405180910390f35b6100d76100f83660046105cd565b6101f7565b6100b561010b36600461063b565b61023b565b6100d761011e3660046106ac565b6103d6565b6100b5610446565b6000546040516001600160a01b0390911681526020016100e1565b6100d76101543660046106e9565b61045a565b6100d76101673660046105cd565b60016020526000908152604090205481565b6100b56101873660046105cd565b6104d1565b61019461050f565b6001600160a01b0382166000818152600160209081526040808320859055600282529182902042908190558251858152918201527fb556fac599c3c70efb9ab1fa725ecace6c81cc48d1455f886607def065f3e0c0910160405180910390a25050565b6001600160a01b038116600090815260016020526040902054806102365760405162461bcd60e51b815260040161022d9061071c565b60405180910390fd5b919050565b61024361050f565b8281146102845760405162461bcd60e51b815260206004820152600f60248201526e098cadccee8d040dad2e6dac2e8c6d608b1b604482015260640161022d565b60005b838110156103cf578282828181106102a1576102a1610743565b90506020020135600160008787858181106102be576102be610743565b90506020020160208101906102d391906105cd565b6001600160a01b03166001600160a01b0316815260200190815260200160002081905550426002600087878581811061030e5761030e610743565b905060200201602081019061032391906105cd565b6001600160a01b0316815260208101919091526040016000205584848281811061034f5761034f610743565b905060200201602081019061036491906105cd565b6001600160a01b03167fb556fac599c3c70efb9ab1fa725ecace6c81cc48d1455f886607def065f3e0c08484848181106103a0576103a0610743565b90506020020135426040516103bf929190918252602082015260400190565b60405180910390a2600101610287565b5050505050565b6001600160a01b03808416600090815260016020526040808220549285168252812054909190811580159061040b5750600081115b6104275760405162461bcd60e51b815260040161022d9061071c565b806104328386610759565b61043c9190610784565b9695505050505050565b61044e61050f565b610458600061053c565b565b6001600160a01b03808316600090815260016020526040808220549284168252812054909190811580159061048f5750600081115b6104ab5760405162461bcd60e51b815260040161022d9061071c565b806104be83670de0b6b3a7640000610759565b6104c89190610784565b95945050505050565b6104d961050f565b6001600160a01b03811661050357604051631e4fbdf760e01b81526000600482015260240161022d565b61050c8161053c565b50565b6000546001600160a01b031633146104585760405163118cdaa760e01b815233600482015260240161022d565b600080546001600160a01b038381166001600160a01b0319831681178455604051919092169283917f8be0079c531659141344cd1fd0a4f28419497f9722a3daafe3b4186f6b6457e09190a35050565b80356001600160a01b038116811461023657600080fd5b600080604083850312156105b657600080fd5b6105bf8361058c565b946020939093013593505050565b6000602082840312156105df57600080fd5b6105e88261058c565b9392505050565b60008083601f84011261060157600080fd5b50813567ffffffffffffffff81111561061957600080fd5b6020830191508360208260051b850101111561063457600080fd5b9250929050565b6000806000806040858703121561065157600080fd5b843567ffffffffffffffff81111561066857600080fd5b610674878288016105ef565b909550935050602085013567ffffffffffffffff81111561069457600080fd5b6106a0878288016105ef565b95989497509550505050565b6000806000606084860312156106c157600080fd5b6106ca8461058c565b92506106d86020850161058c565b929592945050506040919091013590565b600080604083850312156106fc57600080fd5b6107058361058c565b91506107136020840161058c565b90509250929050565b6020808252600d908201526c141c9a58d9481b9bdd081cd95d609a1b604082015260600190565b634e487b7160e01b600052603260045260246000fd5b808202811582820484141761077e57634e487b7160e01b600052601160045260246000fd5b92915050565b6000826107a157634e487b7160e01b600052601260045260246000fd5b50049056fea2646970667358221220dc456f130fc524b6ada226bb6d986bd6c226f9d1a131f65e816e00b2719cd25264736f6c63430008210033",
        "nonce": "0x27",
        "chainId": "0x66eee"
      },
      "additionalContracts": [],
      "isFixedGasLimit": false
    },
    {
      "hash": "0xe45cd35a1b90b9d30e4d04145c133732c4ef84f45c4f3920a743fbcc895b3a65",
      "transactionType": "CREATE",
      "contractName": "ShadowPool",
      "contractAddress": "0xfe8722f1eb898851b9d14f40084a57e3e27dd7a8",
      "function": null,
      "arguments": [
        "300"
      ],
      "transaction": {
        "from": "0x77d1bb07e6f487f47c8f481dff80de5c27821d09",
        "gas": "0x2cdae2",
        "value": "0x0",
        "input": "0x608060405234801561001057600080fd5b50604051611ecb380380611ecb83398101604081905261002f916100e3565b60017f9b779b17422d0df92223018b32b4d1fa46e071723d6817e2486d003becc55f0055338061007957604051631e4fbdf760e01b81526000600482015260240160405180910390fd5b61008281610093565b5060025542600355600180556100fc565b600080546001600160a01b038381166001600160a01b0319831681178455604051919092169283917f8be0079c531659141344cd1fd0a4f28419497f9722a3daafe3b4186f6b6457e09190a35050565b6000602082840312156100f557600080fd5b5051919050565b611dc08061010b6000396000f3fe608060405234801561001057600080fd5b506004361061014d5760003560e01c80637489ec23116100c35780639c3f1e901161007c5780639c3f1e90146102d7578063b7afe9be14610302578063b8c876b11461030b578063c706bd821461032b578063e013f9cf14610333578063f2fde38b1461034657600080fd5b80637489ec2314610271578063797fa707146102845780637fdc0b2214610297578063856652e9146102aa5780638da5cb5b146102bd578063975d063d146102ce57600080fd5b8063566887001161011557806356688700146101bc5780635778472a146101cf578063713fb31114610223578063715018a61461022b578063724e78da14610233578063741bef1a1461024657600080fd5b806306d47de9146101525780630724a643146101675780630a763da11461018d578063426067711461019657806344a5608b146101a9575b600080fd5b610165610160366004611817565b610359565b005b61017a61017536600461188a565b61040d565b6040519081526020015b60405180910390f35b61017a60015481565b61017a6101a4366004611912565b6107e6565b61017a6101b736600461194f565b6108bd565b6101656101ca366004611817565b610c4f565b6101e26101dd3660046119c7565b610cd3565b604080516001600160a01b03978816815295871660208701529390951692840192909252606083015260ff16608082015260a081019190915260c001610184565b610165610d47565b610165610db0565b6101656102413660046119e0565b610dc2565b600454610259906001600160a01b031681565b6040516001600160a01b039091168152602001610184565b61016561027f3660046119c7565b610e14565b61017a6102923660046119c7565b610f52565b61017a6102a5366004611a02565b610f73565b61017a6102b8366004611817565b611269565b6000546001600160a01b0316610259565b61017a60025481565b6102ea6102e53660046119c7565b61129a565b6040516101849c9b9a99989796959493929190611a7c565b61017a60035481565b61017a6103193660046119e0565b60056020526000908152604090205481565b60075461017a565b61017a610341366004611b3a565b611398565b6101656103543660046119e0565b6113b4565b6103616113ef565b6001600160a01b0382166000908152600560205260409020548111156103c75760405162461bcd60e51b8152602060048201526016602482015275496e73756666696369656e74206c697175696469747960501b60448201526064015b60405180910390fd5b6001600160a01b038216600090815260056020526040812080548392906103ef908490611b72565b9091555061040990506001600160a01b038316338361141c565b5050565b6000610417611456565b600084116104675760405162461bcd60e51b815260206004820152601d60248201527f416d6f756e74206d7573742062652067726561746572207468616e203000000060448201526064016103be565b846001600160a01b0316866001600160a01b0316036104c35760405162461bcd60e51b8152602060048201526018602482015277151bdad95b9cc81b5d5cdd08189948191a5999995c995b9d60421b60448201526064016103be565b6000831161051e5760405162461bcd60e51b815260206004820152602260248201527f4c696d6974207072696365206d7573742062652067726561746572207468616e604482015261020360f41b60648201526084016103be565b81158061052a57504282115b6105675760405162461bcd60e51b815260206004820152600e60248201526d496e76616c69642065787069727960901b60448201526064016103be565b61057c6001600160a01b038716333087611472565b6007546040516bffffffffffffffffffffffff1933606090811b8216602084015289811b8216603484015288901b166048820152605c8101869052607c810185905242609c82015260bc81019190915260dc01604051602081830303815290604052805190602001209050604051806101800160405280336001600160a01b03168152602001876001600160a01b03168152602001866001600160a01b03168152602001858152602001600081526020018481526020018381526020018881526020018a8a8080601f0160208091040260200160405190810160405280939291908181526020018383808284376000920182905250938552505060209092019150815260018054602080840191909152426040938401526000858152600680835290849020855181546001600160a01b03199081166001600160a01b03928316178355938701519482018054851695821695909517909455938501516002850180549093169316929092179055606083015160038301556080830151600483015560a0830151600583015560c08301519082015560e08201516007820155610100820151600882019061072f9082611c36565b5061012082015160098201805460ff1916600183600381111561075457610754611a44565b0217905550610140820151600a82015561016090910151600b9091015561077a816114ae565b600154604080516001600160a01b038916815260208101879052339184917f87dc8259d7614f7d74f7e7a21df432e428bd09bd782f7bf6d4121f1de038e5c9910160405180910390a46107da6001600080516020611d6b83398151915255565b98975050505050505050565b6004546000906001600160a01b03166108365760405162461bcd60e51b8152602060048201526012602482015271141c9a58d94819995959081b9bdd081cd95d60721b60448201526064016103be565b60048054604051632550332960e11b81526001600160a01b0387811693820193909352858316602482015260448101859052911690634aa0665290606401602060405180830381865afa158015610891573d6000803e3d6000fd5b505050506040513d601f19601f820116820180604052508101906108b59190611cf9565b949350505050565b60006108c7611456565b600082116109175760405162461bcd60e51b815260206004820152601d60248201527f416d6f756e74206d7573742062652067726561746572207468616e203000000060448201526064016103be565b826001600160a01b0316846001600160a01b0316036109735760405162461bcd60e51b8152602060048201526018602482015277151bdad95b9cc81b5d5cdd08189948191a5999995c995b9d60421b60448201526064016103be565b6001600160a01b0384161580159061099357506001600160a01b03831615155b6109d75760405162461bcd60e51b8152602060048201526015602482015274496e76616c696420746f6b656e206164647265737360581b60448201526064016103be565b6109ec6001600160a01b038516333085611472565b6007546040516bffffffffffffffffffffffff1933606090811b8216602084015287811b8216603484015286901b166048820152605c810184905242607c820152609c81019190915260bc01604051602081830303815290604052805190602001209050604051806101800160405280336001600160a01b03168152602001856001600160a01b03168152602001846001600160a01b0316815260200183815260200160008152602001600081526020016000815260200186815260200188888080601f0160208091040260200160405190810160405280939291908181526020018383808284376000920182905250938552505060209092019150815260018054602080840191909152426040938401526000858152600680835290849020855181546001600160a01b03199081166001600160a01b03928316178355938701519482018054851695821695909517909455938501516002850180549093169316929092179055606083015160038301556080830151600483015560a0830151600583015560c08301519082015560e082015160078201556101008201516008820190610b9a9082611c36565b5061012082015160098201805460ff19166001836003811115610bbf57610bbf611a44565b0217905550610140820151600a82015561016090910151600b90910155610be5816114ae565b600154604080516001600160a01b038716815260208101859052339184917f87dc8259d7614f7d74f7e7a21df432e428bd09bd782f7bf6d4121f1de038e5c9910160405180910390a4610c456001600080516020611d6b83398151915255565b9695505050505050565b610c646001600160a01b038316333084611472565b6001600160a01b03821660009081526005602052604081208054839290610c8c908490611d12565b90915550506040518181526001600160a01b038316907fc17cea59c2955cb181b03393209566960365771dbba9dc3d510180e7cb3120889060200160405180910390a25050565b600081815260066020526040812080546001820154600283015460038085015460098601548796879687968796879693956001600160a01b03938416959284169491909316929160ff1690811115610d2d57610d2d611a44565b600a90950154939c929b5090995097509195509350915050565b600254600354610d579190611d12565b421015610da65760405162461bcd60e51b815260206004820152601a60248201527f426174636820696e74657276616c206e6f74207265616368656400000000000060448201526064016103be565b610dae61151b565b565b610db86113ef565b610dae60006115c2565b610dca6113ef565b600480546001600160a01b0319166001600160a01b0383169081179091556040517fe5b20b8497e4f3e2435ef9c20e2e26b47497ee13745ce1c681ad6640653119e690600090a250565b610e1c611456565b600081815260066020526040902080546001600160a01b03163314610e755760405162461bcd60e51b815260206004820152600f60248201526e2737ba1037b93232b91037bbb732b960891b60448201526064016103be565b6000600982015460ff166003811115610e9057610e90611a44565b14610ed15760405162461bcd60e51b81526020600482015260116024820152704f72646572206e6f742070656e64696e6760781b60448201526064016103be565b60098101805460ff1916600217905560038101546001820154610f01916001600160a01b0390911690339061141c565b610f0a82611612565b604051339083907fa6eb7cdc219e1518ced964e9a34e61d68a94e4f1569db3e84256ba981ba5275390600090a350610f4f6001600080516020611d6b83398151915255565b50565b60078181548110610f6257600080fd5b600091825260209091200154905081565b6000610f7d611456565b6004546001600160a01b0316610fca5760405162461bcd60e51b8152602060048201526012602482015271141c9a58d94819995959081b9bdd081cd95d60721b60448201526064016103be565b6000831161100f5760405162461bcd60e51b81526020600482015260126024820152710416d6f756e74206d757374206265203e20360741b60448201526064016103be565b836001600160a01b0316856001600160a01b03160361105d5760405162461bcd60e51b815260206004820152600a60248201526929b0b6b2903a37b5b2b760b11b60448201526064016103be565b60048054604051632550332960e11b81526001600160a01b0388811693820193909352868316602482015260448101869052911690634aa0665290606401602060405180830381865afa1580156110b8573d6000803e3d6000fd5b505050506040513d601f19601f820116820180604052508101906110dc9190611cf9565b9050818110156111225760405162461bcd60e51b815260206004820152601160248201527014db1a5c1c1859d948195e18d959591959607a1b60448201526064016103be565b6001600160a01b0384166000908152600560205260409020548111156111835760405162461bcd60e51b8152602060048201526016602482015275496e73756666696369656e74206c697175696469747960501b60448201526064016103be565b6111986001600160a01b038616333086611472565b6001600160a01b038516600090815260056020526040812080548592906111c0908490611d12565b90915550506001600160a01b038416600090815260056020526040812080548392906111ed908490611b72565b9091555061120790506001600160a01b038516338361141c565b60408051848152602081018390526001600160a01b03808716929088169133917f6a8ab8112d9c10067c6a8c03c6f9191cefcc38ec7308c497c0af1e34d98ecce1910160405180910390a46108b56001600080516020611d6b83398151915255565b6008602052816000526040600020818154811061128557600080fd5b90600052602060002001600091509150505481565b60066020819052600091825260409091208054600182015460028301546003840154600485015460058601549686015460078701546008880180546001600160a01b039889169a978916999690981697949693959394929391926112fd90611ba1565b80601f016020809104026020016040519081016040528092919081815260200182805461132990611ba1565b80156113765780601f1061134b57610100808354040283529160200191611376565b820191906000526020600020905b81548152906001019060200180831161135957829003601f168201915b505050506009830154600a840154600b90940154929360ff909116929091508c565b6009602052816000526040600020818154811061128557600080fd5b6113bc6113ef565b6001600160a01b0381166113e657604051631e4fbdf760e01b8152600060048201526024016103be565b610f4f816115c2565b6000546001600160a01b03163314610dae5760405163118cdaa760e01b81523360048201526024016103be565b61142983838360016116bf565b61145157604051635274afe760e01b81526001600160a01b03841660048201526024016103be565b505050565b61145e611725565b6002600080516020611d6b83398151915255565b611480848484846001611755565b6114a857604051635274afe760e01b81526001600160a01b03851660048201526024016103be565b50505050565b6007805460018181019092557fa66cc928b5edb82af9bd49922954155ab7b0942694bea4ce44661d9a8736c6880182905533600090815260086020908152604080832080548086018255908452828420018590558354835260098252822080549384018155825290200155565b600754600154604080518381524260208201527fd2260ec47af813776fab3c17cff29397f12f4011cf6e6c43a9cbaad867f6eaad910160405180910390a2611565600760006117c7565b426003556001805490600061157983611d25565b91905055506001805461158c9190611b72565b6040518281527f0a0af9013a8d9968e4532086fbc7137cf11ee8b8f9d57c8e5e89589b416739089060200160405180910390a250565b600080546001600160a01b038381166001600160a01b0319831681178455604051919092169283917f8be0079c531659141344cd1fd0a4f28419497f9722a3daafe3b4186f6b6457e09190a35050565b60075460005b8181101561145157826007828154811061163457611634611d3e565b9060005260206000200154036116b7576007611651600184611b72565b8154811061166157611661611d3e565b90600052602060002001546007828154811061167f5761167f611d3e565b600091825260209091200155600780548061169c5761169c611d54565b60019003818190600052602060002001600090559055505050565b600101611618565b60405163a9059cbb60e01b60008181526001600160a01b038616600452602485905291602083604481808b5af19250600160005114831661171957838315161561170c573d6000823e3d81fd5b6000873b113d1516831692505b60405250949350505050565b600080516020611d6b83398151915254600203610dae57604051633ee5aeb560e01b815260040160405180910390fd5b6040516323b872dd60e01b60008181526001600160a01b038781166004528616602452604485905291602083606481808c5af1925060016000511483166117b55783831516156117a8573d6000823e3d81fd5b6000883b113d1516831692505b60405250600060605295945050505050565b5080546000825590600052602060002090610f4f919060005b808211156117f6576000818401556001016117e0565b505090565b80356001600160a01b038116811461181257600080fd5b919050565b6000806040838503121561182a57600080fd5b611833836117fb565b946020939093013593505050565b60008083601f84011261185357600080fd5b50813567ffffffffffffffff81111561186b57600080fd5b60208301915083602082850101111561188357600080fd5b9250929050565b60008060008060008060008060e0898b0312156118a657600080fd5b883567ffffffffffffffff8111156118bd57600080fd5b6118c98b828c01611841565b909950975050602089013595506118e260408a016117fb565b94506118f060608a016117fb565b979a96995094979396956080850135955060a08501359460c001359350915050565b60008060006060848603121561192757600080fd5b611930846117fb565b925061193e602085016117fb565b929592945050506040919091013590565b60008060008060008060a0878903121561196857600080fd5b863567ffffffffffffffff81111561197f57600080fd5b61198b89828a01611841565b909750955050602087013593506119a4604088016117fb565b92506119b2606088016117fb565b95989497509295919493608090920135925050565b6000602082840312156119d957600080fd5b5035919050565b6000602082840312156119f257600080fd5b6119fb826117fb565b9392505050565b60008060008060808587031215611a1857600080fd5b611a21856117fb565b9350611a2f602086016117fb565b93969395505050506040820135916060013590565b634e487b7160e01b600052602160045260246000fd5b60048110611a7857634e487b7160e01b600052602160045260246000fd5b9052565b6001600160a01b038d811682528c811660208301528b166040820152606081018a90526080810189905260a0810188905260c0810187905260e08101869052610180610100820181905285519082018181526000918290815b81811015611af1576020818b0181015185830182015201611ad5565b506000602082850101526020601f19601f8301168401019150508092505050611b1e610120830186611a5a565b61014082019390935261016001529a9950505050505050505050565b60008060408385031215611b4d57600080fd5b50508035926020909101359150565b634e487b7160e01b600052601160045260246000fd5b81810381811115611b8557611b85611b5c565b92915050565b634e487b7160e01b600052604160045260246000fd5b600181811c90821680611bb557607f821691505b602082108103611bd557634e487b7160e01b600052602260045260246000fd5b50919050565b601f821115611451578282111561145157806000526020600020601f840160051c6020851015611c09575060005b90810190601f840160051c0360005b81811015611c2e57600083820155600101611c18565b505050505050565b815167ffffffffffffffff811115611c5057611c50611b8b565b611c6481611c5e8454611ba1565b84611bdb565b6020601f821160018114611c985760008315611c805750848201515b600019600385901b1c1916600184901b178455611cf2565b600084815260208120601f198516915b82811015611cc85787850151825560209485019460019092019101611ca8565b5084821015611ce65786840151600019600387901b60f8161c191681555b505060018360011b0184555b5050505050565b600060208284031215611d0b57600080fd5b5051919050565b80820180821115611b8557611b85611b5c565b600060018201611d3757611d37611b5c565b5060010190565b634e487b7160e01b600052603260045260246000fd5b634e487b7160e01b600052603160045260246000fdfe9b779b17422d0df92223018b32b4d1fa46e071723d6817e2486d003becc55f00a26469706673582212201f4b3aafdff038f00a42b19875bdaf38b3f67584529d2850ca9cd862d1a93db964736f6c63430008210033000000000000000000000000000000000000000000000000000000000000012c",
        "nonce": "0x28",
        "chainId": "0x66eee"
      },
      "additionalContracts": [],
      "isFixedGasLimit": false
    },
    {
      "hash": "0x706ab00b36d2f5385315c2efa8eea844866159b2836cc76c80b6ff444c053f80",
      "transactionType": "CALL",
      "contractName": "ShadowPool",
      "contractAddress": "0xfe8722f1eb898851b9d14f40084a57e3e27dd7a8",
      "function": "setPriceFeed(address)",
      "arguments": [
        "0xd371a1b9DCC0C6657FCE940bCea759a8dcb005d9"
      ],
      "transaction": {
        "from": "0x77d1bb07e6f487f47c8f481dff80de5c27821d09",
        "to": "0xfe8722f1eb898851b9d14f40084a57e3e27dd7a8",
        "gas": "0xc04b",
        "value": "0x0",
        "input": "0x724e78da000000000000000000000000d371a1b9dcc0c6657fce940bcea759a8dcb005d9",
        "nonce": "0x29",
        "chainId": "0x66eee"
      },
      "additionalContracts": [],
      "isFixedGasLimit": false
    },
    {
      "hash": "0xc8e7da87534ab1faccf18f75d8c67415999d7bbf01eb581b07b1bc8baeac53f6",
      "transactionType": "CALL",
      "contractName": "MockPriceFeed",
      "contractAddress": "0xd371a1b9dcc0c6657fce940bcea759a8dcb005d9",
      "function": "setPrice(address,uint256)",
      "arguments": [
        "0x62b64cC9B1Aa2F2c9d612f0b4a58Cfba0eEc9bE2",
        "3200000000000000000000"
      ],
      "transaction": {
        "from": "0x77d1bb07e6f487f47c8f481dff80de5c27821d09",
        "to": "0xd371a1b9dcc0c6657fce940bcea759a8dcb005d9",
        "gas": "0xd11e",
        "value": "0x0",
        "input": "0x00e4768b00000000000000000000000062b64cc9b1aa2f2c9d612f0b4a58cfba0eec9be20000000000000000000000000000000000000000000000ad78ebc5ac62000000",
        "nonce": "0x2a",
        "chainId": "0x66eee"
      },
      "additionalContracts": [],
      "isFixedGasLimit": false
    },
    {
      "hash": "0x1bd6067c5d208a3e607b326df0de140008c2ab97b88f34192effbff58db3d424",
      "transactionType": "CALL",
      "contractName": "MockPriceFeed",
      "contractAddress": "0xd371a1b9dcc0c6657fce940bcea759a8dcb005d9",
      "function": "setPrice(address,uint256)",
      "arguments": [
        "0xe160dc7BD1E9d63A47a1d4CD082c332DD19D870c",
        "3200000000000000000000"
      ],
      "transaction": {
        "from": "0x77d1bb07e6f487f47c8f481dff80de5c27821d09",
        "to": "0xd371a1b9dcc0c6657fce940bcea759a8dcb005d9",
        "gas": "0xd11e",
        "value": "0x0",
        "input": "0x00e4768b000000000000000000000000e160dc7bd1e9d63a47a1d4cd082c332dd19d870c0000000000000000000000000000000000000000000000ad78ebc5ac62000000",
        "nonce": "0x2b",
        "chainId": "0x66eee"
      },
      "additionalContracts": [],
      "isFixedGasLimit": false
    },
    {
      "hash": "0x62f5a93ddb9b091b9e440cb4ce7f3323cb4eb7b5bcef9374d1a180f365fa95c8",
      "transactionType": "CALL",
      "contractName": "MockPriceFeed",
      "contractAddress": "0xd371a1b9dcc0c6657fce940bcea759a8dcb005d9",
      "function": "setPrice(address,uint256)",
      "arguments": [
        "0xcC5f8FC3CcAB02157F82afb7E19Fc65f4808849e",
        "1000000000000000000"
      ],
      "transaction": {
        "from": "0x77d1bb07e6f487f47c8f481dff80de5c27821d09",
        "to": "0xd371a1b9dcc0c6657fce940bcea759a8dcb005d9",
        "gas": "0xd11e",
        "value": "0x0",
        "input": "0x00e4768b000000000000000000000000cc5f8fc3ccab02157f82afb7e19fc65f4808849e0000000000000000000000000000000000000000000000000de0b6b3a7640000",
        "nonce": "0x2c",
        "chainId": "0x66eee"
      },
      "additionalContracts": [],
      "isFixedGasLimit": false
    },
    {
      "hash": "0x8aa197d9a1e7e847069135ad2991577e4133aa506690e0a20646211e2911a386",
      "transactionType": "CALL",
      "contractName": "MockPriceFeed",
      "contractAddress": "0xd371a1b9dcc0c6657fce940bcea759a8dcb005d9",
      "function": "setPrice(address,uint256)",
      "arguments": [
        "0xda222533d71C37A9370C6b5a26BcB4C07EcB0454",
        "1000000000000000000"
      ],
      "transaction": {
        "from": "0x77d1bb07e6f487f47c8f481dff80de5c27821d09",
        "to": "0xd371a1b9dcc0c6657fce940bcea759a8dcb005d9",
        "gas": "0xd11e",
        "value": "0x0",
        "input": "0x00e4768b000000000000000000000000da222533d71c37a9370c6b5a26bcb4c07ecb04540000000000000000000000000000000000000000000000000de0b6b3a7640000",
        "nonce": "0x2d",
        "chainId": "0x66eee"
      },
      "additionalContracts": [],
      "isFixedGasLimit": false
    },
    {
      "hash": "0xc160fdba87de0a982d7c2331a652f58c011de52d1f7c1a84ac1a84b595aec4f4",
      "transactionType": "CALL",
      "contractName": "MockERC20",
      "contractAddress": "0xcc5f8fc3ccab02157f82afb7e19fc65f4808849e",
      "function": "mint(address,uint256)",
      "arguments": [
        "0x77D1BB07E6F487f47C8f481dFF80DE5c27821D09",
        "100000000000000000000000000"
      ],
      "transaction": {
        "from": "0x77d1bb07e6f487f47c8f481dff80de5c27821d09",
        "to": "0xcc5f8fc3ccab02157f82afb7e19fc65f4808849e",
        "gas": "0xd14c",
        "value": "0x0",
        "input": "0x40c10f1900000000000000000000000077d1bb07e6f487f47c8f481dff80de5c27821d0900000000000000000000000000000000000000000052b7d2dcc80cd2e4000000",
        "nonce": "0x2e",
        "chainId": "0x66eee"
      },
      "additionalContracts": [],
      "isFixedGasLimit": false
    },
    {
      "hash": "0xe333c7f9003ed87a39f8ef3cf2548747e18647b5c5c6b2395a11f247e67ec9a5",
      "transactionType": "CALL",
      "contractName": "MockERC20",
      "contractAddress": "0xda222533d71c37a9370c6b5a26bcb4c07ecb0454",
      "function": "mint(address,uint256)",
      "arguments": [
        "0x77D1BB07E6F487f47C8f481dFF80DE5c27821D09",
        "100000000000000000000000000"
      ],
      "transaction": {
        "from": "0x77d1bb07e6f487f47c8f481dff80de5c27821d09",
        "to": "0xda222533d71c37a9370c6b5a26bcb4c07ecb0454",
        "gas": "0xd14c",
        "value": "0x0",
        "input": "0x40c10f1900000000000000000000000077d1bb07e6f487f47c8f481dff80de5c27821d0900000000000000000000000000000000000000000052b7d2dcc80cd2e4000000",
        "nonce": "0x2f",
        "chainId": "0x66eee"
      },
      "additionalContracts": [],
      "isFixedGasLimit": false
    },
    {
      "hash": "0xedf37a3499f5b785d53f24202602a9b33272f9eb25c5004d7e7ec62e24ad76d0",
      "transactionType": "CALL",
      "contractName": "MockETH",
      "contractAddress": "0x62b64cc9b1aa2f2c9d612f0b4a58cfba0eec9be2",
      "function": "mint(address,uint256)",
      "arguments": [
        "0x77D1BB07E6F487f47C8f481dFF80DE5c27821D09",
        "100000000000000000000000000"
      ],
      "transaction": {
        "from": "0x77d1bb07e6f487f47c8f481dff80de5c27821d09",
        "to": "0x62b64cc9b1aa2f2c9d612f0b4a58cfba0eec9be2",
        "gas": "0xd14c",
        "value": "0x0",
        "input": "0x40c10f1900000000000000000000000077d1bb07e6f487f47c8f481dff80de5c27821d0900000000000000000000000000000000000000000052b7d2dcc80cd2e4000000",
        "nonce": "0x30",
        "chainId": "0x66eee"
      },
      "additionalContracts": [],
      "isFixedGasLimit": false
    },
    {
      "hash": "0x1c883b10d4504928cd4ee6607ffa2105d61bcb4c6aea8fa1e08338adf81178f8",
      "transactionType": "CALL",
      "contractName": "MockWETH",
      "contractAddress": "0xe160dc7bd1e9d63a47a1d4cd082c332dd19d870c",
      "function": "mint(address,uint256)",
      "arguments": [
        "0x77D1BB07E6F487f47C8f481dFF80DE5c27821D09",
        "100000000000000000000000000"
      ],
      "transaction": {
        "from": "0x77d1bb07e6f487f47c8f481dff80de5c27821d09",
        "to": "0xe160dc7bd1e9d63a47a1d4cd082c332dd19d870c",
        "gas": "0xd14c",
        "value": "0x0",
        "input": "0x40c10f1900000000000000000000000077d1bb07e6f487f47c8f481dff80de5c27821d0900000000000000000000000000000000000000000052b7d2dcc80cd2e4000000",
        "nonce": "0x31",
        "chainId": "0x66eee"
      },
      "additionalContracts": [],
      "isFixedGasLimit": false
    },
    {
      "hash": "0x4af664b8987c6310c097f0279df473fa0f7a79e350f782017099bcca181e5741",
      "transactionType": "CALL",
      "contractName": "MockERC20",
      "contractAddress": "0xcc5f8fc3ccab02157f82afb7e19fc65f4808849e",
      "function": "approve(address,uint256)",
      "arguments": [
        "0xfe8722f1eb898851b9D14f40084A57E3e27Dd7A8",
        "100000000000000000000000000"
      ],
      "transaction": {
        "from": "0x77d1bb07e6f487f47c8f481dff80de5c27821d09",
        "to": "0xcc5f8fc3ccab02157f82afb7e19fc65f4808849e",
        "gas": "0xd14c",
        "value": "0x0",
        "input": "0x095ea7b3000000000000000000000000fe8722f1eb898851b9d14f40084a57e3e27dd7a800000000000000000000000000000000000000000052b7d2dcc80cd2e4000000",
        "nonce": "0x32",
        "chainId": "0x66eee"
      },
      "additionalContracts": [],
      "isFixedGasLimit": false
    },
    {
      "hash": "0x3a250ac55789f288f51b4c82aad9b9e9a3c7eee50c4a302b3764c8de37f87949",
      "transactionType": "CALL",
      "contractName": "ShadowPool",
      "contractAddress": "0xfe8722f1eb898851b9d14f40084a57e3e27dd7a8",
      "function": "addLiquidity(address,uint256)",
      "arguments": [
        "0xcC5f8FC3CcAB02157F82afb7E19Fc65f4808849e",
        "100000000000000000000000000"
      ],
      "transaction": {
        "from": "0x77d1bb07e6f487f47c8f481dff80de5c27821d09",
        "to": "0xfe8722f1eb898851b9d14f40084a57e3e27dd7a8",
        "gas": "0xd13d",
        "value": "0x0",
        "input": "0x56688700000000000000000000000000cc5f8fc3ccab02157f82afb7e19fc65f4808849e00000000000000000000000000000000000000000052b7d2dcc80cd2e4000000",
        "nonce": "0x33",
        "chainId": "0x66eee"
      },
      "additionalContracts": [],
      "isFixedGasLimit": false
    },
    {
      "hash": "0xfd408dd8833e52d8533007ed23e64f5884cc9353aa3d5a8da9b9dc6812e1da94",
      "transactionType": "CALL",
      "contractName": "MockERC20",
      "contractAddress": "0xda222533d71c37a9370c6b5a26bcb4c07ecb0454",
      "function": "approve(address,uint256)",
      "arguments": [
        "0xfe8722f1eb898851b9D14f40084A57E3e27Dd7A8",
        "100000000000000000000000000"
      ],
      "transaction": {
        "from": "0x77d1bb07e6f487f47c8f481dff80de5c27821d09",
        "to": "0xda222533d71c37a9370c6b5a26bcb4c07ecb0454",
        "gas": "0xd14c",
        "value": "0x0",
        "input": "0x095ea7b3000000000000000000000000fe8722f1eb898851b9d14f40084a57e3e27dd7a800000000000000000000000000000000000000000052b7d2dcc80cd2e4000000",
        "nonce": "0x34",
        "chainId": "0x66eee"
      },
      "additionalContracts": [],
      "isFixedGasLimit": false
    },
    {
      "hash": "0x8813c099a334fef762f788f9da27c67be5c49f8a3fc2143afbcf4710585f6238",
      "transactionType": "CALL",
      "contractName": "ShadowPool",
      "contractAddress": "0xfe8722f1eb898851b9d14f40084a57e3e27dd7a8",
      "function": "addLiquidity(address,uint256)",
      "arguments": [
        "0xda222533d71C37A9370C6b5a26BcB4C07EcB0454",
        "100000000000000000000000000"
      ],
      "transaction": {
        "from": "0x77d1bb07e6f487f47c8f481dff80de5c27821d09",
        "to": "0xfe8722f1eb898851b9d14f40084a57e3e27dd7a8",
        "gas": "0xd13d",
        "value": "0x0",
        "input": "0x56688700000000000000000000000000da222533d71c37a9370c6b5a26bcb4c07ecb045400000000000000000000000000000000000000000052b7d2dcc80cd2e4000000",
        "nonce": "0x35",
        "chainId": "0x66eee"
      },
      "additionalContracts": [],
      "isFixedGasLimit": false
    },
    {
      "hash": "0x5f7dc05fc05e864a3ba4c1abe7b2d17dba67e954a118802d81150ddf5289f46c",
      "transactionType": "CALL",
      "contractName": "MockETH",
      "contractAddress": "0x62b64cc9b1aa2f2c9d612f0b4a58cfba0eec9be2",
      "function": "approve(address,uint256)",
      "arguments": [
        "0xfe8722f1eb898851b9D14f40084A57E3e27Dd7A8",
        "100000000000000000000000000"
      ],
      "transaction": {
        "from": "0x77d1bb07e6f487f47c8f481dff80de5c27821d09",
        "to": "0x62b64cc9b1aa2f2c9d612f0b4a58cfba0eec9be2",
        "gas": "0xd14c",
        "value": "0x0",
        "input": "0x095ea7b3000000000000000000000000fe8722f1eb898851b9d14f40084a57e3e27dd7a800000000000000000000000000000000000000000052b7d2dcc80cd2e4000000",
        "nonce": "0x36",
        "chainId": "0x66eee"
      },
      "additionalContracts": [],
      "isFixedGasLimit": false
    },
    {
      "hash": "0x6524fcf8c4e0d233f05de3511fc2f8eafe2cf5f6a470c8c6e28caea61669bb7e",
      "transactionType": "CALL",
      "contractName": "ShadowPool",
      "contractAddress": "0xfe8722f1eb898851b9d14f40084a57e3e27dd7a8",
      "function": "addLiquidity(address,uint256)",
      "arguments": [
        "0x62b64cC9B1Aa2F2c9d612f0b4a58Cfba0eEc9bE2",
        "100000000000000000000000000"
      ],
      "transaction": {
        "from": "0x77d1bb07e6f487f47c8f481dff80de5c27821d09",
        "to": "0xfe8722f1eb898851b9d14f40084a57e3e27dd7a8",
        "gas": "0xd13d",
        "value": "0x0",
        "input": "0x5668870000000000000000000000000062b64cc9b1aa2f2c9d612f0b4a58cfba0eec9be200000000000000000000000000000000000000000052b7d2dcc80cd2e4000000",
        "nonce": "0x37",
        "chainId": "0x66eee"
      },
      "additionalContracts": [],
      "isFixedGasLimit": false
    },
    {
      "hash": "0x6943bcc65a0eb8aeabcf1d4716e80859ca172a33b54ae93931ede6c1a1252459",
      "transactionType": "CALL",
      "contractName": "MockWETH",
      "contractAddress": "0xe160dc7bd1e9d63a47a1d4cd082c332dd19d870c",
      "function": "approve(address,uint256)",
      "arguments": [
        "0xfe8722f1eb898851b9D14f40084A57E3e27Dd7A8",
        "100000000000000000000000000"
      ],
      "transaction": {
        "from": "0x77d1bb07e6f487f47c8f481dff80de5c27821d09",
        "to": "0xe160dc7bd1e9d63a47a1d4cd082c332dd19d870c",
        "gas": "0xd14c",
        "value": "0x0",
        "input": "0x095ea7b3000000000000000000000000fe8722f1eb898851b9d14f40084a57e3e27dd7a800000000000000000000000000000000000000000052b7d2dcc80cd2e4000000",
        "nonce": "0x38",
        "chainId": "0x66eee"
      },
      "additionalContracts": [],
      "isFixedGasLimit": false
    },
    {
      "hash": "0xd6918d5db2535ab898d3cbefb67e807dcc5d8a1eacc7b3823ca1edfad776d7fd",
      "transactionType": "CALL",
      "contractName": "ShadowPool",
      "contractAddress": "0xfe8722f1eb898851b9d14f40084a57e3e27dd7a8",
      "function": "addLiquidity(address,uint256)",
      "arguments": [
        "0xe160dc7BD1E9d63A47a1d4CD082c332DD19D870c",
        "100000000000000000000000000"
      ],
      "transaction": {
        "from": "0x77d1bb07e6f487f47c8f481dff80de5c27821d09",
        "to": "0xfe8722f1eb898851b9d14f40084a57e3e27dd7a8",
        "gas": "0xd13d",
        "value": "0x0",
        "input": "0x56688700000000000000000000000000e160dc7bd1e9d63a47a1d4cd082c332dd19d870c00000000000000000000000000000000000000000052b7d2dcc80cd2e4000000",
        "nonce": "0x39",
        "chainId": "0x66eee"
      },
      "additionalContracts": [],
      "isFixedGasLimit": false
    }
  ],
  "receipts": [
    {
      "status": "0x1",
      "cumulativeGasUsed": "0xd8e99",
      "logs": [
        {
          "address": "0xcc5f8fc3ccab02157f82afb7e19fc65f4808849e",
          "topics": [
            "0x8be0079c531659141344cd1fd0a4f28419497f9722a3daafe3b4186f6b6457e0",
            "0x0000000000000000000000000000000000000000000000000000000000000000",
            "0x00000000000000000000000077d1bb07e6f487f47c8f481dff80de5c27821d09"
          ],
          "data": "0x",
          "blockHash": "0x73ddc443f6a5e3894add945a7d91c20bb3c82e8491ccf92a42fbb088504db94b",
          "blockNumber": "0xe330c62",
          "blockTimestamp": "0x697caf33",
          "transactionHash": "0x0bd73c6ed8bba1d8be9c34e42d5f344a5b3166d4f4432733b2cfdb4ccb5fa746",
          "transactionIndex": "0x1",
          "logIndex": "0x0",
          "removed": false
        },
        {
          "address": "0xcc5f8fc3ccab02157f82afb7e19fc65f4808849e",
          "topics": [
            "0xddf252ad1be2c89b69c2b068fc378daa952ba7f163c4a11628f55a4df523b3ef",
            "0x0000000000000000000000000000000000000000000000000000000000000000",
            "0x00000000000000000000000077d1bb07e6f487f47c8f481dff80de5c27821d09"
          ],
          "data": "0x00000000000000000000000000000000000000000000d3c21bcecceda1000000",
          "blockHash": "0x73ddc443f6a5e3894add945a7d91c20bb3c82e8491ccf92a42fbb088504db94b",
          "blockNumber": "0xe330c62",
          "blockTimestamp": "0x697caf33",
          "transactionHash": "0x0bd73c6ed8bba1d8be9c34e42d5f344a5b3166d4f4432733b2cfdb4ccb5fa746",
          "transactionIndex": "0x1",
          "logIndex": "0x1",
          "removed": false
        }
      ],
      "logsBloom": "0x00000000000000000000000000000000000000000000000080800000000000000000000000000000000000000000000000000000000000000000000000000000000000800000000000000008000000000001000000000000000000000000000000000000020000000000000000000800000000000000000000000010000000400000000000000000000000000000000000000000000000000001000000000000000002000000000000000000000000000000000000000000000000000000000000000002000000000000000000000000000000400004000000000000000020000000000000000000000000000000000000000000000000000000000000000000",
      "type": "0x2",
      "transactionHash": "0x0bd73c6ed8bba1d8be9c34e42d5f344a5b3166d4f4432733b2cfdb4ccb5fa746",
      "transactionIndex": "0x1",
      "blockHash": "0x73ddc443f6a5e3894add945a7d91c20bb3c82e8491ccf92a42fbb088504db94b",
      "blockNumber": "0xe330c62",
      "gasUsed": "0xd8e99",
      "effectiveGasPrice": "0x1312d00",
      "from": "0x77d1bb07e6f487f47c8f481dff80de5c27821d09",
      "to": null,
      "contractAddress": "0xcc5f8fc3ccab02157f82afb7e19fc65f4808849e",
      "gasUsedForL1": "0x320bf",
      "l1BlockNumber": "0x9af642",
      "timeboosted": false
    },
    {
      "status": "0x1",
      "cumulativeGasUsed": "0xd8f2c",
      "logs": [
        {
          "address": "0xda222533d71c37a9370c6b5a26bcb4c07ecb0454",
          "topics": [
            "0x8be0079c531659141344cd1fd0a4f28419497f9722a3daafe3b4186f6b6457e0",
            "0x0000000000000000000000000000000000000000000000000000000000000000",
            "0x00000000000000000000000077d1bb07e6f487f47c8f481dff80de5c27821d09"
          ],
          "data": "0x",
          "blockHash": "0x64b3a0cc106a10b79267378af1a887b00cfcedd1a87f84f42ab8b835be46d725",
          "blockNumber": "0xe330c69",
          "blockTimestamp": "0x697caf35",
          "transactionHash": "0xe2933e088503e88ee5688b39cfb1495b00f790c160f9edea42a707696a18b8a5",
          "transactionIndex": "0x1",
          "logIndex": "0x0",
          "removed": false
        },
        {
          "address": "0xda222533d71c37a9370c6b5a26bcb4c07ecb0454",
          "topics": [
            "0xddf252ad1be2c89b69c2b068fc378daa952ba7f163c4a11628f55a4df523b3ef",
            "0x0000000000000000000000000000000000000000000000000000000000000000",
            "0x00000000000000000000000077d1bb07e6f487f47c8f481dff80de5c27821d09"
          ],
          "data": "0x00000000000000000000000000000000000000000000d3c21bcecceda1000000",
          "blockHash": "0x64b3a0cc106a10b79267378af1a887b00cfcedd1a87f84f42ab8b835be46d725",
          "blockNumber": "0xe330c69",
          "blockTimestamp": "0x697caf35",
          "transactionHash": "0xe2933e088503e88ee5688b39cfb1495b00f790c160f9edea42a707696a18b8a5",
          "transactionIndex": "0x1",
          "logIndex": "0x1",
          "removed": false
        }
      ],
      "logsBloom": "0x00000000000000000000000000000600000000000000000080800000000000000000000010000000000000000000000000000000000000000000000000000000000000800000000000000008000000000001000000000000000000000000000000000000020000000000000000000800000000000000000000000010000000400000000000000000000000000000000000000000000000000000000000000000000002000000000000000000000000000000000000000000000000000000000000000002000000000000000000000000000000000000000000000000000020000000000000000000000000000000000000000000000000000000000000000000",
      "type": "0x2",
      "transactionHash": "0xe2933e088503e88ee5688b39cfb1495b00f790c160f9edea42a707696a18b8a5",
      "transactionIndex": "0x1",
      "blockHash": "0x64b3a0cc106a10b79267378af1a887b00cfcedd1a87f84f42ab8b835be46d725",
      "blockNumber": "0xe330c69",
      "gasUsed": "0xd8f2c",
      "effectiveGasPrice": "0x1312d00",
      "from": "0x77d1bb07e6f487f47c8f481dff80de5c27821d09",
      "to": null,
      "contractAddress": "0xda222533d71c37a9370c6b5a26bcb4c07ecb0454",
      "gasUsedForL1": "0x3216a",
      "l1BlockNumber": "0x9af642",
      "timeboosted": false
    },
    {
      "status": "0x1",
      "cumulativeGasUsed": "0xcc77a",
      "logs": [
        {
          "address": "0x62b64cc9b1aa2f2c9d612f0b4a58cfba0eec9be2",
          "topics": [
            "0x8be0079c531659141344cd1fd0a4f28419497f9722a3daafe3b4186f6b6457e0",
            "0x0000000000000000000000000000000000000000000000000000000000000000",
            "0x00000000000000000000000077d1bb07e6f487f47c8f481dff80de5c27821d09"
          ],
          "data": "0x",
          "blockHash": "0x0427041722c6f8ba3823db811b8ce74cd2ef4b0026a51a0b9fbe14ad55e1c5f9",
          "blockNumber": "0xe330c71",
          "blockTimestamp": "0x697caf39",
          "transactionHash": "0xfdd1c98b102e6fd2b9fd172ee21da06873e00e34ed5ca3c0df48b3ddb82f971b",
          "transactionIndex": "0x1",
          "logIndex": "0x0",
          "removed": false
        },
        {
          "address": "0x62b64cc9b1aa2f2c9d612f0b4a58cfba0eec9be2",
          "topics": [
            "0xddf252ad1be2c89b69c2b068fc378daa952ba7f163c4a11628f55a4df523b3ef",
            "0x0000000000000000000000000000000000000000000000000000000000000000",
            "0x00000000000000000000000077d1bb07e6f487f47c8f481dff80de5c27821d09"
          ],
          "data": "0x00000000000000000000000000000000000000000000d3c21bcecceda1000000",
          "blockHash": "0x0427041722c6f8ba3823db811b8ce74cd2ef4b0026a51a0b9fbe14ad55e1c5f9",
          "blockNumber": "0xe330c71",
          "blockTimestamp": "0x697caf39",
          "transactionHash": "0xfdd1c98b102e6fd2b9fd172ee21da06873e00e34ed5ca3c0df48b3ddb82f971b",
          "transactionIndex": "0x1",
          "logIndex": "0x1",
          "removed": false
        }
      ],
      "logsBloom": "0x00000000000000000000000000000000000000000000000080800000000000000000000000000000000000000000000000000000000000000000000000000000000000800000000000000008000000000001000000000000000000000000040000000000020010000000000000000800000000000000000000000010000000400000000000000000000000000000000000000000000000000000000000000000000002000000000000000000080000000000000000000000000000000000000000000002000000000000000000000000000000000000000000000000000020000000000000000000000000000000000000000000000000000000000000000000",
      "type": "0x2",
      "transactionHash": "0xfdd1c98b102e6fd2b9fd172ee21da06873e00e34ed5ca3c0df48b3ddb82f971b",
      "transactionIndex": "0x1",
      "blockHash": "0x0427041722c6f8ba3823db811b8ce74cd2ef4b0026a51a0b9fbe14ad55e1c5f9",
      "blockNumber": "0xe330c71",
      "gasUsed": "0xcc77a",
      "effectiveGasPrice": "0x1312d00",
      "from": "0x77d1bb07e6f487f47c8f481dff80de5c27821d09",
      "to": null,
      "contractAddress": "0x62b64cc9b1aa2f2c9d612f0b4a58cfba0eec9be2",
      "gasUsedForL1": "0x295ce",
      "l1BlockNumber": "0x9af642",
      "timeboosted": false
    },
    {
      "status": "0x1",
      "cumulativeGasUsed": "0xfa5f7",
      "logs": [
        {
          "address": "0xe160dc7bd1e9d63a47a1d4cd082c332dd19d870c",
          "topics": [
            "0x8be0079c531659141344cd1fd0a4f28419497f9722a3daafe3b4186f6b6457e0",
            "0x0000000000000000000000000000000000000000000000000000000000000000",
            "0x00000000000000000000000077d1bb07e6f487f47c8f481dff80de5c27821d09"
          ],
          "data": "0x",
          "blockHash": "0x006bd3b93443873445f422b174782665a151aded27582d33f1e0e92eaf715d61",
          "blockNumber": "0xe330c86",
          "blockTimestamp": "0x697caf3f",
          "transactionHash": "0xf4f43e4154da610c7d1464cafe1c05ec10cccd4d95a196db4c22dd982b5b4f2a",
          "transactionIndex": "0x1",
          "logIndex": "0x0",
          "removed": false
        },
        {
          "address": "0xe160dc7bd1e9d63a47a1d4cd082c332dd19d870c",
          "topics": [
            "0xddf252ad1be2c89b69c2b068fc378daa952ba7f163c4a11628f55a4df523b3ef",
            "0x0000000000000000000000000000000000000000000000000000000000000000",
            "0x00000000000000000000000077d1bb07e6f487f47c8f481dff80de5c27821d09"
          ],
          "data": "0x00000000000000000000000000000000000000000000d3c21bcecceda1000000",
          "blockHash": "0x006bd3b93443873445f422b174782665a151aded27582d33f1e0e92eaf715d61",
          "blockNumber": "0xe330c86",
          "blockTimestamp": "0x697caf3f",
          "transactionHash": "0xf4f43e4154da610c7d1464cafe1c05ec10cccd4d95a196db4c22dd982b5b4f2a",
          "transactionIndex": "0x1",
          "logIndex": "0x1",
          "removed": false
        }
      ],
      "logsBloom": "0x00000000000000000000000000000000000400000000000080800000000000000000000000000000000800000000000000000000000000000000000000000000000000800000000000000008000000000001000000000000000000000000000000000000020000000000000000000800000000000000000000000010000000400000000000000000000000000000000000000000000000000000000000000000010002000000000000000000000000000000000000000000000000000000000000000002000000000000000000000000000000000000000000000000000020000000000000000000000000000000000000000000000000000000000000000000",
      "type": "0x2",
      "transactionHash": "0xf4f43e4154da610c7d1464cafe1c05ec10cccd4d95a196db4c22dd982b5b4f2a",
      "transactionIndex": "0x1",
      "blockHash": "0x006bd3b93443873445f422b174782665a151aded27582d33f1e0e92eaf715d61",
      "blockNumber": "0xe330c86",
      "gasUsed": "0xfa5f7",
      "effectiveGasPrice": "0x1317b20",
      "from": "0x77d1bb07e6f487f47c8f481dff80de5c27821d09",
      "to": null,
      "contractAddress": "0xe160dc7bd1e9d63a47a1d4cd082c332dd19d870c",
      "gasUsedForL1": "0x32246",
      "l1BlockNumber": "0x9af643",
      "timeboosted": false
    },
    {
      "status": "0x1",
      "cumulativeGasUsed": "0x9c23f",
      "logs": [
        {
          "address": "0xd371a1b9dcc0c6657fce940bcea759a8dcb005d9",
          "topics": [
            "0x8be0079c531659141344cd1fd0a4f28419497f9722a3daafe3b4186f6b6457e0",
            "0x0000000000000000000000000000000000000000000000000000000000000000",
            "0x00000000000000000000000077d1bb07e6f487f47c8f481dff80de5c27821d09"
          ],
          "data": "0x",
          "blockHash": "0xf9af5a3fc9df47855ed885f9eb209cb04e226228878ee5a5ea73a9ed10afe955",
          "blockNumber": "0xe330c99",
          "blockTimestamp": "0x697caf45",
          "transactionHash": "0x7ba3652311c472bcfa3140f8d9e0c1b6561f50bf5e04f000d2042060b1c04bec",
          "transactionIndex": "0x1",
          "logIndex": "0x0",
          "removed": false
        }
      ],
      "logsBloom": "0x00000000000000000000000000000000000000000000000080800000000000000000000000000000000000000000000000000000000000000000000000001000000000800000000000000000000000000001000000000000000800000000000010000000020000000000000000000800000000000000000000000000000000400000000000000000000000000000000000000000000000000000000000000000000002000000000000000000000000000000000000000000000000000000000000000000000000000000000000000000000000000000000000000000000020000000000000000000000000000000000000000000000000000000000000000000",
      "type": "0x2",
      "transactionHash": "0x7ba3652311c472bcfa3140f8d9e0c1b6561f50bf5e04f000d2042060b1c04bec",
      "transactionIndex": "0x1",
      "blockHash": "0xf9af5a3fc9df47855ed885f9eb209cb04e226228878ee5a5ea73a9ed10afe955",
      "blockNumber": "0xe330c99",
      "gasUsed": "0x9c23f",
      "effectiveGasPrice": "0x1312d00",
      "from": "0x77d1bb07e6f487f47c8f481dff80de5c27821d09",
      "to": null,
      "contractAddress": "0xd371a1b9dcc0c6657fce940bcea759a8dcb005d9",
      "gasUsedForL1": "0x1ec48",
      "l1BlockNumber": "0x9af643",
      "timeboosted": false
    },
    {
      "status": "0x1",
      "cumulativeGasUsed": "0x238f8c",
      "logs": [
        {
          "address": "0xfe8722f1eb898851b9d14f40084a57e3e27dd7a8",
          "topics": [
            "0x8be0079c531659141344cd1fd0a4f28419497f9722a3daafe3b4186f6b6457e0",
            "0x0000000000000000000000000000000000000000000000000000000000000000",
            "0x00000000000000000000000077d1bb07e6f487f47c8f481dff80de5c27821d09"
          ],
          "data": "0x",
          "blockHash": "0x965c1f3b24bce61fa26f1a4c25c3e7fcb93241cf26d706f11f27fbe996031bfc",
          "blockNumber": "0xe330cb8",
          "blockTimestamp": "0x697caf4d",
          "transactionHash": "0xe45cd35a1b90b9d30e4d04145c133732c4ef84f45c4f3920a743fbcc895b3a65",
          "transactionIndex": "0x2",
          "logIndex": "0x3",
          "removed": false
        }
      ],
      "logsBloom": "0x00000000000000000000000000000000000000000000000080800000000000000000000000000000000000000000000000000000000000000000000000000000000000800000000000000000000000000001000000000000000000000000000000000000020000000000000000000800000000000000000000000000000000400000000000000000000000000000000000000000000000000000000000000000000002000000000000004000000000000000000000000000000000000000000000000000000000000000000000000000000000000000000000000040000020000000000000000002000000000000000000000000000000000000000000000000",
      "type": "0x2",
      "transactionHash": "0xe45cd35a1b90b9d30e4d04145c133732c4ef84f45c4f3920a743fbcc895b3a65",
      "transactionIndex": "0x2",
      "blockHash": "0x965c1f3b24bce61fa26f1a4c25c3e7fcb93241cf26d706f11f27fbe996031bfc",
      "blockNumber": "0xe330cb8",
      "gasUsed": "0x21848d",
      "effectiveGasPrice": "0x1317b20",
      "from": "0x77d1bb07e6f487f47c8f481dff80de5c27821d09",
      "to": null,
      "contractAddress": "0xfe8722f1eb898851b9d14f40084a57e3e27dd7a8",
      "gasUsedForL1": "0x5d44f",
      "l1BlockNumber": "0x9af644",
      "timeboosted": false
    },
    {
      "status": "0x1",
      "cumulativeGasUsed": "0xea5c",
      "logs": [
        {
          "address": "0xfe8722f1eb898851b9d14f40084a57e3e27dd7a8",
          "topics": [
            "0xe5b20b8497e4f3e2435ef9c20e2e26b47497ee13745ce1c681ad6640653119e6",
            "0x000000000000000000000000d371a1b9dcc0c6657fce940bcea759a8dcb005d9"
          ],
          "data": "0x",
          "blockHash": "0xf8cc174c2e939061dbad1a0e389b97edadf458531f3d1294ceda7628eb0c1441",
          "blockNumber": "0xe330cd1",
          "blockTimestamp": "0x697caf54",
          "transactionHash": "0x706ab00b36d2f5385315c2efa8eea844866159b2836cc76c80b6ff444c053f80",
          "transactionIndex": "0x1",
          "logIndex": "0x0",
          "removed": false
        }
      ],
      "logsBloom": "0x00000000000000000000000000000000000000000000000004000004000000000000000000000000000000000000000000000000000000000000000000000000000000000000000000400000000000080000000000000000000000000000000000000000000000000000000000000000000000000000000000000000000000000000000000000000000000000000000000000000000000000000000000000000000000000000000000004000000000000000000000000000000000000000000000000000000000000000020000000000000000000000000000000040000000000000020000000002000000000000000000000000000000000000000000000000",
      "type": "0x2",
      "transactionHash": "0x706ab00b36d2f5385315c2efa8eea844866159b2836cc76c80b6ff444c053f80",
      "transactionIndex": "0x1",
      "blockHash": "0xf8cc174c2e939061dbad1a0e389b97edadf458531f3d1294ceda7628eb0c1441",
      "blockNumber": "0xe330cd1",
      "gasUsed": "0xea5c",
      "effectiveGasPrice": "0x1312d00",
      "from": "0x77d1bb07e6f487f47c8f481dff80de5c27821d09",
      "to": "0xfe8722f1eb898851b9d14f40084a57e3e27dd7a8",
      "contractAddress": null,
      "gasUsedForL1": "0x3187",
      "l1BlockNumber": "0x9af644",
      "timeboosted": false
    },
    {
      "status": "0x1",
      "cumulativeGasUsed": "0x14ea6",
      "logs": [
        {
          "address": "0xd371a1b9dcc0c6657fce940bcea759a8dcb005d9",
          "topics": [
            "0xb556fac599c3c70efb9ab1fa725ecace6c81cc48d1455f886607def065f3e0c0",
            "0x00000000000000000000000062b64cc9b1aa2f2c9d612f0b4a58cfba0eec9be2"
          ],
          "data": "0x0000000000000000000000000000000000000000000000ad78ebc5ac6200000000000000000000000000000000000000000000000000000000000000697caf59",
          "blockHash": "0x6dd1581aa2f9f1c20f662a6870c09fd35fa4a85aa86bb03092496b10c562a0a0",
          "blockNumber": "0xe330ce2",
          "blockTimestamp": "0x697caf59",
          "transactionHash": "0xc8e7da87534ab1faccf18f75d8c67415999d7bbf01eb581b07b1bc8baeac53f6",
          "transactionIndex": "0x1",
          "logIndex": "0x0",
          "removed": false
        }
      ],
      "logsBloom": "0x04000000000000000000000000000000000000000000000000000000000000000000000000000000400000000000000000000000000000000000000000001000000000000000000000000000000000000000000000000000000800000000000010000000000000000000000000000000000004000000000000000000000000000000000000000000000000000000000000000000000000000000000000000000000000000000000100000000000000000000000000000000000000000000000000000000000000000000000000000000000000000000400000000000000000080000000000000000000000000000000000000000000000000000000000000000",
      "type": "0x2",
      "transactionHash": "0xc8e7da87534ab1faccf18f75d8c67415999d7bbf01eb581b07b1bc8baeac53f6",
      "transactionIndex": "0x1",
      "blockHash": "0x6dd1581aa2f9f1c20f662a6870c09fd35fa4a85aa86bb03092496b10c562a0a0",
      "blockNumber": "0xe330ce2",
      "gasUsed": "0x14ea6",
      "effectiveGasPrice": "0x1314470",
      "from": "0x77d1bb07e6f487f47c8f481dff80de5c27821d09",
      "to": "0xd371a1b9dcc0c6657fce940bcea759a8dcb005d9",
      "contractAddress": null,
      "gasUsedForL1": "0x3c7a",
      "l1BlockNumber": "0x9af644",
      "timeboosted": false
    },
    {
      "status": "0x1",
      "cumulativeGasUsed": "0x14ea3",
      "logs": [
        {
          "address": "0xd371a1b9dcc0c6657fce940bcea759a8dcb005d9",
          "topics": [
            "0xb556fac599c3c70efb9ab1fa725ecace6c81cc48d1455f886607def065f3e0c0",
            "0x000000000000000000000000e160dc7bd1e9d63a47a1d4cd082c332dd19d870c"
          ],
          "data": "0x0000000000000000000000000000000000000000000000ad78ebc5ac6200000000000000000000000000000000000000000000000000000000000000697caf5f",
          "blockHash": "0x709dba6c63943394f1f5761da94b2e3fe6e23119dd12cb1f74fb17be19b43214",
          "blockNumber": "0xe330cf5",
          "blockTimestamp": "0x697caf5f",
          "transactionHash": "0x1bd6067c5d208a3e607b326df0de140008c2ab97b88f34192effbff58db3d424",
          "transactionIndex": "0x1",
          "logIndex": "0x0",
          "removed": false
        }
      ],
      "logsBloom": "0x00000000000000000000000000000000000000000000000000000000000000000000000000000000400000002000000000000000000000000000000000001000000000000000000000000000000000000000000000000000000800000000000010000000000000000000000000000000000004000000000000000000000000000000000000000000000000000000000000000000000000000000000000000000000000000000000100000000000000000000000000000000000000000000000000000000000000000000000000000000000000000000000000000000000000000000000000000020000000000000000008000000000000000000000000000000",
      "type": "0x2",
      "transactionHash": "0x1bd6067c5d208a3e607b326df0de140008c2ab97b88f34192effbff58db3d424",
      "transactionIndex": "0x1",
      "blockHash": "0x709dba6c63943394f1f5761da94b2e3fe6e23119dd12cb1f74fb17be19b43214",
      "blockNumber": "0xe330cf5",
      "gasUsed": "0x14ea3",
      "effectiveGasPrice": "0x1315410",
      "from": "0x77d1bb07e6f487f47c8f481dff80de5c27821d09",
      "to": "0xd371a1b9dcc0c6657fce940bcea759a8dcb005d9",
      "contractAddress": null,
      "gasUsedForL1": "0x3c77",
      "l1BlockNumber": "0x9af646",
      "timeboosted": false
    },
    {
      "status": "0x1",
      "cumulativeGasUsed": "0x1efa5",
      "logs": [
        {
          "address": "0xd371a1b9dcc0c6657fce940bcea759a8dcb005d9",
          "topics": [
            "0xb556fac599c3c70efb9ab1fa725ecace6c81cc48d1455f886607def065f3e0c0",
            "0x000000000000000000000000cc5f8fc3ccab02157f82afb7e19fc65f4808849e"
          ],
          "data": "0x0000000000000000000000000000000000000000000000000de0b6b3a764000000000000000000000000000000000000000000000000000000000000697caf65",
          "blockHash": "0x339ab8806fa8bc54032343abe1ca934d5f1c48ea7cdc02111eefa3968d2a7017",
          "blockNumber": "0xe330d07",
          "blockTimestamp": "0x697caf65",
          "transactionHash": "0x62f5a93ddb9b091b9e440cb4ce7f3323cb4eb7b5bcef9374d1a180f365fa95c8",
          "transactionIndex": "0x2",
          "logIndex": "0x0",
          "removed": false
        }
      ],
      "logsBloom": "0x00000000000000000000000000000000000000000000000400000000000000000000000000000000404000000000000000000000000000000000000000001000000000000000000000000000000000000000000000000000000800000000000010000000000000000000000000000000000004000000000000000000000000000000000000000000000000000000000000000000000000000000000000000000400000000000000100000000000000000000000000000000000000000000000000000000000000000000000000000000000000000000000000000000000000000000000000000000000000000000000000000000000000000000000000000000",
      "type": "0x2",
      "transactionHash": "0x62f5a93ddb9b091b9e440cb4ce7f3323cb4eb7b5bcef9374d1a180f365fa95c8",
      "transactionIndex": "0x2",
      "blockHash": "0x339ab8806fa8bc54032343abe1ca934d5f1c48ea7cdc02111eefa3968d2a7017",
      "blockNumber": "0xe330d07",
      "gasUsed": "0x14ea3",
      "effectiveGasPrice": "0x1315410",
      "from": "0x77d1bb07e6f487f47c8f481dff80de5c27821d09",
      "to": "0xd371a1b9dcc0c6657fce940bcea759a8dcb005d9",
      "contractAddress": null,
      "gasUsedForL1": "0x3c77",
      "l1BlockNumber": "0x9af646",
      "timeboosted": false
    },
    {
      "status": "0x1",
      "cumulativeGasUsed": "0x14eab",
      "logs": [
        {
          "address": "0xd371a1b9dcc0c6657fce940bcea759a8dcb005d9",
          "topics": [
            "0xb556fac599c3c70efb9ab1fa725ecace6c81cc48d1455f886607def065f3e0c0",
            "0x000000000000000000000000da222533d71c37a9370c6b5a26bcb4c07ecb0454"
          ],
          "data": "0x0000000000000000000000000000000000000000000000000de0b6b3a764000000000000000000000000000000000000000000000000000000000000697caf6f",
          "blockHash": "0x7401d94f09cab9f9ccb45a846eea82564291d2aaaa52e97688f029f509a2b33c",
          "blockNumber": "0xe330d2b",
          "blockTimestamp": "0x697caf6f",
          "transactionHash": "0x8aa197d9a1e7e847069135ad2991577e4133aa506690e0a20646211e2911a386",
          "transactionIndex": "0x1",
          "logIndex": "0x0",
          "removed": false
        }
      ],
      "logsBloom": "0x00000000000000000000000000000000000000000000000000000000000000000000000000000000400000000000000000000000000000000000000000001000000000000000000000000000000000000000000000000000000800000000000010000000000000000000000000000000000004000200000000000000000000000000000000000000000000000000000000000000000000000000000000000000000000000100000100000000000000000000000000000000000000000000000000000000000000000000000000000000000000000000000000000000000000000000000000000000000000000000000000000000040000000000000000000000",
      "type": "0x2",
      "transactionHash": "0x8aa197d9a1e7e847069135ad2991577e4133aa506690e0a20646211e2911a386",
      "transactionIndex": "0x1",
      "blockHash": "0x7401d94f09cab9f9ccb45a846eea82564291d2aaaa52e97688f029f509a2b33c",
      "blockNumber": "0xe330d2b",
      "gasUsed": "0x14eab",
      "effectiveGasPrice": "0x1312d00",
      "from": "0x77d1bb07e6f487f47c8f481dff80de5c27821d09",
      "to": "0xd371a1b9dcc0c6657fce940bcea759a8dcb005d9",
      "contractAddress": null,
      "gasUsedForL1": "0x3c7f",
      "l1BlockNumber": "0x9af647",
      "timeboosted": false
    },
    {
      "status": "0x1",
      "cumulativeGasUsed": "0xdc220",
      "logs": [
        {
          "address": "0xcc5f8fc3ccab02157f82afb7e19fc65f4808849e",
          "topics": [
            "0xddf252ad1be2c89b69c2b068fc378daa952ba7f163c4a11628f55a4df523b3ef",
            "0x0000000000000000000000000000000000000000000000000000000000000000",
            "0x00000000000000000000000077d1bb07e6f487f47c8f481dff80de5c27821d09"
          ],
          "data": "0x00000000000000000000000000000000000000000052b7d2dcc80cd2e4000000",
          "blockHash": "0xbcc7a39887b29458f89a142183bcd40daaf288cb387fdf5687cf2dce4acbb90d",
          "blockNumber": "0xe330d3f",
          "blockTimestamp": "0x697caf74",
          "transactionHash": "0xc160fdba87de0a982d7c2331a652f58c011de52d1f7c1a84ac1a84b595aec4f4",
          "transactionIndex": "0x3",
          "logIndex": "0xa",
          "removed": false
        }
      ],
      "logsBloom": "0x00000000000000000000000000000000000000000000000080000000000000000000000000000000000000000000000000000000000000000000000000000000000000800000000000000008000000000000000000000000000000000000000000000000020000000000000000000800000000000000000000000010000000000000000000000000000000000000000000000000000000000001000000000000000002000000000000000000000000000000000000000000000000000000000000000002000000000000000000000000000000400004000000000000000020000000000000000000000000000000000000000000000000000000000000000000",
      "type": "0x2",
      "transactionHash": "0xc160fdba87de0a982d7c2331a652f58c011de52d1f7c1a84ac1a84b595aec4f4",
      "transactionIndex": "0x3",
      "blockHash": "0xbcc7a39887b29458f89a142183bcd40daaf288cb387fdf5687cf2dce4acbb90d",
      "blockNumber": "0xe330d3f",
      "gasUsed": "0xc294",
      "effectiveGasPrice": "0x131c940",
      "from": "0x77d1bb07e6f487f47c8f481dff80de5c27821d09",
      "to": "0xcc5f8fc3ccab02157f82afb7e19fc65f4808849e",
      "contractAddress": null,
      "gasUsedForL1": "0x3c60",
      "l1BlockNumber": "0x9af647",
      "timeboosted": false
    },
    {
      "status": "0x1",
      "cumulativeGasUsed": "0xc2b3",
      "logs": [
        {
          "address": "0xda222533d71c37a9370c6b5a26bcb4c07ecb0454",
          "topics": [
            "0xddf252ad1be2c89b69c2b068fc378daa952ba7f163c4a11628f55a4df523b3ef",
            "0x0000000000000000000000000000000000000000000000000000000000000000",
            "0x00000000000000000000000077d1bb07e6f487f47c8f481dff80de5c27821d09"
          ],
          "data": "0x00000000000000000000000000000000000000000052b7d2dcc80cd2e4000000",
          "blockHash": "0xd418761a7e669d018507c0f631c71d77f6468dee30cf2b4deeaec68789f59afd",
          "blockNumber": "0xe330d4d",
          "blockTimestamp": "0x697caf78",
          "transactionHash": "0xe333c7f9003ed87a39f8ef3cf2548747e18647b5c5c6b2395a11f247e67ec9a5",
          "transactionIndex": "0x1",
          "logIndex": "0x0",
          "removed": false
        }
      ],
      "logsBloom": "0x00000000000000000000000000000600000000000000000080000000000000000000000010000000000000000000000000000000000000000000000000000000000000800000000000000008000000000000000000000000000000000000000000000000020000000000000000000800000000000000000000000010000000000000000000000000000000000000000000000000000000000000000000000000000002000000000000000000000000000000000000000000000000000000000000000002000000000000000000000000000000000000000000000000000020000000000000000000000000000000000000000000000000000000000000000000",
      "type": "0x2",
      "transactionHash": "0xe333c7f9003ed87a39f8ef3cf2548747e18647b5c5c6b2395a11f247e67ec9a5",
      "transactionIndex": "0x1",
      "blockHash": "0xd418761a7e669d018507c0f631c71d77f6468dee30cf2b4deeaec68789f59afd",
      "blockNumber": "0xe330d4d",
      "gasUsed": "0xc2b3",
      "effectiveGasPrice": "0x1312d00",
      "from": "0x77d1bb07e6f487f47c8f481dff80de5c27821d09",
      "to": "0xda222533d71c37a9370c6b5a26bcb4c07ecb0454",
      "contractAddress": null,
      "gasUsedForL1": "0x3c7f",
      "l1BlockNumber": "0x9af647",
      "timeboosted": false
    },
    {
      "status": "0x1",
      "cumulativeGasUsed": "0xb4b18",
      "logs": [
        {
          "address": "0x62b64cc9b1aa2f2c9d612f0b4a58cfba0eec9be2",
          "topics": [
            "0xddf252ad1be2c89b69c2b068fc378daa952ba7f163c4a11628f55a4df523b3ef",
            "0x0000000000000000000000000000000000000000000000000000000000000000",
            "0x00000000000000000000000077d1bb07e6f487f47c8f481dff80de5c27821d09"
          ],
          "data": "0x00000000000000000000000000000000000000000052b7d2dcc80cd2e4000000",
          "blockHash": "0xddd93a416966c7e5d0a1ca9f356ca537601fb631e67ae820df7945d1b7604093",
          "blockNumber": "0xe330d69",
          "blockTimestamp": "0x697caf7f",
          "transactionHash": "0xedf37a3499f5b785d53f24202602a9b33272f9eb25c5004d7e7ec62e24ad76d0",
          "transactionIndex": "0x2",
          "logIndex": "0x20",
          "removed": false
        }
      ],
      "logsBloom": "0x00000000000000000000000000000000000000000000000080000000000000000000000000000000000000000000000000000000000000000000000000000000000000800000000000000008000000000000000000000000000000000000040000000000020010000000000000000800000000000000000000000010000000000000000000000000000000000000000000000000000000000000000000000000000002000000000000000000080000000000000000000000000000000000000000000002000000000000000000000000000000000000000000000000000020000000000000000000000000000000000000000000000000000000000000000000",
      "type": "0x2",
      "transactionHash": "0xedf37a3499f5b785d53f24202602a9b33272f9eb25c5004d7e7ec62e24ad76d0",
      "transactionIndex": "0x2",
      "blockHash": "0xddd93a416966c7e5d0a1ca9f356ca537601fb631e67ae820df7945d1b7604093",
      "blockNumber": "0xe330d69",
      "gasUsed": "0xc2b3",
      "effectiveGasPrice": "0x1312d00",
      "from": "0x77d1bb07e6f487f47c8f481dff80de5c27821d09",
      "to": "0x62b64cc9b1aa2f2c9d612f0b4a58cfba0eec9be2",
      "contractAddress": null,
      "gasUsedForL1": "0x3c7f",
      "l1BlockNumber": "0x9af648",
      "timeboosted": false
    },
    {
      "status": "0x1",
      "cumulativeGasUsed": "0xc284",
      "logs": [
        {
          "address": "0xe160dc7bd1e9d63a47a1d4cd082c332dd19d870c",
          "topics": [
            "0xddf252ad1be2c89b69c2b068fc378daa952ba7f163c4a11628f55a4df523b3ef",
            "0x0000000000000000000000000000000000000000000000000000000000000000",
            "0x00000000000000000000000077d1bb07e6f487f47c8f481dff80de5c27821d09"
          ],
          "data": "0x00000000000000000000000000000000000000000052b7d2dcc80cd2e4000000",
          "blockHash": "0x446189b2eba90d3a259d699ac8041fec6fb984fb8d1411c3b04626d219fa2026",
          "blockNumber": "0xe330d86",
          "blockTimestamp": "0x697caf87",
          "transactionHash": "0x1c883b10d4504928cd4ee6607ffa2105d61bcb4c6aea8fa1e08338adf81178f8",
          "transactionIndex": "0x1",
          "logIndex": "0x0",
          "removed": false
        }
      ],
      "logsBloom": "0x00000000000000000000000000000000000400000000000080000000000000000000000000000000000800000000000000000000000000000000000000000000000000800000000000000008000000000000000000000000000000000000000000000000020000000000000000000800000000000000000000000010000000000000000000000000000000000000000000000000000000000000000000000000010002000000000000000000000000000000000000000000000000000000000000000002000000000000000000000000000000000000000000000000000020000000000000000000000000000000000000000000000000000000000000000000",
      "type": "0x2",
      "transactionHash": "0x1c883b10d4504928cd4ee6607ffa2105d61bcb4c6aea8fa1e08338adf81178f8",
      "transactionIndex": "0x1",
      "blockHash": "0x446189b2eba90d3a259d699ac8041fec6fb984fb8d1411c3b04626d219fa2026",
      "blockNumber": "0xe330d86",
      "gasUsed": "0xc284",
      "effectiveGasPrice": "0x131aa00",
      "from": "0x77d1bb07e6f487f47c8f481dff80de5c27821d09",
      "to": "0xe160dc7bd1e9d63a47a1d4cd082c332dd19d870c",
      "contractAddress": null,
      "gasUsedForL1": "0x3c66",
      "l1BlockNumber": "0x9af648",
      "timeboosted": false
    },
    {
      "status": "0x1",
      "cumulativeGasUsed": "0x192c2",
      "logs": [
        {
          "address": "0xcc5f8fc3ccab02157f82afb7e19fc65f4808849e",
          "topics": [
            "0x8c5be1e5ebec7d5bd14f71427d1e84f3dd0314c0f7b2291e5b200ac8c7c3b925",
            "0x00000000000000000000000077d1bb07e6f487f47c8f481dff80de5c27821d09",
            "0x000000000000000000000000fe8722f1eb898851b9d14f40084a57e3e27dd7a8"
          ],
          "data": "0x00000000000000000000000000000000000000000052b7d2dcc80cd2e4000000",
          "blockHash": "0x44a30831f1be234e9804c28b9290c06e35f6ea71ac32ec7954ef2a92090974d5",
          "blockNumber": "0xe330d93",
          "blockTimestamp": "0x697caf8a",
          "transactionHash": "0x4af664b8987c6310c097f0279df473fa0f7a79e350f782017099bcca181e5741",
          "transactionIndex": "0x2",
          "logIndex": "0x0",
          "removed": false
        }
      ],
      "logsBloom": "0x00000000000000000000000000000000000000000000000080000000000000000000000000000080000000000000000000000000000000000000000000200000000000800000000000000000000000000000000000000000000000000000000000000000000000000000000000000000000000000000000000200000000000000000000000000000000000000000000000000000000000000001000000000000020002000000000000000000000000000000000000000000000000000000000000000000000000000000000000000000000000400004000000000000000000000010000000000000002000000000000000000000000000000000000000000000",
      "type": "0x2",
      "transactionHash": "0x4af664b8987c6310c097f0279df473fa0f7a79e350f782017099bcca181e5741",
      "transactionIndex": "0x2",
      "blockHash": "0x44a30831f1be234e9804c28b9290c06e35f6ea71ac32ec7954ef2a92090974d5",
      "blockNumber": "0xe330d93",
      "gasUsed": "0xf1ba",
      "effectiveGasPrice": "0x1312d00",
      "from": "0x77d1bb07e6f487f47c8f481dff80de5c27821d09",
      "to": "0xcc5f8fc3ccab02157f82afb7e19fc65f4808849e",
      "contractAddress": null,
      "gasUsedForL1": "0x3c7f",
      "l1BlockNumber": "0x9af649",
      "timeboosted": false
    },
    {
      "status": "0x1",
      "cumulativeGasUsed": "0x17304",
      "logs": [
        {
          "address": "0xcc5f8fc3ccab02157f82afb7e19fc65f4808849e",
          "topics": [
            "0xddf252ad1be2c89b69c2b068fc378daa952ba7f163c4a11628f55a4df523b3ef",
            "0x00000000000000000000000077d1bb07e6f487f47c8f481dff80de5c27821d09",
            "0x000000000000000000000000fe8722f1eb898851b9d14f40084a57e3e27dd7a8"
          ],
          "data": "0x00000000000000000000000000000000000000000052b7d2dcc80cd2e4000000",
          "blockHash": "0xf09b622a0d0703223756b72c537b7636522537c405bc551b1c1776bff9b01416",
          "blockNumber": "0xe330da0",
          "blockTimestamp": "0x697caf8d",
          "transactionHash": "0x3a250ac55789f288f51b4c82aad9b9e9a3c7eee50c4a302b3764c8de37f87949",
          "transactionIndex": "0x1",
          "logIndex": "0x0",
          "removed": false
        },
        {
          "address": "0xfe8722f1eb898851b9d14f40084a57e3e27dd7a8",
          "topics": [
            "0xc17cea59c2955cb181b03393209566960365771dbba9dc3d510180e7cb312088",
            "0x000000000000000000000000cc5f8fc3ccab02157f82afb7e19fc65f4808849e"
          ],
          "data": "0x00000000000000000000000000000000000000000052b7d2dcc80cd2e4000000",
          "blockHash": "0xf09b622a0d0703223756b72c537b7636522537c405bc551b1c1776bff9b01416",
          "blockNumber": "0xe330da0",
          "blockTimestamp": "0x697caf8d",
          "transactionHash": "0x3a250ac55789f288f51b4c82aad9b9e9a3c7eee50c4a302b3764c8de37f87949",
          "transactionIndex": "0x1",
          "logIndex": "0x1",
          "removed": false
        }
      ],
      "logsBloom": "0x00000000000000000000000000000000000000000000000480000000000000000000000000002080004000000000000000000000000000000000000000000000000002800000000000000008000000000000000000000000000000000000000000000000000000000000000000000000000000000000000000200010000000000000000000000000000200000000000000000000000000000001000000000000400002000000000000004000000000000000000000000000000000000000000000000002000000000000000000000000000000400004000000000040000000000000000000000002002000000000000000000000000000000000000000000000",
      "type": "0x2",
      "transactionHash": "0x3a250ac55789f288f51b4c82aad9b9e9a3c7eee50c4a302b3764c8de37f87949",
      "transactionIndex": "0x1",
      "blockHash": "0xf09b622a0d0703223756b72c537b7636522537c405bc551b1c1776bff9b01416",
      "blockNumber": "0xe330da0",
      "gasUsed": "0x17304",
      "effectiveGasPrice": "0x1313ca0",
      "from": "0x77d1bb07e6f487f47c8f481dff80de5c27821d09",
      "to": "0xfe8722f1eb898851b9d14f40084a57e3e27dd7a8",
      "contractAddress": null,
      "gasUsedForL1": "0x3c7c",
      "l1BlockNumber": "0x9af649",
      "timeboosted": false
    },
    {
      "status": "0x1",
      "cumulativeGasUsed": "0x3a26d",
      "logs": [
        {
          "address": "0xda222533d71c37a9370c6b5a26bcb4c07ecb0454",
          "topics": [
            "0x8c5be1e5ebec7d5bd14f71427d1e84f3dd0314c0f7b2291e5b200ac8c7c3b925",
            "0x00000000000000000000000077d1bb07e6f487f47c8f481dff80de5c27821d09",
            "0x000000000000000000000000fe8722f1eb898851b9d14f40084a57e3e27dd7a8"
          ],
          "data": "0x00000000000000000000000000000000000000000052b7d2dcc80cd2e4000000",
          "blockHash": "0xc5857c4f5b8621412396f5171461ac41ad223cb4add9a10973ac54bd852c98a4",
          "blockNumber": "0xe330dad",
          "blockTimestamp": "0x697caf90",
          "transactionHash": "0xfd408dd8833e52d8533007ed23e64f5884cc9353aa3d5a8da9b9dc6812e1da94",
          "transactionIndex": "0x2",
          "logIndex": "0x3",
          "removed": false
        }
      ],
      "logsBloom": "0x00000000000000000000000000000600000000000000000080000000000000000000000010000080000000000000000000000000000000000000000000200000000000800000000000000000000000000000000000000000000000000000000000000000000000000000000000000000000000000000000000200000000000000000000000000000000000000000000000000000000000000000000000000000020002000000000000000000000000000000000000000000000000000000000000000000000000000000000000000000000000000000000000000000000000000010000000000000002000000000000000000000000000000000000000000000",
      "type": "0x2",
      "transactionHash": "0xfd408dd8833e52d8533007ed23e64f5884cc9353aa3d5a8da9b9dc6812e1da94",
      "transactionIndex": "0x2",
      "blockHash": "0xc5857c4f5b8621412396f5171461ac41ad223cb4add9a10973ac54bd852c98a4",
      "blockNumber": "0xe330dad",
      "gasUsed": "0xf1b7",
      "effectiveGasPrice": "0x1313ca0",
      "from": "0x77d1bb07e6f487f47c8f481dff80de5c27821d09",
      "to": "0xda222533d71c37a9370c6b5a26bcb4c07ecb0454",
      "contractAddress": null,
      "gasUsedForL1": "0x3c7c",
      "l1BlockNumber": "0x9af649",
      "timeboosted": false
    },
    {
      "status": "0x1",
      "cumulativeGasUsed": "0x401fd",
      "logs": [
        {
          "address": "0xda222533d71c37a9370c6b5a26bcb4c07ecb0454",
          "topics": [
            "0xddf252ad1be2c89b69c2b068fc378daa952ba7f163c4a11628f55a4df523b3ef",
            "0x00000000000000000000000077d1bb07e6f487f47c8f481dff80de5c27821d09",
            "0x000000000000000000000000fe8722f1eb898851b9d14f40084a57e3e27dd7a8"
          ],
          "data": "0x00000000000000000000000000000000000000000052b7d2dcc80cd2e4000000",
          "blockHash": "0x5591f2db3a30115399c3967c378769c0a5e85f90596b302ecc801d5636840394",
          "blockNumber": "0xe330db8",
          "blockTimestamp": "0x697caf94",
          "transactionHash": "0x8813c099a334fef762f788f9da27c67be5c49f8a3fc2143afbcf4710585f6238",
          "transactionIndex": "0x2",
          "logIndex": "0x3",
          "removed": false
        },
        {
          "address": "0xfe8722f1eb898851b9d14f40084a57e3e27dd7a8",
          "topics": [
            "0xc17cea59c2955cb181b03393209566960365771dbba9dc3d510180e7cb312088",
            "0x000000000000000000000000da222533d71c37a9370c6b5a26bcb4c07ecb0454"
          ],
          "data": "0x00000000000000000000000000000000000000000052b7d2dcc80cd2e4000000",
          "blockHash": "0x5591f2db3a30115399c3967c378769c0a5e85f90596b302ecc801d5636840394",
          "blockNumber": "0xe330db8",
          "blockTimestamp": "0x697caf94",
          "transactionHash": "0x8813c099a334fef762f788f9da27c67be5c49f8a3fc2143afbcf4710585f6238",
          "transactionIndex": "0x2",
          "logIndex": "0x4",
          "removed": false
        }
      ],
      "logsBloom": "0x00000000000000000000000000000600000000000000000080000000000000000000000010002080000000000000000000000000000000000000000000000000000002800000000000000008000000000000000000000000000000000000000000000000000000000000000000000000000000000200000000200010000000000000000000000000000200000000000000000000000000000000000000000000000002000100000000004000000000000000000000000000000000000000000000000002000000000000000000000000000000000000000000000040000000000000000000000002002000000000000000000000040000000000000000000000",
      "type": "0x2",
      "transactionHash": "0x8813c099a334fef762f788f9da27c67be5c49f8a3fc2143afbcf4710585f6238",
      "transactionIndex": "0x2",
      "blockHash": "0x5591f2db3a30115399c3967c378769c0a5e85f90596b302ecc801d5636840394",
      "blockNumber": "0xe330db8",
      "gasUsed": "0x17305",
      "effectiveGasPrice": "0x13134d0",
      "from": "0x77d1bb07e6f487f47c8f481dff80de5c27821d09",
      "to": "0xfe8722f1eb898851b9d14f40084a57e3e27dd7a8",
      "contractAddress": null,
      "gasUsedForL1": "0x3c7d",
      "l1BlockNumber": "0x9af649",
      "timeboosted": false
    },
    {
      "status": "0x1",
      "cumulativeGasUsed": "0xf1b7",
      "logs": [
        {
          "address": "0x62b64cc9b1aa2f2c9d612f0b4a58cfba0eec9be2",
          "topics": [
            "0x8c5be1e5ebec7d5bd14f71427d1e84f3dd0314c0f7b2291e5b200ac8c7c3b925",
            "0x00000000000000000000000077d1bb07e6f487f47c8f481dff80de5c27821d09",
            "0x000000000000000000000000fe8722f1eb898851b9d14f40084a57e3e27dd7a8"
          ],
          "data": "0x00000000000000000000000000000000000000000052b7d2dcc80cd2e4000000",
          "blockHash": "0x03b250cb4277af20a808388ae1340b6e80e8140e197c091466466133eb3d01ed",
          "blockNumber": "0xe330dcc",
          "blockTimestamp": "0x697caf99",
          "transactionHash": "0x5f7dc05fc05e864a3ba4c1abe7b2d17dba67e954a118802d81150ddf5289f46c",
          "transactionIndex": "0x1",
          "logIndex": "0x0",
          "removed": false
        }
      ],
      "logsBloom": "0x00000000000000000000000000000000000000000000000080000000000000000000000000000080000000000000000000000000000000000000000000200000000000800000000000000000000000000000000000000000000000000000040000000000000010000000000000000000000000000000000000200000000000000000000000000000000000000000000000000000000000000000000000000000020002000000000000000000080000000000000000000000000000000000000000000000000000000000000000000000000000000000000000000000000000000010000000000000002000000000000000000000000000000000000000000000",
      "type": "0x2",
      "transactionHash": "0x5f7dc05fc05e864a3ba4c1abe7b2d17dba67e954a118802d81150ddf5289f46c",
      "transactionIndex": "0x1",
      "blockHash": "0x03b250cb4277af20a808388ae1340b6e80e8140e197c091466466133eb3d01ed",
      "blockNumber": "0xe330dcc",
      "gasUsed": "0xf1b7",
      "effectiveGasPrice": "0x1313ca0",
      "from": "0x77d1bb07e6f487f47c8f481dff80de5c27821d09",
      "to": "0x62b64cc9b1aa2f2c9d612f0b4a58cfba0eec9be2",
      "contractAddress": null,
      "gasUsedForL1": "0x3c7c",
      "l1BlockNumber": "0x9af64b",
      "timeboosted": false
    },
    {
      "status": "0x1",
      "cumulativeGasUsed": "0x172ff",
      "logs": [
        {
          "address": "0x62b64cc9b1aa2f2c9d612f0b4a58cfba0eec9be2",
          "topics": [
            "0xddf252ad1be2c89b69c2b068fc378daa952ba7f163c4a11628f55a4df523b3ef",
            "0x00000000000000000000000077d1bb07e6f487f47c8f481dff80de5c27821d09",
            "0x000000000000000000000000fe8722f1eb898851b9d14f40084a57e3e27dd7a8"
          ],
          "data": "0x00000000000000000000000000000000000000000052b7d2dcc80cd2e4000000",
          "blockHash": "0xdcf3089bacf8e42b68c271cec7c1c062c09e7336babc904cb30cb0debdb90070",
          "blockNumber": "0xe330ddf",
          "blockTimestamp": "0x697caf9e",
          "transactionHash": "0x6524fcf8c4e0d233f05de3511fc2f8eafe2cf5f6a470c8c6e28caea61669bb7e",
          "transactionIndex": "0x1",
          "logIndex": "0x0",
          "removed": false
        },
        {
          "address": "0xfe8722f1eb898851b9d14f40084a57e3e27dd7a8",
          "topics": [
            "0xc17cea59c2955cb181b03393209566960365771dbba9dc3d510180e7cb312088",
            "0x00000000000000000000000062b64cc9b1aa2f2c9d612f0b4a58cfba0eec9be2"
          ],
          "data": "0x00000000000000000000000000000000000000000052b7d2dcc80cd2e4000000",
          "blockHash": "0xdcf3089bacf8e42b68c271cec7c1c062c09e7336babc904cb30cb0debdb90070",
          "blockNumber": "0xe330ddf",
          "blockTimestamp": "0x697caf9e",
          "transactionHash": "0x6524fcf8c4e0d233f05de3511fc2f8eafe2cf5f6a470c8c6e28caea61669bb7e",
          "transactionIndex": "0x1",
          "logIndex": "0x1",
          "removed": false
        }
      ],
      "logsBloom": "0x04000000000000000000000000000000000000000000000080000000000000000000000000002080000000000000000000000000000000000000000000000000000002800000000000000008000000000000000000000000000000000000040000000000000010000000000000000000000000000000000000200010000000000000000000000000000200000000000000000000000000000000000000000000000002000000000000004000080000000000000000000000000000000000000000000002000000000000000000000000000000000000400000000040000000080000000000000002002000000000000000000000000000000000000000000000",
      "type": "0x2",
      "transactionHash": "0x6524fcf8c4e0d233f05de3511fc2f8eafe2cf5f6a470c8c6e28caea61669bb7e",
      "transactionIndex": "0x1",
      "blockHash": "0xdcf3089bacf8e42b68c271cec7c1c062c09e7336babc904cb30cb0debdb90070",
      "blockNumber": "0xe330ddf",
      "gasUsed": "0x172ff",
      "effectiveGasPrice": "0x1315410",
      "from": "0x77d1bb07e6f487f47c8f481dff80de5c27821d09",
      "to": "0xfe8722f1eb898851b9d14f40084a57e3e27dd7a8",
      "contractAddress": null,
      "gasUsedForL1": "0x3c77",
      "l1BlockNumber": "0x9af64b",
      "timeboosted": false
    },
    {
      "status": "0x1",
      "cumulativeGasUsed": "0x24dd7",
      "logs": [
        {
          "address": "0xe160dc7bd1e9d63a47a1d4cd082c332dd19d870c",
          "topics": [
            "0x8c5be1e5ebec7d5bd14f71427d1e84f3dd0314c0f7b2291e5b200ac8c7c3b925",
            "0x00000000000000000000000077d1bb07e6f487f47c8f481dff80de5c27821d09",
            "0x000000000000000000000000fe8722f1eb898851b9d14f40084a57e3e27dd7a8"
          ],
          "data": "0x00000000000000000000000000000000000000000052b7d2dcc80cd2e4000000",
          "blockHash": "0x8c04be2a0a5c611acdbec1df09d7f0fed48a160fe300d95b8583fee548636128",
          "blockNumber": "0xe330df3",
          "blockTimestamp": "0x697cafa5",
          "transactionHash": "0x6943bcc65a0eb8aeabcf1d4716e80859ca172a33b54ae93931ede6c1a1252459",
          "transactionIndex": "0x2",
          "logIndex": "0x0",
          "removed": false
        }
      ],
      "logsBloom": "0x00000000000000000000000000000000000400000000000080000000000000000000000000000080000800000000000000000000000000000000000000200000000000800000000000000000000000000000000000000000000000000000000000000000000000000000000000000000000000000000000000200000000000000000000000000000000000000000000000000000000000000000000000000000030002000000000000000000000000000000000000000000000000000000000000000000000000000000000000000000000000000000000000000000000000000010000000000000002000000000000000000000000000000000000000000000",
      "type": "0x2",
      "transactionHash": "0x6943bcc65a0eb8aeabcf1d4716e80859ca172a33b54ae93931ede6c1a1252459",
      "transactionIndex": "0x2",
      "blockHash": "0x8c04be2a0a5c611acdbec1df09d7f0fed48a160fe300d95b8583fee548636128",
      "blockNumber": "0xe330df3",
      "gasUsed": "0xf1d1",
      "effectiveGasPrice": "0x1312d00",
      "from": "0x77d1bb07e6f487f47c8f481dff80de5c27821d09",
      "to": "0xe160dc7bd1e9d63a47a1d4cd082c332dd19d870c",
      "contractAddress": null,
      "gasUsedForL1": "0x3c7f",
      "l1BlockNumber": "0x9af64b",
      "timeboosted": false
    },
    {
      "status": "0x1",
      "cumulativeGasUsed": "0x172d3",
      "logs": [
        {
          "address": "0xe160dc7bd1e9d63a47a1d4cd082c332dd19d870c",
          "topics": [
            "0xddf252ad1be2c89b69c2b068fc378daa952ba7f163c4a11628f55a4df523b3ef",
            "0x00000000000000000000000077d1bb07e6f487f47c8f481dff80de5c27821d09",
            "0x000000000000000000000000fe8722f1eb898851b9d14f40084a57e3e27dd7a8"
          ],
          "data": "0x00000000000000000000000000000000000000000052b7d2dcc80cd2e4000000",
          "blockHash": "0xd5da3114db4677e0385b25b89fd2149e61d77d496f2531e9ae8c1ada470c63fe",
          "blockNumber": "0xe330dfa",
          "blockTimestamp": "0x697cafa7",
          "transactionHash": "0xd6918d5db2535ab898d3cbefb67e807dcc5d8a1eacc7b3823ca1edfad776d7fd",
          "transactionIndex": "0x1",
          "logIndex": "0x0",
          "removed": false
        },
        {
          "address": "0xfe8722f1eb898851b9d14f40084a57e3e27dd7a8",
          "topics": [
            "0xc17cea59c2955cb181b03393209566960365771dbba9dc3d510180e7cb312088",
            "0x000000000000000000000000e160dc7bd1e9d63a47a1d4cd082c332dd19d870c"
          ],
          "data": "0x00000000000000000000000000000000000000000052b7d2dcc80cd2e4000000",
          "blockHash": "0xd5da3114db4677e0385b25b89fd2149e61d77d496f2531e9ae8c1ada470c63fe",
          "blockNumber": "0xe330dfa",
          "blockTimestamp": "0x697cafa7",
          "transactionHash": "0xd6918d5db2535ab898d3cbefb67e807dcc5d8a1eacc7b3823ca1edfad776d7fd",
          "transactionIndex": "0x1",
          "logIndex": "0x1",
          "removed": false
        }
      ],
      "logsBloom": "0x00000000000000000000000000000000000400000000000080000000000000000000000000002080000800002000000000000000000000000000000000000000000002800000000000000008000000000000000000000000000000000000000000000000000000000000000000000000000000000000000000200010000000000000000000000000000200000000000000000000000000000000000000000000010002000000000000004000000000000000000000000000000000000000000000000002000000000000000000000000000000000000000000000040000000000000000000000022002000000000000008000000000000000000000000000000",
      "type": "0x2",
      "transactionHash": "0xd6918d5db2535ab898d3cbefb67e807dcc5d8a1eacc7b3823ca1edfad776d7fd",
      "transactionIndex": "0x1",
      "blockHash": "0xd5da3114db4677e0385b25b89fd2149e61d77d496f2531e9ae8c1ada470c63fe",
      "blockNumber": "0xe330dfa",
      "gasUsed": "0x172d3",
      "effectiveGasPrice": "0x1315410",
      "from": "0x77d1bb07e6f487f47c8f481dff80de5c27821d09",
      "to": "0xfe8722f1eb898851b9d14f40084a57e3e27dd7a8",
      "contractAddress": null,
      "gasUsedForL1": "0x3c77",
      "l1BlockNumber": "0x9af64b",
      "timeboosted": false
    }
  ],
  "libraries": [],
  "pending": [],
  "returns": {},
  "timestamp": 1769779112581,
  "chain": 421614,
  "commit": null
}