{
  "transactions": [
    {
      "hash": "0xd921e8b7f57d4b7f6f42bb1b96458e05e148015f3eaa613cdc5599e33272bfea",
      "transactionType": "CREATE",
      "contractName": "ShadowPool",
      "contractAddress": "0xffcdce40dfd214f2e13f67d9337b0e0e22024f09",
      "function": null,
      "arguments": [
        "300"
      ],
      "transaction": {
        "from": "0x77d1bb07e6f487f47c8f481dff80de5c27821d09",
        "gas": "0x35b3b2",
        "value": "0x0",
        "input": "0x608060405234801561001057600080fd5b506040516129f53803806129f583398101604081905261002f916100e3565b60017f9b779b17422d0df92223018b32b4d1fa46e071723d6817e2486d003becc55f0055338061007957604051631e4fbdf760e01b81526000600482015260240160405180910390fd5b61008281610093565b5060025542600355600180556100fc565b600080546001600160a01b038381166001600160a01b0319831681178455604051919092169283917f8be0079c531659141344cd1fd0a4f28419497f9722a3daafe3b4186f6b6457e09190a35050565b6000602082840312156100f557600080fd5b5051919050565b6128ea8061010b6000396000f3fe608060405234801561001057600080fd5b506004361061018e5760003560e01c80637489ec23116100de5780639c3f1e9011610097578063c706bd8211610071578063c706bd8214610407578063e013f9cf1461040f578063eda4ad9514610422578063f2fde38b1461044557600080fd5b80639c3f1e90146103b3578063b7afe9be146103de578063b8c876b1146103e757600080fd5b80637489ec231461034d578063797fa707146103605780637fdc0b2214610373578063856652e9146103865780638da5cb5b14610399578063975d063d146103aa57600080fd5b806344a5608b1161014b578063713fb31111610125578063713fb311146102ff578063715018a614610307578063724e78da1461030f578063741bef1a1461032257600080fd5b806344a5608b1461028557806356688700146102985780635778472a146102ab57600080fd5b8063024663f71461019357806306d47de9146102035780630724a643146102185780630a763da1146102395780630dd87d00146102425780634260677114610272575b600080fd5b6101a66101a13660046122aa565b610458565b604080516001600160a01b039a8b168152988a1660208a015296909816958701959095526060860193909352608085019190915260a084015260ff1660c083015260e0820152610100810191909152610120015b60405180910390f35b6102166102113660046122da565b6104f2565b005b61022b61022636600461234d565b610581565b6040519081526020016101fa565b61022b60015481565b6102556102503660046122aa565b61095a565b6040805193151584526020840192909252908201526060016101fa565b61022b6102803660046123d5565b610a9b565b61022b610293366004612412565b610b42565b6102166102a63660046122da565b610ed4565b6102be6102b93660046122aa565b610f59565b604080516001600160a01b03978816815295871660208701529390951692840192909252606083015260ff16608082015260a081019190915260c0016101fa565b610216610fcd565b610216611036565b61021661031d36600461248a565b611048565b600454610335906001600160a01b031681565b6040516001600160a01b0390911681526020016101fa565b61021661035b3660046122aa565b61109a565b61022b61036e3660046122aa565b6111d8565b61022b6103813660046124ac565b6111f9565b61022b6103943660046122da565b611496565b6000546001600160a01b0316610335565b61022b60025481565b6103c66103c13660046122aa565b6114c7565b6040516101fa9c9b9a99989796959493929190612526565b61022b60035481565b61022b6103f536600461248a565b60056020526000908152604090205481565b60075461022b565b61022b61041d3660046125e4565b6115c5565b6104356104303660046122aa565b6115e1565b60405190151581526020016101fa565b61021661045336600461248a565b611a5f565b6000818152600660208190526040822080546001820154600283015460038085015460058601549686015460098701548998899889988998899889988998899895976001600160a01b03958616979486169693909516949093929160ff909116908111156104c8576104c86124ee565b87600a015488600b0154995099509950995099509950995099509950509193959799909294969850565b6104fa611a9a565b6001600160a01b03821660009081526005602052604090205481111561053b5760405162461bcd60e51b815260040161053290612606565b60405180910390fd5b6001600160a01b0382166000908152600560205260408120805483929061056390849061264c565b9091555061057d90506001600160a01b0383163383611ac7565b5050565b600061058b611b01565b600084116105db5760405162461bcd60e51b815260206004820152601d60248201527f416d6f756e74206d7573742062652067726561746572207468616e20300000006044820152606401610532565b846001600160a01b0316866001600160a01b0316036106375760405162461bcd60e51b8152602060048201526018602482015277151bdad95b9cc81b5d5cdd08189948191a5999995c995b9d60421b6044820152606401610532565b600083116106925760405162461bcd60e51b815260206004820152602260248201527f4c696d6974207072696365206d7573742062652067726561746572207468616e604482015261020360f41b6064820152608401610532565b81158061069e57504282115b6106db5760405162461bcd60e51b815260206004820152600e60248201526d496e76616c69642065787069727960901b6044820152606401610532565b6106f06001600160a01b038716333087611b1d565b6007546040516bffffffffffffffffffffffff1933606090811b8216602084015289811b8216603484015288901b166048820152605c8101869052607c810185905242609c82015260bc81019190915260dc01604051602081830303815290604052805190602001209050604051806101800160405280336001600160a01b03168152602001876001600160a01b03168152602001866001600160a01b03168152602001858152602001600081526020018481526020018381526020018881526020018a8a8080601f0160208091040260200160405190810160405280939291908181526020018383808284376000920182905250938552505060209092019150815260018054602080840191909152426040938401526000858152600680835290849020855181546001600160a01b03199081166001600160a01b03928316178355938701519482018054851695821695909517909455938501516002850180549093169316929092179055606083015160038301556080830151600483015560a0830151600583015560c08301519082015560e0820151600782015561010082015160088201906108a39082612710565b5061012082015160098201805460ff191660018360038111156108c8576108c86124ee565b0217905550610140820151600a82015561016090910151600b909101556108ee81611b59565b600154604080516001600160a01b038916815260208101879052339184917f87dc8259d7614f7d74f7e7a21df432e428bd09bd782f7bf6d4121f1de038e5c9910160405180910390a461094e600160008051602061289583398151915255565b98975050505050505050565b60008181526006602052604081208054829182916001600160a01b0316158061099c57506000600982015460ff166003811115610999576109996124ee565b14155b806109a957506005810154155b156109bf57600080600093509350935050610a94565b600081600601541180156109d65750806006015442115b156109ed5760050154600093508392509050610a94565b6004546001600160a01b0316610a0f5760050154600093508392509050610a94565b6004805460018301546040516341976e0960e01b81526001600160a01b039182169381019390935216906341976e0990602401602060405180830381865afa158015610a5f573d6000803e3d6000fd5b505050506040513d601f19601f82011682018060405250810190610a8391906127d3565b925080600501549150818310159350505b9193909250565b6004546000906001600160a01b0316610ac65760405162461bcd60e51b8152600401610532906127ec565b60048054604051632550332960e11b81526001600160a01b0390911691634aa0665291610af99188918891889101612818565b602060405180830381865afa158015610b16573d6000803e3d6000fd5b505050506040513d601f19601f82011682018060405250810190610b3a91906127d3565b949350505050565b6000610b4c611b01565b60008211610b9c5760405162461bcd60e51b815260206004820152601d60248201527f416d6f756e74206d7573742062652067726561746572207468616e20300000006044820152606401610532565b826001600160a01b0316846001600160a01b031603610bf85760405162461bcd60e51b8152602060048201526018602482015277151bdad95b9cc81b5d5cdd08189948191a5999995c995b9d60421b6044820152606401610532565b6001600160a01b03841615801590610c1857506001600160a01b03831615155b610c5c5760405162461bcd60e51b8152602060048201526015602482015274496e76616c696420746f6b656e206164647265737360581b6044820152606401610532565b610c716001600160a01b038516333085611b1d565b6007546040516bffffffffffffffffffffffff1933606090811b8216602084015287811b8216603484015286901b166048820152605c810184905242607c820152609c81019190915260bc01604051602081830303815290604052805190602001209050604051806101800160405280336001600160a01b03168152602001856001600160a01b03168152602001846001600160a01b0316815260200183815260200160008152602001600081526020016000815260200186815260200188888080601f0160208091040260200160405190810160405280939291908181526020018383808284376000920182905250938552505060209092019150815260018054602080840191909152426040938401526000858152600680835290849020855181546001600160a01b03199081166001600160a01b03928316178355938701519482018054851695821695909517909455938501516002850180549093169316929092179055606083015160038301556080830151600483015560a0830151600583015560c08301519082015560e082015160078201556101008201516008820190610e1f9082612710565b5061012082015160098201805460ff19166001836003811115610e4457610e446124ee565b0217905550610140820151600a82015561016090910151600b90910155610e6a81611b59565b600154604080516001600160a01b038716815260208101859052339184917f87dc8259d7614f7d74f7e7a21df432e428bd09bd782f7bf6d4121f1de038e5c9910160405180910390a4610eca600160008051602061289583398151915255565b9695505050505050565b610ee96001600160a01b038316333084611b1d565b6001600160a01b03821660009081526005602052604081208054839290610f1190849061283c565b90915550506040518181526001600160a01b038316907fc17cea59c2955cb181b03393209566960365771dbba9dc3d510180e7cb312088906020015b60405180910390a25050565b600081815260066020526040812080546001820154600283015460038085015460098601548796879687968796879693956001600160a01b03938416959284169491909316929160ff1690811115610fb357610fb36124ee565b600a90950154939c929b5090995097509195509350915050565b600254600354610fdd919061283c565b42101561102c5760405162461bcd60e51b815260206004820152601a60248201527f426174636820696e74657276616c206e6f7420726561636865640000000000006044820152606401610532565b611034611bc6565b565b61103e611a9a565b61103460006120a5565b611050611a9a565b600480546001600160a01b0319166001600160a01b0383169081179091556040517fe5b20b8497e4f3e2435ef9c20e2e26b47497ee13745ce1c681ad6640653119e690600090a250565b6110a2611b01565b600081815260066020526040902080546001600160a01b031633146110fb5760405162461bcd60e51b815260206004820152600f60248201526e2737ba1037b93232b91037bbb732b960891b6044820152606401610532565b6000600982015460ff166003811115611116576111166124ee565b146111575760405162461bcd60e51b81526020600482015260116024820152704f72646572206e6f742070656e64696e6760781b6044820152606401610532565b60098101805460ff1916600217905560038101546001820154611187916001600160a01b03909116903390611ac7565b611190826120f5565b604051339083907fa6eb7cdc219e1518ced964e9a34e61d68a94e4f1569db3e84256ba981ba5275390600090a3506111d5600160008051602061289583398151915255565b50565b600781815481106111e857600080fd5b600091825260209091200154905081565b6000611203611b01565b6004546001600160a01b031661122b5760405162461bcd60e51b8152600401610532906127ec565b600083116112705760405162461bcd60e51b81526020600482015260126024820152710416d6f756e74206d757374206265203e20360741b6044820152606401610532565b836001600160a01b0316856001600160a01b0316036112be5760405162461bcd60e51b815260206004820152600a60248201526929b0b6b2903a37b5b2b760b11b6044820152606401610532565b60048054604051632550332960e11b81526001600160a01b0390911691634aa06652916112f19189918991899101612818565b602060405180830381865afa15801561130e573d6000803e3d6000fd5b505050506040513d601f19601f8201168201806040525081019061133291906127d3565b9050818110156113785760405162461bcd60e51b815260206004820152601160248201527014db1a5c1c1859d948195e18d959591959607a1b6044820152606401610532565b6001600160a01b0384166000908152600560205260409020548111156113b05760405162461bcd60e51b815260040161053290612606565b6113c56001600160a01b038616333086611b1d565b6001600160a01b038516600090815260056020526040812080548592906113ed90849061283c565b90915550506001600160a01b0384166000908152600560205260408120805483929061141a90849061264c565b9091555061143490506001600160a01b0385163383611ac7565b60408051848152602081018390526001600160a01b03808716929088169133917f6a8ab8112d9c10067c6a8c03c6f9191cefcc38ec7308c497c0af1e34d98ecce1910160405180910390a4610b3a600160008051602061289583398151915255565b600860205281600052604060002081815481106114b257600080fd5b90600052602060002001600091509150505481565b60066020819052600091825260409091208054600182015460028301546003840154600485015460058601549686015460078701546008880180546001600160a01b039889169a9789169996909816979496939593949293919261152a9061267b565b80601f01602080910402602001604051908101604052809291908181526020018280546115569061267b565b80156115a35780601f10611578576101008083540402835291602001916115a3565b820191906000526020600020905b81548152906001019060200180831161158657829003601f168201915b505050506009830154600a840154600b90940154929360ff909116929091508c565b600960205281600052604060002081815481106114b257600080fd5b60006115eb611b01565b600082815260066020526040902080546001600160a01b03166116475760405162461bcd60e51b815260206004820152601460248201527313dc99195c88191bd95cc81b9bdd08195e1a5cdd60621b6044820152606401610532565b6000600982015460ff166003811115611662576116626124ee565b146116a35760405162461bcd60e51b81526020600482015260116024820152704f72646572206e6f742070656e64696e6760781b6044820152606401610532565b60008160050154116116eb5760405162461bcd60e51b81526020600482015260116024820152702737ba1030903634b6b4ba1037b93232b960791b6044820152606401610532565b600081600601541180156117025750806006015442115b156117885760098101805460ff19166003908117909155815490820154600183015461173c926001600160a01b0391821692911690611ac7565b611745836120f5565b80546040516001600160a01b039091169084907ffb3d3c72741d97a417c79513cde55af3d64dc8844cc5b59f470935843eceff4c90600090a36000915050611a43565b6004546001600160a01b03166117b05760405162461bcd60e51b8152600401610532906127ec565b6004805460018301546040516341976e0960e01b81526001600160a01b03918216938101939093526000929116906341976e0990602401602060405180830381865afa158015611804573d6000803e3d6000fd5b505050506040513d601f19601f8201168201806040525081019061182891906127d3565b6005830154909150808210156118805760405162461bcd60e51b815260206004820152601760248201527f507269636520636f6e646974696f6e206e6f74206d65740000000000000000006044820152606401610532565b60048054600185015460028601546003870154604051632550332960e11b81526000956001600160a01b0395861695634aa06652956118c89590821694911692909101612818565b602060405180830381865afa1580156118e5573d6000803e3d6000fd5b505050506040513d601f19601f8201168201806040525081019061190991906127d3565b60028501546001600160a01b03166000908152600560205260409020549091508111156119485760405162461bcd60e51b815260040161053290612606565b600384015460018501546001600160a01b03166000908152600560205260408120805490919061197990849061283c565b909155505060028401546001600160a01b0316600090815260056020526040812080548392906119aa90849061264c565b9091555050835460028501546119cd916001600160a01b03918216911683611ac7565b60098401805460ff191660011790556119e5866120f5565b83546003850154604080519182526020820184905281018590526001600160a01b039091169087907fab680af2c5d7c119e43a1d580e8b838abf5fa1faf78d0e2eebfb455754cece1c9060600160405180910390a360019450505050505b611a5a600160008051602061289583398151915255565b919050565b611a67611a9a565b6001600160a01b038116611a9157604051631e4fbdf760e01b815260006004820152602401610532565b6111d5816120a5565b6000546001600160a01b031633146110345760405163118cdaa760e01b8152336004820152602401610532565b611ad483838360016121a2565b611afc57604051635274afe760e01b81526001600160a01b0384166004820152602401610532565b505050565b611b09612208565b600260008051602061289583398151915255565b611b2b848484846001612238565b611b5357604051635274afe760e01b81526001600160a01b0385166004820152602401610532565b50505050565b6007805460018181019092557fa66cc928b5edb82af9bd49922954155ab7b0942694bea4ce44661d9a8736c6880182905533600090815260086020908152604080832080548086018255908452828420018590558354835260098252822080549384018155825290200155565b600754600154604080518381524260208201527fd2260ec47af813776fab3c17cff29397f12f4011cf6e6c43a9cbaad867f6eaad910160405180910390a26000805b60075481101561204d57600060078281548110611c2757611c2761284f565b6000918252602080832090910154808352600690915260409091206005810154919250901580611c7057506000600982015460ff166003811115611c6d57611c6d6124ee565b14155b15611c895782611c7f81612865565b9350505050611c08565b60008160060154118015611ca05750806006015442115b15611d8b5760098101805460ff191660039081179091558154908201546001830154611cda926001600160a01b0391821692911690611ac7565b80546040516001600160a01b039091169083907ffb3d3c72741d97a417c79513cde55af3d64dc8844cc5b59f470935843eceff4c90600090a360078054611d239060019061264c565b81548110611d3357611d3361284f565b906000526020600020015460078481548110611d5157611d5161284f565b6000918252602090912001556007805480611d6e57611d6e61287e565b600190038181906000526020600020016000905590555050611c08565b6004546001600160a01b031615612043576004805460018301546040516341976e0960e01b81526001600160a01b03918216938101939093526000929116906341976e0990602401602060405180830381865afa158015611df0573d6000803e3d6000fd5b505050506040513d601f19601f82011682018060405250810190611e1491906127d3565b9050816005015481106120415760048054600184015460028501546003860154604051632550332960e11b81526000956001600160a01b0395861695634aa0665295611e699590821694911692909101612818565b602060405180830381865afa158015611e86573d6000803e3d6000fd5b505050506040513d601f19601f82011682018060405250810190611eaa91906127d3565b60028401546001600160a01b0316600090815260056020526040902054909150811161203f57600383015460018401546001600160a01b031660009081526005602052604081208054909190611f0190849061283c565b909155505060028301546001600160a01b031660009081526005602052604081208054839290611f3290849061264c565b909155505082546002840154611f55916001600160a01b03918216911683611ac7565b60098301805460ff1916600117905585611f6e81612865565b84546003860154604080519182526020820186905281018690529198506001600160a01b0316915085907fab680af2c5d7c119e43a1d580e8b838abf5fa1faf78d0e2eebfb455754cece1c9060600160405180910390a360078054611fd59060019061264c565b81548110611fe557611fe561284f565b9060005260206000200154600786815481106120035761200361284f565b60009182526020909120015560078054806120205761202061287e565b6001900381819060005260206000200160009055905550505050611c08565b505b505b82611c7f81612865565b50426003556001805490600061206283612865565b919050555060018054612075919061264c565b6040518281527f0a0af9013a8d9968e4532086fbc7137cf11ee8b8f9d57c8e5e89589b4167390890602001610f4d565b600080546001600160a01b038381166001600160a01b0319831681178455604051919092169283917f8be0079c531659141344cd1fd0a4f28419497f9722a3daafe3b4186f6b6457e09190a35050565b60075460005b81811015611afc5782600782815481106121175761211761284f565b90600052602060002001540361219a57600761213460018461264c565b815481106121445761214461284f565b9060005260206000200154600782815481106121625761216261284f565b600091825260209091200155600780548061217f5761217f61287e565b60019003818190600052602060002001600090559055505050565b6001016120fb565b60405163a9059cbb60e01b60008181526001600160a01b038616600452602485905291602083604481808b5af1925060016000511483166121fc5783831516156121ef573d6000823e3d81fd5b6000873b113d1516831692505b60405250949350505050565b6000805160206128958339815191525460020361103457604051633ee5aeb560e01b815260040160405180910390fd5b6040516323b872dd60e01b60008181526001600160a01b038781166004528616602452604485905291602083606481808c5af19250600160005114831661229857838315161561228b573d6000823e3d81fd5b6000883b113d1516831692505b60405250600060605295945050505050565b6000602082840312156122bc57600080fd5b5035919050565b80356001600160a01b0381168114611a5a57600080fd5b600080604083850312156122ed57600080fd5b6122f6836122c3565b946020939093013593505050565b60008083601f84011261231657600080fd5b50813567ffffffffffffffff81111561232e57600080fd5b60208301915083602082850101111561234657600080fd5b9250929050565b60008060008060008060008060e0898b03121561236957600080fd5b883567ffffffffffffffff81111561238057600080fd5b61238c8b828c01612304565b909950975050602089013595506123a560408a016122c3565b94506123b360608a016122c3565b979a96995094979396956080850135955060a08501359460c001359350915050565b6000806000606084860312156123ea57600080fd5b6123f3846122c3565b9250612401602085016122c3565b929592945050506040919091013590565b60008060008060008060a0878903121561242b57600080fd5b863567ffffffffffffffff81111561244257600080fd5b61244e89828a01612304565b90975095505060208701359350612467604088016122c3565b9250612475606088016122c3565b95989497509295919493608090920135925050565b60006020828403121561249c57600080fd5b6124a5826122c3565b9392505050565b600080600080608085870312156124c257600080fd5b6124cb856122c3565b93506124d9602086016122c3565b93969395505050506040820135916060013590565b634e487b7160e01b600052602160045260246000fd5b6004811061252257634e487b7160e01b600052602160045260246000fd5b9052565b6001600160a01b038d811682528c811660208301528b166040820152606081018a90526080810189905260a0810188905260c0810187905260e08101869052610180610100820181905285519082018181526000918290815b8181101561259b576020818b018101518583018201520161257f565b506000602082850101526020601f19601f83011684010191505080925050506125c8610120830186612504565b61014082019390935261016001529a9950505050505050505050565b600080604083850312156125f757600080fd5b50508035926020909101359150565b602080825260169082015275496e73756666696369656e74206c697175696469747960501b604082015260600190565b634e487b7160e01b600052601160045260246000fd5b8181038181111561265f5761265f612636565b92915050565b634e487b7160e01b600052604160045260246000fd5b600181811c9082168061268f57607f821691505b6020821081036126af57634e487b7160e01b600052602260045260246000fd5b50919050565b601f821115611afc5782821115611afc57806000526020600020601f840160051c60208510156126e3575060005b90810190601f840160051c0360005b81811015612708576000838201556001016126f2565b505050505050565b815167ffffffffffffffff81111561272a5761272a612665565b61273e81612738845461267b565b846126b5565b6020601f821160018114612772576000831561275a5750848201515b600019600385901b1c1916600184901b1784556127cc565b600084815260208120601f198516915b828110156127a25787850151825560209485019460019092019101612782565b50848210156127c05786840151600019600387901b60f8161c191681555b505060018360011b0184555b5050505050565b6000602082840312156127e557600080fd5b5051919050565b602080825260129082015271141c9a58d94819995959081b9bdd081cd95d60721b604082015260600190565b6001600160a01b039384168152919092166020820152604081019190915260600190565b8082018082111561265f5761265f612636565b634e487b7160e01b600052603260045260246000fd5b60006001820161287757612877612636565b5060010190565b634e487b7160e01b600052603160045260246000fdfe9b779b17422d0df92223018b32b4d1fa46e071723d6817e2486d003becc55f00a2646970667358221220425c6a414e2215b4e4c2bdda94a5cb8cb66f308d7f9d73a906f4dfa90c799f1064736f6c63430008210033000000000000000000000000000000000000000000000000000000000000012c",
        "nonce": "0x4b",
        "chainId": "0x66eee"
      },
      "additionalContracts": [],
      "isFixedGasLimit": false
    },
    {
      "hash": "0x6559dcf859cb57f090da5894bb6690c5ed582d2987182c1306ba410ba926bcd3",
      "transactionType": "CALL",
      "contractName": "ShadowPool",
      "contractAddress": "0xffcdce40dfd214f2e13f67d9337b0e0e22024f09",
      "function": "setPriceFeed(address)",
      "arguments": [
        "0xb87889a99AcCF70a2aeA7F63Fdcde302fCd2e006"
      ],
      "transaction": {
        "from": "0x77d1bb07e6f487f47c8f481dff80de5c27821d09",
        "to": "0xffcdce40dfd214f2e13f67d9337b0e0e22024f09",
        "gas": "0x94a9",
        "value": "0x0",
        "input": "0x724e78da000000000000000000000000b87889a99accf70a2aea7f63fdcde302fcd2e006",
        "nonce": "0x4c",
        "chainId": "0x66eee"
      },
      "additionalContracts": [],
      "isFixedGasLimit": false
    },
    {
      "hash": "0xfe5adc9489b7761103f61269df4a66bf8aebc5cc692d1c54f664b1817a887ab8",
      "transactionType": "CALL",
      "contractName": null,
      "contractAddress": "0xcc5f8fc3ccab02157f82afb7e19fc65f4808849e",
      "function": "mint(address,uint256)",
      "arguments": [
        "0x77D1BB07E6F487f47C8f481dFF80DE5c27821D09",
        "100000000000000000000000000"
      ],
      "transaction": {
        "from": "0x77d1bb07e6f487f47c8f481dff80de5c27821d09",
        "to": "0xcc5f8fc3ccab02157f82afb7e19fc65f4808849e",
        "gas": "0xddd3",
        "value": "0x0",
        "input": "0x40c10f1900000000000000000000000077d1bb07e6f487f47c8f481dff80de5c27821d0900000000000000000000000000000000000000000052b7d2dcc80cd2e4000000",
        "nonce": "0x4d",
        "chainId": "0x66eee"
      },
      "additionalContracts": [],
      "isFixedGasLimit": false
    },
    {
      "hash": "0x44ee8c5e99d03dba8afac87f3e2b5a09e0166b0af41a319a9d3ef2efc1ecc568",
      "transactionType": "CALL",
      "contractName": null,
      "contractAddress": "0xda222533d71c37a9370c6b5a26bcb4c07ecb0454",
      "function": "mint(address,uint256)",
      "arguments": [
        "0x77D1BB07E6F487f47C8f481dFF80DE5c27821D09",
        "100000000000000000000000000"
      ],
      "transaction": {
        "from": "0x77d1bb07e6f487f47c8f481dff80de5c27821d09",
        "to": "0xda222533d71c37a9370c6b5a26bcb4c07ecb0454",
        "gas": "0xddd3",
        "value": "0x0",
        "input": "0x40c10f1900000000000000000000000077d1bb07e6f487f47c8f481dff80de5c27821d0900000000000000000000000000000000000000000052b7d2dcc80cd2e4000000",
        "nonce": "0x4e",
        "chainId": "0x66eee"
      },
      "additionalContracts": [],
      "isFixedGasLimit": false
    },
    {
      "hash": "0xd64c745663367171a307dc68e1809dfcda0a760fc62d16888787b91fd0492ac3",
      "transactionType": "CALL",
      "contractName": null,
      "contractAddress": "0x62b64cc9b1aa2f2c9d612f0b4a58cfba0eec9be2",
      "function": "mint(address,uint256)",
      "arguments": [
        "0x77D1BB07E6F487f47C8f481dFF80DE5c27821D09",
        "100000000000000000000000000"
      ],
      "transaction": {
        "from": "0x77d1bb07e6f487f47c8f481dff80de5c27821d09",
        "to": "0x62b64cc9b1aa2f2c9d612f0b4a58cfba0eec9be2",
        "gas": "0xddd3",
        "value": "0x0",
        "input": "0x40c10f1900000000000000000000000077d1bb07e6f487f47c8f481dff80de5c27821d0900000000000000000000000000000000000000000052b7d2dcc80cd2e4000000",
        "nonce": "0x4f",
        "chainId": "0x66eee"
      },
      "additionalContracts": [],
      "isFixedGasLimit": false
    },
    {
      "hash": "0x8d45a902d450eddc02fd22210b89312c9241d0f6ed56cfec98a0fef9eee335ec",
      "transactionType": "CALL",
      "contractName": null,
      "contractAddress": "0xe160dc7bd1e9d63a47a1d4cd082c332dd19d870c",
      "function": "mint(address,uint256)",
      "arguments": [
        "0x77D1BB07E6F487f47C8f481dFF80DE5c27821D09",
        "100000000000000000000000000"
      ],
      "transaction": {
        "from": "0x77d1bb07e6f487f47c8f481dff80de5c27821d09",
        "to": "0xe160dc7bd1e9d63a47a1d4cd082c332dd19d870c",
        "gas": "0xddb7",
        "value": "0x0",
        "input": "0x40c10f1900000000000000000000000077d1bb07e6f487f47c8f481dff80de5c27821d0900000000000000000000000000000000000000000052b7d2dcc80cd2e4000000",
        "nonce": "0x50",
        "chainId": "0x66eee"
      },
      "additionalContracts": [],
      "isFixedGasLimit": false
    },
    {
      "hash": "0xd02937ed842e91ad400ff0fba415b47a7052c9183406cfd045ecd0f9dcb87563",
      "transactionType": "CALL",
      "contractName": null,
      "contractAddress": "0xcc5f8fc3ccab02157f82afb7e19fc65f4808849e",
      "function": "approve(address,uint256)",
      "arguments": [
        "0xfFCdCE40dfD214F2e13F67d9337B0E0e22024F09",
        "100000000000000000000000000"
      ],
      "transaction": {
        "from": "0x77d1bb07e6f487f47c8f481dff80de5c27821d09",
        "to": "0xcc5f8fc3ccab02157f82afb7e19fc65f4808849e",
        "gas": "0x11d20",
        "value": "0x0",
        "input": "0x095ea7b3000000000000000000000000ffcdce40dfd214f2e13f67d9337b0e0e22024f0900000000000000000000000000000000000000000052b7d2dcc80cd2e4000000",
        "nonce": "0x51",
        "chainId": "0x66eee"
      },
      "additionalContracts": [],
      "isFixedGasLimit": false
    },
    {
      "hash": "0x034770a93b99c4530d45241acb7cfdc75537b64fcae80e1c725b72cb98ff27a6",
      "transactionType": "CALL",
      "contractName": "ShadowPool",
      "contractAddress": "0xffcdce40dfd214f2e13f67d9337b0e0e22024f09",
      "function": "addLiquidity(address,uint256)",
      "arguments": [
        "0xcC5f8FC3CcAB02157F82afb7E19Fc65f4808849e",
        "100000000000000000000000000"
      ],
      "transaction": {
        "from": "0x77d1bb07e6f487f47c8f481dff80de5c27821d09",
        "to": "0xffcdce40dfd214f2e13f67d9337b0e0e22024f09",
        "gas": "0x9d24",
        "value": "0x0",
        "input": "0x56688700000000000000000000000000cc5f8fc3ccab02157f82afb7e19fc65f4808849e00000000000000000000000000000000000000000052b7d2dcc80cd2e4000000",
        "nonce": "0x52",
        "chainId": "0x66eee"
      },
      "additionalContracts": [],
      "isFixedGasLimit": false
    },
    {
      "hash": "0xb3bd85f2560f35c9dfeb831c8b11fffc1862d8c8cf86428fa20fbb22c8a191f3",
      "transactionType": "CALL",
      "contractName": null,
      "contractAddress": "0xda222533d71c37a9370c6b5a26bcb4c07ecb0454",
      "function": "approve(address,uint256)",
      "arguments": [
        "0xfFCdCE40dfD214F2e13F67d9337B0E0e22024F09",
        "100000000000000000000000000"
      ],
      "transaction": {
        "from": "0x77d1bb07e6f487f47c8f481dff80de5c27821d09",
        "to": "0xda222533d71c37a9370c6b5a26bcb4c07ecb0454",
        "gas": "0x11d20",
        "value": "0x0",
        "input": "0x095ea7b3000000000000000000000000ffcdce40dfd214f2e13f67d9337b0e0e22024f0900000000000000000000000000000000000000000052b7d2dcc80cd2e4000000",
        "nonce": "0x53",
        "chainId": "0x66eee"
      },
      "additionalContracts": [],
      "isFixedGasLimit": false
    },
    {
      "hash": "0x32c8a90b25584144bfff0a0e9e1cfef19fcc2501c02e3d9b9eeba4b9af038f79",
      "transactionType": "CALL",
      "contractName": "ShadowPool",
      "contractAddress": "0xffcdce40dfd214f2e13f67d9337b0e0e22024f09",
      "function": "addLiquidity(address,uint256)",
      "arguments": [
        "0xda222533d71C37A9370C6b5a26BcB4C07EcB0454",
        "100000000000000000000000000"
      ],
      "transaction": {
        "from": "0x77d1bb07e6f487f47c8f481dff80de5c27821d09",
        "to": "0xffcdce40dfd214f2e13f67d9337b0e0e22024f09",
        "gas": "0x9d24",
        "value": "0x0",
        "input": "0x56688700000000000000000000000000da222533d71c37a9370c6b5a26bcb4c07ecb045400000000000000000000000000000000000000000052b7d2dcc80cd2e4000000",
        "nonce": "0x54",
        "chainId": "0x66eee"
      },
      "additionalContracts": [],
      "isFixedGasLimit": false
    },
    {
      "hash": "0xf9b177c2c3de3524639de61c604cae8af11ec96b87152df49062e33721192194",
      "transactionType": "CALL",
      "contractName": null,
      "contractAddress": "0x62b64cc9b1aa2f2c9d612f0b4a58cfba0eec9be2",
      "function": "approve(address,uint256)",
      "arguments": [
        "0xfFCdCE40dfD214F2e13F67d9337B0E0e22024F09",
        "100000000000000000000000000"
      ],
      "transaction": {
        "from": "0x77d1bb07e6f487f47c8f481dff80de5c27821d09",
        "to": "0x62b64cc9b1aa2f2c9d612f0b4a58cfba0eec9be2",
        "gas": "0x11d20",
        "value": "0x0",
        "input": "0x095ea7b3000000000000000000000000ffcdce40dfd214f2e13f67d9337b0e0e22024f0900000000000000000000000000000000000000000052b7d2dcc80cd2e4000000",
        "nonce": "0x55",
        "chainId": "0x66eee"
      },
      "additionalContracts": [],
      "isFixedGasLimit": false
    },
    {
      "hash": "0x9e733e55266c4f4ef966bef1683fcc236abcdd20bb494797dc6f9769f1d69f18",
      "transactionType": "CALL",
      "contractName": "ShadowPool",
      "contractAddress": "0xffcdce40dfd214f2e13f67d9337b0e0e22024f09",
      "function": "addLiquidity(address,uint256)",
      "arguments": [
        "0x62b64cC9B1Aa2F2c9d612f0b4a58Cfba0eEc9bE2",
        "100000000000000000000000000"
      ],
      "transaction": {
        "from": "0x77d1bb07e6f487f47c8f481dff80de5c27821d09",
        "to": "0xffcdce40dfd214f2e13f67d9337b0e0e22024f09",
        "gas": "0x9d24",
        "value": "0x0",
        "input": "0x5668870000000000000000000000000062b64cc9b1aa2f2c9d612f0b4a58cfba0eec9be200000000000000000000000000000000000000000052b7d2dcc80cd2e4000000",
        "nonce": "0x56",
        "chainId": "0x66eee"
      },
      "additionalContracts": [],
      "isFixedGasLimit": false
    },
    {
      "hash": "0x83e3720a6112f90b778877b089f39019911e3c514d72cd2d1bad3ca2fd124a7c",
      "transactionType": "CALL",
      "contractName": null,
      "contractAddress": "0xe160dc7bd1e9d63a47a1d4cd082c332dd19d870c",
      "function": "approve(address,uint256)",
      "arguments": [
        "0xfFCdCE40dfD214F2e13F67d9337B0E0e22024F09",
        "100000000000000000000000000"
      ],
      "transaction": {
        "from": "0x77d1bb07e6f487f47c8f481dff80de5c27821d09",
        "to": "0xe160dc7bd1e9d63a47a1d4cd082c332dd19d870c",
        "gas": "0x11d3e",
        "value": "0x0",
        "input": "0x095ea7b3000000000000000000000000ffcdce40dfd214f2e13f67d9337b0e0e22024f0900000000000000000000000000000000000000000052b7d2dcc80cd2e4000000",
        "nonce": "0x57",
        "chainId": "0x66eee"
      },
      "additionalContracts": [],
      "isFixedGasLimit": false
    },
    {
      "hash": "0x5df9ba4c921e93341d13758de896bf01b222ce72e02d7bdcb739e7ea7ce1453f",
      "transactionType": "CALL",
      "contractName": "ShadowPool",
      "contractAddress": "0xffcdce40dfd214f2e13f67d9337b0e0e22024f09",
      "function": "addLiquidity(address,uint256)",
      "arguments": [
        "0xe160dc7BD1E9d63A47a1d4CD082c332DD19D870c",
        "100000000000000000000000000"
      ],
      "transaction": {
        "from": "0x77d1bb07e6f487f47c8f481dff80de5c27821d09",
        "to": "0xffcdce40dfd214f2e13f67d9337b0e0e22024f09",
        "gas": "0x9d24",
        "value": "0x0",
        "input": "0x56688700000000000000000000000000e160dc7bd1e9d63a47a1d4cd082c332dd19d870c00000000000000000000000000000000000000000052b7d2dcc80cd2e4000000",
        "nonce": "0x58",
        "chainId": "0x66eee"
      },
      "additionalContracts": [],
      "isFixedGasLimit": false
    }
  ],
  "receipts": [
    {
      "status": "0x1",
      "cumulativeGasUsed": "0x289038",
      "logs": [
        {
          "address": "0xffcdce40dfd214f2e13f67d9337b0e0e22024f09",
          "topics": [
            "0x8be0079c531659141344cd1fd0a4f28419497f9722a3daafe3b4186f6b6457e0",
            "0x0000000000000000000000000000000000000000000000000000000000000000",
            "0x00000000000000000000000077d1bb07e6f487f47c8f481dff80de5c27821d09"
          ],
          "data": "0x",
          "blockHash": "0x065f5854968404d95278fdb86690ef989523df6c72ab59d1927d935c47351a77",
          "blockNumber": "0xe3325d9",
          "blockTimestamp": "0x697cb704",
          "transactionHash": "0xd921e8b7f57d4b7f6f42bb1b96458e05e148015f3eaa613cdc5599e33272bfea",
          "transactionIndex": "0x1",
          "logIndex": "0x0",
          "removed": false
        }
      ],
      "logsBloom": "0x00000000000000000000000000000000000000000000000080800000000000000000000000000000000000000000000000000000000020000000000000000000000000800000000000000000000000000001000000000000000000000000000000000000020000000000000000000800000000000000000000000000000000400000000000000000000000000000000000000000000000000000000000000000000002000000000000000000000000000000000000000000000000000000200000000000000000000000000000000000000000000000000000000000000020000000000000000000002000000000000000000000000000000000000000000000",
      "type": "0x2",
      "transactionHash": "0xd921e8b7f57d4b7f6f42bb1b96458e05e148015f3eaa613cdc5599e33272bfea",
      "transactionIndex": "0x1",
      "blockHash": "0x065f5854968404d95278fdb86690ef989523df6c72ab59d1927d935c47351a77",
      "blockNumber": "0xe3325d9",
      "gasUsed": "0x289038",
      "effectiveGasPrice": "0x1312d00",
      "from": "0x77d1bb07e6f487f47c8f481dff80de5c27821d09",
      "to": null,
      "contractAddress": "0xffcdce40dfd214f2e13f67d9337b0e0e22024f09",
      "gasUsedForL1": "0x37434",
      "l1BlockNumber": "0x9af6e6",
      "timeboosted": false
    },
    {
      "status": "0x1",
      "cumulativeGasUsed": "0xcfd5",
      "logs": [
        {
          "address": "0xffcdce40dfd214f2e13f67d9337b0e0e22024f09",
          "topics": [
            "0xe5b20b8497e4f3e2435ef9c20e2e26b47497ee13745ce1c681ad6640653119e6",
            "0x000000000000000000000000b87889a99accf70a2aea7f63fdcde302fcd2e006"
          ],
          "data": "0x",
          "blockHash": "0x35ece67d8fd5ee496f2e1c9c31a6244c94ae0696fa1118cd57ecaf1016b3939a",
          "blockNumber": "0xe3325de",
          "blockTimestamp": "0x697cb706",
          "transactionHash": "0x6559dcf859cb57f090da5894bb6690c5ed582d2987182c1306ba410ba926bcd3",
          "transactionIndex": "0x1",
          "logIndex": "0x0",
          "removed": false
        }
      ],
      "logsBloom": "0x00000000000000000000000000000000000000000000000004000004000000000000000000000000000000000000000000000000000020000000000000000000000000000000000000000000000000000000000000000000000000000000000000000000000000000000000000000000000000100000000000000000000000000000000000000000000000000000000000000020000000000000000000000000000000000000000000000000000000000000000000000000000000000000200000000000000200000000020000000000000000000000000000000000000000000000000000000000002000000000000000000000000000000000000000000000",
      "type": "0x2",
      "transactionHash": "0x6559dcf859cb57f090da5894bb6690c5ed582d2987182c1306ba410ba926bcd3",
      "transactionIndex": "0x1",
      "blockHash": "0x35ece67d8fd5ee496f2e1c9c31a6244c94ae0696fa1118cd57ecaf1016b3939a",
      "blockNumber": "0xe3325de",
      "gasUsed": "0xcfd5",
      "effectiveGasPrice": "0x1315be0",
      "from": "0x77d1bb07e6f487f47c8f481dff80de5c27821d09",
      "to": "0xffcdce40dfd214f2e13f67d9337b0e0e22024f09",
      "contractAddress": null,
      "gasUsedForL1": "0x1716",
      "l1BlockNumber": "0x9af6e6",
      "timeboosted": false
    },
    {
      "status": "0x1",
      "cumulativeGasUsed": "0xa244",
      "logs": [
        {
          "address": "0xcc5f8fc3ccab02157f82afb7e19fc65f4808849e",
          "topics": [
            "0xddf252ad1be2c89b69c2b068fc378daa952ba7f163c4a11628f55a4df523b3ef",
            "0x0000000000000000000000000000000000000000000000000000000000000000",
            "0x00000000000000000000000077d1bb07e6f487f47c8f481dff80de5c27821d09"
          ],
          "data": "0x00000000000000000000000000000000000000000052b7d2dcc80cd2e4000000",
          "blockHash": "0xd1796d04d17770c06aab24c2fdd87e88dfb99577c596194ba79303f36d19b6ba",
          "blockNumber": "0xe3325eb",
          "blockTimestamp": "0x697cb709",
          "transactionHash": "0xfe5adc9489b7761103f61269df4a66bf8aebc5cc692d1c54f664b1817a887ab8",
          "transactionIndex": "0x1",
          "logIndex": "0x0",
          "removed": false
        }
      ],
      "logsBloom": "0x00000000000000000000000000000000000000000000000080000000000000000000000000000000000000000000000000000000000000000000000000000000000000800000000000000008000000000000000000000000000000000000000000000000020000000000000000000800000000000000000000000010000000000000000000000000000000000000000000000000000000000001000000000000000002000000000000000000000000000000000000000000000000000000000000000002000000000000000000000000000000400004000000000000000020000000000000000000000000000000000000000000000000000000000000000000",
      "type": "0x2",
      "transactionHash": "0xfe5adc9489b7761103f61269df4a66bf8aebc5cc692d1c54f664b1817a887ab8",
      "transactionIndex": "0x1",
      "blockHash": "0xd1796d04d17770c06aab24c2fdd87e88dfb99577c596194ba79303f36d19b6ba",
      "blockNumber": "0xe3325eb",
      "gasUsed": "0xa244",
      "effectiveGasPrice": "0x1312d00",
      "from": "0x77d1bb07e6f487f47c8f481dff80de5c27821d09",
      "to": "0xcc5f8fc3ccab02157f82afb7e19fc65f4808849e",
      "contractAddress": null,
      "gasUsedForL1": "0x1c10",
      "l1BlockNumber": "0x9af6e6",
      "timeboosted": false
    },
    {
      "status": "0x1",
      "cumulativeGasUsed": "0x2a718",
      "logs": [
        {
          "address": "0xda222533d71c37a9370c6b5a26bcb4c07ecb0454",
          "topics": [
            "0xddf252ad1be2c89b69c2b068fc378daa952ba7f163c4a11628f55a4df523b3ef",
            "0x0000000000000000000000000000000000000000000000000000000000000000",
            "0x00000000000000000000000077d1bb07e6f487f47c8f481dff80de5c27821d09"
          ],
          "data": "0x00000000000000000000000000000000000000000052b7d2dcc80cd2e4000000",
          "blockHash": "0x21ec6edebc868a2886164ad2cd72be82a2a9f9ec565bb53a42ebdae68df9ae6a",
          "blockNumber": "0xe3325f1",
          "blockTimestamp": "0x697cb70b",
          "transactionHash": "0x44ee8c5e99d03dba8afac87f3e2b5a09e0166b0af41a319a9d3ef2efc1ecc568",
          "transactionIndex": "0x2",
          "logIndex": "0x3",
          "removed": false
        }
      ],
      "logsBloom": "0x00000000000000000000000000000600000000000000000080000000000000000000000010000000000000000000000000000000000000000000000000000000000000800000000000000008000000000000000000000000000000000000000000000000020000000000000000000800000000000000000000000010000000000000000000000000000000000000000000000000000000000000000000000000000002000000000000000000000000000000000000000000000000000000000000000002000000000000000000000000000000000000000000000000000020000000000000000000000000000000000000000000000000000000000000000000",
      "type": "0x2",
      "transactionHash": "0x44ee8c5e99d03dba8afac87f3e2b5a09e0166b0af41a319a9d3ef2efc1ecc568",
      "transactionIndex": "0x2",
      "blockHash": "0x21ec6edebc868a2886164ad2cd72be82a2a9f9ec565bb53a42ebdae68df9ae6a",
      "blockNumber": "0xe3325f1",
      "gasUsed": "0xa243",
      "effectiveGasPrice": "0x13134d0",
      "from": "0x77d1bb07e6f487f47c8f481dff80de5c27821d09",
      "to": "0xda222533d71c37a9370c6b5a26bcb4c07ecb0454",
      "contractAddress": null,
      "gasUsedForL1": "0x1c0f",
      "l1BlockNumber": "0x9af6e8",
      "timeboosted": false
    },
    {
      "status": "0x1",
      "cumulativeGasUsed": "0xa243",
      "logs": [
        {
          "address": "0x62b64cc9b1aa2f2c9d612f0b4a58cfba0eec9be2",
          "topics": [
            "0xddf252ad1be2c89b69c2b068fc378daa952ba7f163c4a11628f55a4df523b3ef",
            "0x0000000000000000000000000000000000000000000000000000000000000000",
            "0x00000000000000000000000077d1bb07e6f487f47c8f481dff80de5c27821d09"
          ],
          "data": "0x00000000000000000000000000000000000000000052b7d2dcc80cd2e4000000",
          "blockHash": "0x3b14a9fe942f495fe9feef574c6a2edb91f7c1dc97d05010508f46f36827ccce",
          "blockNumber": "0xe3325f6",
          "blockTimestamp": "0x697cb70d",
          "transactionHash": "0xd64c745663367171a307dc68e1809dfcda0a760fc62d16888787b91fd0492ac3",
          "transactionIndex": "0x1",
          "logIndex": "0x0",
          "removed": false
        }
      ],
      "logsBloom": "0x00000000000000000000000000000000000000000000000080000000000000000000000000000000000000000000000000000000000000000000000000000000000000800000000000000008000000000000000000000000000000000000040000000000020010000000000000000800000000000000000000000010000000000000000000000000000000000000000000000000000000000000000000000000000002000000000000000000080000000000000000000000000000000000000000000002000000000000000000000000000000000000000000000000000020000000000000000000000000000000000000000000000000000000000000000000",
      "type": "0x2",
      "transactionHash": "0xd64c745663367171a307dc68e1809dfcda0a760fc62d16888787b91fd0492ac3",
      "transactionIndex": "0x1",
      "blockHash": "0x3b14a9fe942f495fe9feef574c6a2edb91f7c1dc97d05010508f46f36827ccce",
      "blockNumber": "0xe3325f6",
      "gasUsed": "0xa243",
      "effectiveGasPrice": "0x13134d0",
      "from": "0x77d1bb07e6f487f47c8f481dff80de5c27821d09",
      "to": "0x62b64cc9b1aa2f2c9d612f0b4a58cfba0eec9be2",
      "contractAddress": null,
      "gasUsedForL1": "0x1c0f",
      "l1BlockNumber": "0x9af6e8",
      "timeboosted": false
    },
    {
      "status": "0x1",
      "cumulativeGasUsed": "0xa22d",
      "logs": [
        {
          "address": "0xe160dc7bd1e9d63a47a1d4cd082c332dd19d870c",
          "topics": [
            "0xddf252ad1be2c89b69c2b068fc378daa952ba7f163c4a11628f55a4df523b3ef",
            "0x0000000000000000000000000000000000000000000000000000000000000000",
            "0x00000000000000000000000077d1bb07e6f487f47c8f481dff80de5c27821d09"
          ],
          "data": "0x00000000000000000000000000000000000000000052b7d2dcc80cd2e4000000",
          "blockHash": "0x9c8a5cc02e99a40f7a05cd25ed2682ee3edb541f97b2234e4c7a2c3fcfede850",
          "blockNumber": "0xe3325fc",
          "blockTimestamp": "0x697cb70e",
          "transactionHash": "0x8d45a902d450eddc02fd22210b89312c9241d0f6ed56cfec98a0fef9eee335ec",
          "transactionIndex": "0x1",
          "logIndex": "0x0",
          "removed": false
        }
      ],
      "logsBloom": "0x00000000000000000000000000000000000400000000000080000000000000000000000000000000000800000000000000000000000000000000000000000000000000800000000000000008000000000000000000000000000000000000000000000000020000000000000000000800000000000000000000000010000000000000000000000000000000000000000000000000000000000000000000000000010002000000000000000000000000000000000000000000000000000000000000000002000000000000000000000000000000000000000000000000000020000000000000000000000000000000000000000000000000000000000000000000",
      "type": "0x2",
      "transactionHash": "0x8d45a902d450eddc02fd22210b89312c9241d0f6ed56cfec98a0fef9eee335ec",
      "transactionIndex": "0x1",
      "blockHash": "0x9c8a5cc02e99a40f7a05cd25ed2682ee3edb541f97b2234e4c7a2c3fcfede850",
      "blockNumber": "0xe3325fc",
      "gasUsed": "0xa22d",
      "effectiveGasPrice": "0x13134d0",
      "from": "0x77d1bb07e6f487f47c8f481dff80de5c27821d09",
      "to": "0xe160dc7bd1e9d63a47a1d4cd082c332dd19d870c",
      "contractAddress": null,
      "gasUsedForL1": "0x1c0f",
      "l1BlockNumber": "0x9af6e8",
      "timeboosted": false
    },
    {
      "status": "0x1",
      "cumulativeGasUsed": "0xd172",
      "logs": [
        {
          "address": "0xcc5f8fc3ccab02157f82afb7e19fc65f4808849e",
          "topics": [
            "0x8c5be1e5ebec7d5bd14f71427d1e84f3dd0314c0f7b2291e5b200ac8c7c3b925",
            "0x00000000000000000000000077d1bb07e6f487f47c8f481dff80de5c27821d09",
            "0x000000000000000000000000ffcdce40dfd214f2e13f67d9337b0e0e22024f09"
          ],
          "data": "0x00000000000000000000000000000000000000000052b7d2dcc80cd2e4000000",
          "blockHash": "0xcf1d4d55b3194ba16a52a19359ffb9aae34f39617edfb1cc79366620cd289825",
          "blockNumber": "0xe332601",
          "blockTimestamp": "0x697cb710",
          "transactionHash": "0xd02937ed842e91ad400ff0fba415b47a7052c9183406cfd045ecd0f9dcb87563",
          "transactionIndex": "0x1",
          "logIndex": "0x0",
          "removed": false
        }
      ],
      "logsBloom": "0x00000000000000000000000000000000000000000000000080000000000000000000000000000100000000000000000000000000000000000000000000200000000000800000000000000000000000000000000000000000000000000000000000000000000000000000000000000000000000000000000000004000000000000000000000000000000000000000000000000000000000000001000000000000020006000000000000000000000000000000000000000000000000000000000000000000000000000000000000000000000000400004000000000000000000000010000000000000000000000000000000000000000000000000000000000000",
      "type": "0x2",
      "transactionHash": "0xd02937ed842e91ad400ff0fba415b47a7052c9183406cfd045ecd0f9dcb87563",
      "transactionIndex": "0x1",
      "blockHash": "0xcf1d4d55b3194ba16a52a19359ffb9aae34f39617edfb1cc79366620cd289825",
      "blockNumber": "0xe332601",
      "gasUsed": "0xd172",
      "effectiveGasPrice": "0x1312d00",
      "from": "0x77d1bb07e6f487f47c8f481dff80de5c27821d09",
      "to": "0xcc5f8fc3ccab02157f82afb7e19fc65f4808849e",
      "contractAddress": null,
      "gasUsedForL1": "0x1c37",
      "l1BlockNumber": "0x9af6e8",
      "timeboosted": false
    },
    {
      "status": "0x1",
      "cumulativeGasUsed": "0x152ed",
      "logs": [
        {
          "address": "0xcc5f8fc3ccab02157f82afb7e19fc65f4808849e",
          "topics": [
            "0xddf252ad1be2c89b69c2b068fc378daa952ba7f163c4a11628f55a4df523b3ef",
            "0x00000000000000000000000077d1bb07e6f487f47c8f481dff80de5c27821d09",
            "0x000000000000000000000000ffcdce40dfd214f2e13f67d9337b0e0e22024f09"
          ],
          "data": "0x00000000000000000000000000000000000000000052b7d2dcc80cd2e4000000",
          "blockHash": "0x9ff6604172de5c33eae942b1708a33478f003840370565ccb54a07c8533bb2b7",
          "blockNumber": "0xe332607",
          "blockTimestamp": "0x697cb712",
          "transactionHash": "0x034770a93b99c4530d45241acb7cfdc75537b64fcae80e1c725b72cb98ff27a6",
          "transactionIndex": "0x1",
          "logIndex": "0x0",
          "removed": false
        },
        {
          "address": "0xffcdce40dfd214f2e13f67d9337b0e0e22024f09",
          "topics": [
            "0xc17cea59c2955cb181b03393209566960365771dbba9dc3d510180e7cb312088",
            "0x000000000000000000000000cc5f8fc3ccab02157f82afb7e19fc65f4808849e"
          ],
          "data": "0x00000000000000000000000000000000000000000052b7d2dcc80cd2e4000000",
          "blockHash": "0x9ff6604172de5c33eae942b1708a33478f003840370565ccb54a07c8533bb2b7",
          "blockNumber": "0xe332607",
          "blockTimestamp": "0x697cb712",
          "transactionHash": "0x034770a93b99c4530d45241acb7cfdc75537b64fcae80e1c725b72cb98ff27a6",
          "transactionIndex": "0x1",
          "logIndex": "0x1",
          "removed": false
        }
      ],
      "logsBloom": "0x00000000000000000000000000000000000000000000000480000000000000000000000000002100004000000000000000000000000020000000000000000000000002800000000000000008000000000000000000000000000000000000000000000000000000000000000000000000000000000000000000004010000000000000000000000000000200000000000000000000000000000001000000000000400006000000000000000000000000000000000000000000000000000000200000000002000000000000000000000000000000400004000000000000000000000000000000000000002000000000000000000000000000000000000000000000",
      "type": "0x2",
      "transactionHash": "0x034770a93b99c4530d45241acb7cfdc75537b64fcae80e1c725b72cb98ff27a6",
      "transactionIndex": "0x1",
      "blockHash": "0x9ff6604172de5c33eae942b1708a33478f003840370565ccb54a07c8533bb2b7",
      "blockNumber": "0xe332607",
      "gasUsed": "0x152ed",
      "effectiveGasPrice": "0x1312d00",
      "from": "0x77d1bb07e6f487f47c8f481dff80de5c27821d09",
      "to": "0xffcdce40dfd214f2e13f67d9337b0e0e22024f09",
      "contractAddress": null,
      "gasUsedForL1": "0x1c37",
      "l1BlockNumber": "0x9af6e8",
      "timeboosted": false
    },
    {
      "status": "0x1",
      "cumulativeGasUsed": "0xd171",
      "logs": [
        {
          "address": "0xda222533d71c37a9370c6b5a26bcb4c07ecb0454",
          "topics": [
            "0x8c5be1e5ebec7d5bd14f71427d1e84f3dd0314c0f7b2291e5b200ac8c7c3b925",
            "0x00000000000000000000000077d1bb07e6f487f47c8f481dff80de5c27821d09",
            "0x000000000000000000000000ffcdce40dfd214f2e13f67d9337b0e0e22024f09"
          ],
          "data": "0x00000000000000000000000000000000000000000052b7d2dcc80cd2e4000000",
          "blockHash": "0xabc9747c9d1fe05600686599bf439cf090330015c727e338b8a000b63035f7a1",
          "blockNumber": "0xe33260c",
          "blockTimestamp": "0x697cb714",
          "transactionHash": "0xb3bd85f2560f35c9dfeb831c8b11fffc1862d8c8cf86428fa20fbb22c8a191f3",
          "transactionIndex": "0x1",
          "logIndex": "0x0",
          "removed": false
        }
      ],
      "logsBloom": "0x00000000000000000000000000000600000000000000000080000000000000000000000010000100000000000000000000000000000000000000000000200000000000800000000000000000000000000000000000000000000000000000000000000000000000000000000000000000000000000000000000004000000000000000000000000000000000000000000000000000000000000000000000000000020006000000000000000000000000000000000000000000000000000000000000000000000000000000000000000000000000000000000000000000000000000010000000000000000000000000000000000000000000000000000000000000",
      "type": "0x2",
      "transactionHash": "0xb3bd85f2560f35c9dfeb831c8b11fffc1862d8c8cf86428fa20fbb22c8a191f3",
      "transactionIndex": "0x1",
      "blockHash": "0xabc9747c9d1fe05600686599bf439cf090330015c727e338b8a000b63035f7a1",
      "blockNumber": "0xe33260c",
      "gasUsed": "0xd171",
      "effectiveGasPrice": "0x1313ca0",
      "from": "0x77d1bb07e6f487f47c8f481dff80de5c27821d09",
      "to": "0xda222533d71c37a9370c6b5a26bcb4c07ecb0454",
      "contractAddress": null,
      "gasUsedForL1": "0x1c36",
      "l1BlockNumber": "0x9af6e8",
      "timeboosted": false
    },
    {
      "status": "0x1",
      "cumulativeGasUsed": "0x152e6",
      "logs": [
        {
          "address": "0xda222533d71c37a9370c6b5a26bcb4c07ecb0454",
          "topics": [
            "0xddf252ad1be2c89b69c2b068fc378daa952ba7f163c4a11628f55a4df523b3ef",
            "0x00000000000000000000000077d1bb07e6f487f47c8f481dff80de5c27821d09",
            "0x000000000000000000000000ffcdce40dfd214f2e13f67d9337b0e0e22024f09"
          ],
          "data": "0x00000000000000000000000000000000000000000052b7d2dcc80cd2e4000000",
          "blockHash": "0x9ae087e8caae9cc3e58ce00d1be5da21b682b271f60ed409660d561866cf513e",
          "blockNumber": "0xe332612",
          "blockTimestamp": "0x697cb716",
          "transactionHash": "0x32c8a90b25584144bfff0a0e9e1cfef19fcc2501c02e3d9b9eeba4b9af038f79",
          "transactionIndex": "0x1",
          "logIndex": "0x0",
          "removed": false
        },
        {
          "address": "0xffcdce40dfd214f2e13f67d9337b0e0e22024f09",
          "topics": [
            "0xc17cea59c2955cb181b03393209566960365771dbba9dc3d510180e7cb312088",
            "0x000000000000000000000000da222533d71c37a9370c6b5a26bcb4c07ecb0454"
          ],
          "data": "0x00000000000000000000000000000000000000000052b7d2dcc80cd2e4000000",
          "blockHash": "0x9ae087e8caae9cc3e58ce00d1be5da21b682b271f60ed409660d561866cf513e",
          "blockNumber": "0xe332612",
          "blockTimestamp": "0x697cb716",
          "transactionHash": "0x32c8a90b25584144bfff0a0e9e1cfef19fcc2501c02e3d9b9eeba4b9af038f79",
          "transactionIndex": "0x1",
          "logIndex": "0x1",
          "removed": false
        }
      ],
      "logsBloom": "0x00000000000000000000000000000600000000000000000080000000000000000000000010002100000000000000000000000000000020000000000000000000000002800000000000000008000000000000000000000000000000000000000000000000000000000000000000000000000000000200000000004010000000000000000000000000000200000000000000000000000000000000000000000000000006000100000000000000000000000000000000000000000000000000200000000002000000000000000000000000000000000000000000000000000000000000000000000000002000000000000000000000040000000000000000000000",
      "type": "0x2",
      "transactionHash": "0x32c8a90b25584144bfff0a0e9e1cfef19fcc2501c02e3d9b9eeba4b9af038f79",
      "transactionIndex": "0x1",
      "blockHash": "0x9ae087e8caae9cc3e58ce00d1be5da21b682b271f60ed409660d561866cf513e",
      "blockNumber": "0xe332612",
      "gasUsed": "0x152e6",
      "effectiveGasPrice": "0x1317b20",
      "from": "0x77d1bb07e6f487f47c8f481dff80de5c27821d09",
      "to": "0xffcdce40dfd214f2e13f67d9337b0e0e22024f09",
      "contractAddress": null,
      "gasUsedForL1": "0x1c30",
      "l1BlockNumber": "0x9af6e8",
      "timeboosted": false
    },
    {
      "status": "0x1",
      "cumulativeGasUsed": "0xd171",
      "logs": [
        {
          "address": "0x62b64cc9b1aa2f2c9d612f0b4a58cfba0eec9be2",
          "topics": [
            "0x8c5be1e5ebec7d5bd14f71427d1e84f3dd0314c0f7b2291e5b200ac8c7c3b925",
            "0x00000000000000000000000077d1bb07e6f487f47c8f481dff80de5c27821d09",
            "0x000000000000000000000000ffcdce40dfd214f2e13f67d9337b0e0e22024f09"
          ],
          "data": "0x00000000000000000000000000000000000000000052b7d2dcc80cd2e4000000",
          "blockHash": "0xd1d09ea404c8e7e54eb9d5970911d6cae5e0f68cb599537e047e6a8d6ccb69e5",
          "blockNumber": "0xe332618",
          "blockTimestamp": "0x697cb717",
          "transactionHash": "0xf9b177c2c3de3524639de61c604cae8af11ec96b87152df49062e33721192194",
          "transactionIndex": "0x1",
          "logIndex": "0x0",
          "removed": false
        }
      ],
      "logsBloom": "0x00000000000000000000000000000000000000000000000080000000000000000000000000000100000000000000000000000000000000000000000000200000000000800000000000000000000000000000000000000000000000000000040000000000000010000000000000000000000000000000000000004000000000000000000000000000000000000000000000000000000000000000000000000000020006000000000000000000080000000000000000000000000000000000000000000000000000000000000000000000000000000000000000000000000000000010000000000000000000000000000000000000000000000000000000000000",
      "type": "0x2",
      "transactionHash": "0xf9b177c2c3de3524639de61c604cae8af11ec96b87152df49062e33721192194",
      "transactionIndex": "0x1",
      "blockHash": "0xd1d09ea404c8e7e54eb9d5970911d6cae5e0f68cb599537e047e6a8d6ccb69e5",
      "blockNumber": "0xe332618",
      "gasUsed": "0xd171",
      "effectiveGasPrice": "0x1313ca0",
      "from": "0x77d1bb07e6f487f47c8f481dff80de5c27821d09",
      "to": "0x62b64cc9b1aa2f2c9d612f0b4a58cfba0eec9be2",
      "contractAddress": null,
      "gasUsedForL1": "0x1c36",
      "l1BlockNumber": "0x9af6e8",
      "timeboosted": false
    },
    {
      "status": "0x1",
      "cumulativeGasUsed": "0x152ec",
      "logs": [
        {
          "address": "0x62b64cc9b1aa2f2c9d612f0b4a58cfba0eec9be2",
          "topics": [
            "0xddf252ad1be2c89b69c2b068fc378daa952ba7f163c4a11628f55a4df523b3ef",
            "0x00000000000000000000000077d1bb07e6f487f47c8f481dff80de5c27821d09",
            "0x000000000000000000000000ffcdce40dfd214f2e13f67d9337b0e0e22024f09"
          ],
          "data": "0x00000000000000000000000000000000000000000052b7d2dcc80cd2e4000000",
          "blockHash": "0x6602c006041fb9dc6858acddf9c502fa9a8a2c2f1d16a97ed85af60970adddc5",
          "blockNumber": "0xe332624",
          "blockTimestamp": "0x697cb71b",
          "transactionHash": "0x9e733e55266c4f4ef966bef1683fcc236abcdd20bb494797dc6f9769f1d69f18",
          "transactionIndex": "0x1",
          "logIndex": "0x0",
          "removed": false
        },
        {
          "address": "0xffcdce40dfd214f2e13f67d9337b0e0e22024f09",
          "topics": [
            "0xc17cea59c2955cb181b03393209566960365771dbba9dc3d510180e7cb312088",
            "0x00000000000000000000000062b64cc9b1aa2f2c9d612f0b4a58cfba0eec9be2"
          ],
          "data": "0x00000000000000000000000000000000000000000052b7d2dcc80cd2e4000000",
          "blockHash": "0x6602c006041fb9dc6858acddf9c502fa9a8a2c2f1d16a97ed85af60970adddc5",
          "blockNumber": "0xe332624",
          "blockTimestamp": "0x697cb71b",
          "transactionHash": "0x9e733e55266c4f4ef966bef1683fcc236abcdd20bb494797dc6f9769f1d69f18",
          "transactionIndex": "0x1",
          "logIndex": "0x1",
          "removed": false
        }
      ],
      "logsBloom": "0x04000000000000000000000000000000000000000000000080000000000000000000000000002100000000000000000000000000000020000000000000000000000002800000000000000008000000000000000000000000000000000000040000000000000010000000000000000000000000000000000000004010000000000000000000000000000200000000000000000000000000000000000000000000000006000000000000000000080000000000000000000000000000000000200000000002000000000000000000000000000000000000400000000000000000080000000000000000002000000000000000000000000000000000000000000000",
      "type": "0x2",
      "transactionHash": "0x9e733e55266c4f4ef966bef1683fcc236abcdd20bb494797dc6f9769f1d69f18",
      "transactionIndex": "0x1",
      "blockHash": "0x6602c006041fb9dc6858acddf9c502fa9a8a2c2f1d16a97ed85af60970adddc5",
      "blockNumber": "0xe332624",
      "gasUsed": "0x152ec",
      "effectiveGasPrice": "0x1313ca0",
      "from": "0x77d1bb07e6f487f47c8f481dff80de5c27821d09",
      "to": "0xffcdce40dfd214f2e13f67d9337b0e0e22024f09",
      "contractAddress": null,
      "gasUsedForL1": "0x1c36",
      "l1BlockNumber": "0x9af6e8",
      "timeboosted": false
    },
    {
      "status": "0x1",
      "cumulativeGasUsed": "0xd188",
      "logs": [
        {
          "address": "0xe160dc7bd1e9d63a47a1d4cd082c332dd19d870c",
          "topics": [
            "0x8c5be1e5ebec7d5bd14f71427d1e84f3dd0314c0f7b2291e5b200ac8c7c3b925",
            "0x00000000000000000000000077d1bb07e6f487f47c8f481dff80de5c27821d09",
            "0x000000000000000000000000ffcdce40dfd214f2e13f67d9337b0e0e22024f09"
          ],
          "data": "0x00000000000000000000000000000000000000000052b7d2dcc80cd2e4000000",
          "blockHash": "0x19e38e107ec63f6276c2b9f4e25860284800e66a77732b1a3041bb3081f68fe9",
          "blockNumber": "0xe33262e",
          "blockTimestamp": "0x697cb71e",
          "transactionHash": "0x83e3720a6112f90b778877b089f39019911e3c514d72cd2d1bad3ca2fd124a7c",
          "transactionIndex": "0x1",
          "logIndex": "0x0",
          "removed": false
        }
      ],
      "logsBloom": "0x00000000000000000000000000000000000400000000000080000000000000000000000000000100000800000000000000000000000000000000000000200000000000800000000000000000000000000000000000000000000000000000000000000000000000000000000000000000000000000000000000004000000000000000000000000000000000000000000000000000000000000000000000000000030006000000000000000000000000000000000000000000000000000000000000000000000000000000000000000000000000000000000000000000000000000010000000000000000000000000000000000000000000000000000000000000",
      "type": "0x2",
      "transactionHash": "0x83e3720a6112f90b778877b089f39019911e3c514d72cd2d1bad3ca2fd124a7c",
      "transactionIndex": "0x1",
      "blockHash": "0x19e38e107ec63f6276c2b9f4e25860284800e66a77732b1a3041bb3081f68fe9",
      "blockNumber": "0xe33262e",
      "gasUsed": "0xd188",
      "effectiveGasPrice": "0x13134d0",
      "from": "0x77d1bb07e6f487f47c8f481dff80de5c27821d09",
      "to": "0xe160dc7bd1e9d63a47a1d4cd082c332dd19d870c",
      "contractAddress": null,
      "gasUsedForL1": "0x1c36",
      "l1BlockNumber": "0x9af6e8",
      "timeboosted": false
    },
    {
      "status": "0x1",
      "cumulativeGasUsed": "0x2fce7",
      "logs": [
        {
          "address": "0xe160dc7bd1e9d63a47a1d4cd082c332dd19d870c",
          "topics": [
            "0xddf252ad1be2c89b69c2b068fc378daa952ba7f163c4a11628f55a4df523b3ef",
            "0x00000000000000000000000077d1bb07e6f487f47c8f481dff80de5c27821d09",
            "0x000000000000000000000000ffcdce40dfd214f2e13f67d9337b0e0e22024f09"
          ],
          "data": "0x00000000000000000000000000000000000000000052b7d2dcc80cd2e4000000",
          "blockHash": "0xa0305da58d3076bb790f10e32b1d886cbc43d0430788576ad3d4015f95164004",
          "blockNumber": "0xe332634",
          "blockTimestamp": "0x697cb720",
          "transactionHash": "0x5df9ba4c921e93341d13758de896bf01b222ce72e02d7bdcb739e7ea7ce1453f",
          "transactionIndex": "0x2",
          "logIndex": "0x1",
          "removed": false
        },
        {
          "address": "0xffcdce40dfd214f2e13f67d9337b0e0e22024f09",
          "topics": [
            "0xc17cea59c2955cb181b03393209566960365771dbba9dc3d510180e7cb312088",
            "0x000000000000000000000000e160dc7bd1e9d63a47a1d4cd082c332dd19d870c"
          ],
          "data": "0x00000000000000000000000000000000000000000052b7d2dcc80cd2e4000000",
          "blockHash": "0xa0305da58d3076bb790f10e32b1d886cbc43d0430788576ad3d4015f95164004",
          "blockNumber": "0xe332634",
          "blockTimestamp": "0x697cb720",
          "transactionHash": "0x5df9ba4c921e93341d13758de896bf01b222ce72e02d7bdcb739e7ea7ce1453f",
          "transactionIndex": "0x2",
          "logIndex": "0x2",
          "removed": false
        }
      ],
      "logsBloom": "0x00000000000000000000000000000000000400000000000080000000000000000000000000002100000800002000000000000000000020000000000000000000000002800000000000000008000000000000000000000000000000000000000000000000000000000000000000000000000000000000000000004010000000000000000000000000000200000000000000000000000000000000000000000000010006000000000000000000000000000000000000000000000000000000200000000002000000000000000000000000000000000000000000000000000000000000000000000020002000000000000008000000000000000000000000000000",
      "type": "0x2",
      "transactionHash": "0x5df9ba4c921e93341d13758de896bf01b222ce72e02d7bdcb739e7ea7ce1453f",
      "transactionIndex": "0x2",
      "blockHash": "0xa0305da58d3076bb790f10e32b1d886cbc43d0430788576ad3d4015f95164004",
      "blockNumber": "0xe332634",
      "gasUsed": "0x152b4",
      "effectiveGasPrice": "0x131b9a0",
      "from": "0x77d1bb07e6f487f47c8f481dff80de5c27821d09",
      "to": "0xffcdce40dfd214f2e13f67d9337b0e0e22024f09",
      "contractAddress": null,
      "gasUsedForL1": "0x1c2a",
      "l1BlockNumber": "0x9af6e8",
      "timeboosted": false
    }
  ],
  "libraries": [],
  "pending": [],
  "returns": {},
  "timestamp": 1769781024742,
  "chain": 421614,
  "commit": null
}