{
  "transactions": [
    {
      "hash": "0xf34a8d0862b7e9b7c7e1b7eda5c3b085ca0b460c8b3283e97ae95b60b31dbe97",
      "transactionType": "CREATE",
      "contractName": "MockPriceFeed",
      "contractAddress": "0xb87889a99accf70a2aea7f63fdcde302fcd2e006",
      "function": null,
      "arguments": null,
      "transaction": {
        "from": "0x77d1bb07e6f487f47c8f481dff80de5c27821d09",
        "gas": "0xe12e7",
        "value": "0x0",
        "input": "0x60806040526003805460ff19166001179055348015601c57600080fd5b503380604257604051631e4fbdf760e01b81526000600482015260240160405180910390fd5b604981604e565b50609e565b600080546001600160a01b038381166001600160a01b0319831681178455604051919092169283917f8be0079c531659141344cd1fd0a4f28419497f9722a3daafe3b4186f6b6457e09190a35050565b6108fb806100ad6000396000f3fe608060405234801561001057600080fd5b50600436106100b35760003560e01c80634aa06652116100715780634aa0665214610156578063715018a6146101695780638da5cb5b14610171578063baaa61be1461018c578063cfed246b1461019f578063f2fde38b146101bf57600080fd5b8062e4768b146100b85780630a6f93e6146100cd5780630e85caa41461010057806341976e09146101135780634352fa9f1461012657806346f5967814610139575b600080fd5b6100cb6100c63660046106a0565b6101d2565b005b6100ed6100db3660046106ca565b60026020526000908152604090205481565b6040519081526020015b60405180910390f35b6100cb61010e3660046106ec565b610292565b6100ed6101213660046106ca565b6102ad565b6100cb61013436600461075a565b6102e8565b6003546101469060ff1681565b60405190151581526020016100f7565b6100ed6101643660046107cb565b6104d3565b6100cb610543565b6000546040516001600160a01b0390911681526020016100f7565b6100ed61019a366004610808565b610557565b6100ed6101ad3660046106ca565b60016020526000908152604090205481565b6100cb6101cd3660046106ca565b6105ce565b60035460ff16806101ed57506000546001600160a01b031633145b61022f5760405162461bcd60e51b815260206004820152600e60248201526d139bdd08185d5d1a1bdc9a5e995960921b60448201526064015b60405180910390fd5b6001600160a01b0382166000818152600160209081526040808320859055600282529182902042908190558251858152918201527fb556fac599c3c70efb9ab1fa725ecace6c81cc48d1455f886607def065f3e0c0910160405180910390a25050565b61029a61060c565b6003805460ff1916911515919091179055565b6001600160a01b038116600090815260016020526040902054806102e35760405162461bcd60e51b81526004016102269061083b565b919050565b60035460ff168061030357506000546001600160a01b031633145b6103405760405162461bcd60e51b815260206004820152600e60248201526d139bdd08185d5d1a1bdc9a5e995960921b6044820152606401610226565b8281146103815760405162461bcd60e51b815260206004820152600f60248201526e098cadccee8d040dad2e6dac2e8c6d608b1b6044820152606401610226565b60005b838110156104cc5782828281811061039e5761039e610862565b90506020020135600160008787858181106103bb576103bb610862565b90506020020160208101906103d091906106ca565b6001600160a01b03166001600160a01b0316815260200190815260200160002081905550426002600087878581811061040b5761040b610862565b905060200201602081019061042091906106ca565b6001600160a01b0316815260208101919091526040016000205584848281811061044c5761044c610862565b905060200201602081019061046191906106ca565b6001600160a01b03167fb556fac599c3c70efb9ab1fa725ecace6c81cc48d1455f886607def065f3e0c084848481811061049d5761049d610862565b90506020020135426040516104bc929190918252602082015260400190565b60405180910390a2600101610384565b5050505050565b6001600160a01b0380841660009081526001602052604080822054928516825281205490919081158015906105085750600081115b6105245760405162461bcd60e51b81526004016102269061083b565b8061052f8386610878565b61053991906108a3565b9695505050505050565b61054b61060c565b6105556000610639565b565b6001600160a01b03808316600090815260016020526040808220549284168252812054909190811580159061058c5750600081115b6105a85760405162461bcd60e51b81526004016102269061083b565b806105bb83670de0b6b3a7640000610878565b6105c591906108a3565b95945050505050565b6105d661060c565b6001600160a01b03811661060057604051631e4fbdf760e01b815260006004820152602401610226565b61060981610639565b50565b6000546001600160a01b031633146105555760405163118cdaa760e01b8152336004820152602401610226565b600080546001600160a01b038381166001600160a01b0319831681178455604051919092169283917f8be0079c531659141344cd1fd0a4f28419497f9722a3daafe3b4186f6b6457e09190a35050565b80356001600160a01b03811681146102e357600080fd5b600080604083850312156106b357600080fd5b6106bc83610689565b946020939093013593505050565b6000602082840312156106dc57600080fd5b6106e582610689565b9392505050565b6000602082840312156106fe57600080fd5b813580151581146106e557600080fd5b60008083601f84011261072057600080fd5b50813567ffffffffffffffff81111561073857600080fd5b6020830191508360208260051b850101111561075357600080fd5b9250929050565b6000806000806040858703121561077057600080fd5b843567ffffffffffffffff81111561078757600080fd5b6107938782880161070e565b909550935050602085013567ffffffffffffffff8111156107b357600080fd5b6107bf8782880161070e565b95989497509550505050565b6000806000606084860312156107e057600080fd5b6107e984610689565b92506107f760208501610689565b929592945050506040919091013590565b6000806040838503121561081b57600080fd5b61082483610689565b915061083260208401610689565b90509250929050565b6020808252600d908201526c141c9a58d9481b9bdd081cd95d609a1b604082015260600190565b634e487b7160e01b600052603260045260246000fd5b808202811582820484141761089d57634e487b7160e01b600052601160045260246000fd5b92915050565b6000826108c057634e487b7160e01b600052601260045260246000fd5b50049056fea264697066735822122057f0f4069d950e47394cc5afd234a42255b70832d66b0b312320d1cbc8da62e164736f6c63430008210033",
        "nonce": "0x42",
        "chainId": "0x66eee"
      },
      "additionalContracts": [],
      "isFixedGasLimit": false
    },
    {
      "hash": "0x196525275321499bcff2aca676c4a02da8ff02d1f697c6a760a6de37d32fd117",
      "transactionType": "CALL",
      "contractName": "MockPriceFeed",
      "contractAddress": "0xb87889a99accf70a2aea7f63fdcde302fcd2e006",
      "function": "setPrice(address,uint256)",
      "arguments": [
        "0x62b64cC9B1Aa2F2c9d612f0b4a58Cfba0eEc9bE2",
        "2728000000000000000000"
      ],
      "transaction": {
        "from": "0x77d1bb07e6f487f47c8f481dff80de5c27821d09",
        "to": "0xb87889a99accf70a2aea7f63fdcde302fcd2e006",
        "gas": "0xb182",
        "value": "0x0",
        "input": "0x00e4768b00000000000000000000000062b64cc9b1aa2f2c9d612f0b4a58cfba0eec9be2000000000000000000000000000000000000000000000093e29aea6fc1a00000",
        "nonce": "0x43",
        "chainId": "0x66eee"
      },
      "additionalContracts": [],
      "isFixedGasLimit": false
    },
    {
      "hash": "0xbe641b3d907f9011be98064d7d253c620543a068544c25b0cf33c545529bf802",
      "transactionType": "CALL",
      "contractName": "MockPriceFeed",
      "contractAddress": "0xb87889a99accf70a2aea7f63fdcde302fcd2e006",
      "function": "setPrice(address,uint256)",
      "arguments": [
        "0xe160dc7BD1E9d63A47a1d4CD082c332DD19D870c",
        "2728000000000000000000"
      ],
      "transaction": {
        "from": "0x77d1bb07e6f487f47c8f481dff80de5c27821d09",
        "to": "0xb87889a99accf70a2aea7f63fdcde302fcd2e006",
        "gas": "0xb182",
        "value": "0x0",
        "input": "0x00e4768b000000000000000000000000e160dc7bd1e9d63a47a1d4cd082c332dd19d870c000000000000000000000000000000000000000000000093e29aea6fc1a00000",
        "nonce": "0x44",
        "chainId": "0x66eee"
      },
      "additionalContracts": [],
      "isFixedGasLimit": false
    },
    {
      "hash": "0x143197a9107c6ea48092e4cd1fb13ced791ee940375cb8a5e41826f42c40e30a",
      "transactionType": "CALL",
      "contractName": "MockPriceFeed",
      "contractAddress": "0xb87889a99accf70a2aea7f63fdcde302fcd2e006",
      "function": "setPrice(address,uint256)",
      "arguments": [
        "0xcC5f8FC3CcAB02157F82afb7E19Fc65f4808849e",
        "1000000000000000000"
      ],
      "transaction": {
        "from": "0x77d1bb07e6f487f47c8f481dff80de5c27821d09",
        "to": "0xb87889a99accf70a2aea7f63fdcde302fcd2e006",
        "gas": "0xb173",
        "value": "0x0",
        "input": "0x00e4768b000000000000000000000000cc5f8fc3ccab02157f82afb7e19fc65f4808849e0000000000000000000000000000000000000000000000000de0b6b3a7640000",
        "nonce": "0x45",
        "chainId": "0x66eee"
      },
      "additionalContracts": [],
      "isFixedGasLimit": false
    },
    {
      "hash": "0x09c7492f42cf4dda779c9e1a21c200ed8197dcbf00a76c433a9f49a145bf9223",
      "transactionType": "CALL",
      "contractName": "MockPriceFeed",
      "contractAddress": "0xb87889a99accf70a2aea7f63fdcde302fcd2e006",
      "function": "setPrice(address,uint256)",
      "arguments": [
        "0xda222533d71C37A9370C6b5a26BcB4C07EcB0454",
        "1000000000000000000"
      ],
      "transaction": {
        "from": "0x77d1bb07e6f487f47c8f481dff80de5c27821d09",
        "to": "0xb87889a99accf70a2aea7f63fdcde302fcd2e006",
        "gas": "0xb173",
        "value": "0x0",
        "input": "0x00e4768b000000000000000000000000da222533d71c37a9370c6b5a26bcb4c07ecb04540000000000000000000000000000000000000000000000000de0b6b3a7640000",
        "nonce": "0x46",
        "chainId": "0x66eee"
      },
      "additionalContracts": [],
      "isFixedGasLimit": false
    },
    {
      "hash": "0xd8bc20fc4739439af55d8ff318d5f916c56771fbb37ac8057a0bbfb2540f7137",
      "transactionType": "CALL",
      "contractName": null,
      "contractAddress": "0xfe8722f1eb898851b9d14f40084a57e3e27dd7a8",
      "function": "setPriceFeed(address)",
      "arguments": [
        "0xb87889a99AcCF70a2aeA7F63Fdcde302fCd2e006"
      ],
      "transaction": {
        "from": "0x77d1bb07e6f487f47c8f481dff80de5c27821d09",
        "to": "0xfe8722f1eb898851b9d14f40084a57e3e27dd7a8",
        "gas": "0xd279",
        "value": "0x0",
        "input": "0x724e78da000000000000000000000000b87889a99accf70a2aea7f63fdcde302fcd2e006",
        "nonce": "0x47",
        "chainId": "0x66eee"
      },
      "additionalContracts": [],
      "isFixedGasLimit": false
    }
  ],
  "receipts": [
    {
      "status": "0x1",
      "cumulativeGasUsed": "0xa8bf8",
      "logs": [
        {
          "address": "0xb87889a99accf70a2aea7f63fdcde302fcd2e006",
          "topics": [
            "0x8be0079c531659141344cd1fd0a4f28419497f9722a3daafe3b4186f6b6457e0",
            "0x0000000000000000000000000000000000000000000000000000000000000000",
            "0x00000000000000000000000077d1bb07e6f487f47c8f481dff80de5c27821d09"
          ],
          "data": "0x",
          "blockHash": "0xffec3acd45c8e5ab024e6fc6164a0b0ee3b26a8d94525c680f290b30f8e2c3b9",
          "blockNumber": "0xe331da0",
          "blockTimestamp": "0x697cb472",
          "transactionHash": "0xf34a8d0862b7e9b7c7e1b7eda5c3b085ca0b460c8b3283e97ae95b60b31dbe97",
          "transactionIndex": "0x1",
          "logIndex": "0x0",
          "removed": false
        }
      ],
      "logsBloom": "0x00000000000000000000000000000000000000000000000080800000000000000000000000000000000000000000000000000000000000000000000000000000000000800000000000000000000000000001000000000000000000000000000000000000020000000000000000000800000000000000000000000000000000400000000000000000040000000000000000000000000000000000000000000000000002000000000000000000000000000000000000000000000000000000000000000080000000000000000000000000000000000000000000000000000020000000000002000000000000000000000000000000000000000000000000000000",
      "type": "0x2",
      "transactionHash": "0xf34a8d0862b7e9b7c7e1b7eda5c3b085ca0b460c8b3283e97ae95b60b31dbe97",
      "transactionIndex": "0x1",
      "blockHash": "0xffec3acd45c8e5ab024e6fc6164a0b0ee3b26a8d94525c680f290b30f8e2c3b9",
      "blockNumber": "0xe331da0",
      "gasUsed": "0xa8bf8",
      "effectiveGasPrice": "0x1315410",
      "from": "0x77d1bb07e6f487f47c8f481dff80de5c27821d09",
      "to": null,
      "contractAddress": "0xb87889a99accf70a2aea7f63fdcde302fcd2e006",
      "gasUsedForL1": "0x16c8c",
      "l1BlockNumber": "0x9af6af",
      "timeboosted": false
    },
    {
      "status": "0x1",
      "cumulativeGasUsed": "0x13b00",
      "logs": [
        {
          "address": "0xb87889a99accf70a2aea7f63fdcde302fcd2e006",
          "topics": [
            "0xb556fac599c3c70efb9ab1fa725ecace6c81cc48d1455f886607def065f3e0c0",
            "0x00000000000000000000000062b64cc9b1aa2f2c9d612f0b4a58cfba0eec9be2"
          ],
          "data": "0x000000000000000000000000000000000000000000000093e29aea6fc1a0000000000000000000000000000000000000000000000000000000000000697cb474",
          "blockHash": "0x3af45e390d0fcf3cee842f1a29fea6baaec778568586dfc74d82c00974937c3d",
          "blockNumber": "0xe331da6",
          "blockTimestamp": "0x697cb474",
          "transactionHash": "0x196525275321499bcff2aca676c4a02da8ff02d1f697c6a760a6de37d32fd117",
          "transactionIndex": "0x1",
          "logIndex": "0x0",
          "removed": false
        }
      ],
      "logsBloom": "0x04000000000000000000000000000000000000000000000000000000000000000000000000000000400000000000000000000000000000000000000000000000000000000000000000000000000000000000000000000000000000000000000000000000000000000000000000000000000004000000000000000000000000000000000000000000040000000000000000000000000000000000000000000000000000000000000100000000000000000000000000000000000000000000000000000080000000000000000000000000000000000000400000000000000000080000000002000000000000000000000000000000000000000000000000000000",
      "type": "0x2",
      "transactionHash": "0x196525275321499bcff2aca676c4a02da8ff02d1f697c6a760a6de37d32fd117",
      "transactionIndex": "0x1",
      "blockHash": "0x3af45e390d0fcf3cee842f1a29fea6baaec778568586dfc74d82c00974937c3d",
      "blockNumber": "0xe331da6",
      "gasUsed": "0x13b00",
      "effectiveGasPrice": "0x1312d00",
      "from": "0x77d1bb07e6f487f47c8f481dff80de5c27821d09",
      "to": "0xb87889a99accf70a2aea7f63fdcde302fcd2e006",
      "contractAddress": null,
      "gasUsedForL1": "0x28e0",
      "l1BlockNumber": "0x9af6af",
      "timeboosted": false
    },
    {
      "status": "0x1",
      "cumulativeGasUsed": "0x13afc",
      "logs": [
        {
          "address": "0xb87889a99accf70a2aea7f63fdcde302fcd2e006",
          "topics": [
            "0xb556fac599c3c70efb9ab1fa725ecace6c81cc48d1455f886607def065f3e0c0",
            "0x000000000000000000000000e160dc7bd1e9d63a47a1d4cd082c332dd19d870c"
          ],
          "data": "0x000000000000000000000000000000000000000000000093e29aea6fc1a0000000000000000000000000000000000000000000000000000000000000697cb475",
          "blockHash": "0x392ede6fb9f19d4565f5c9c48819f62069fe60c67882418dd1c2f91719ff1d16",
          "blockNumber": "0xe331da8",
          "blockTimestamp": "0x697cb475",
          "transactionHash": "0xbe641b3d907f9011be98064d7d253c620543a068544c25b0cf33c545529bf802",
          "transactionIndex": "0x1",
          "logIndex": "0x0",
          "removed": false
        }
      ],
      "logsBloom": "0x00000000000000000000000000000000000000000000000000000000000000000000000000000000400000002000000000000000000000000000000000000000000000000000000000000000000000000000000000000000000000000000000000000000000000000000000000000000000004000000000000000000000000000000000000000000040000000000000000000000000000000000000000000000000000000000000100000000000000000000000000000000000000000000000000000080000000000000000000000000000000000000000000000000000000000000000002000020000000000000000008000000000000000000000000000000",
      "type": "0x2",
      "transactionHash": "0xbe641b3d907f9011be98064d7d253c620543a068544c25b0cf33c545529bf802",
      "transactionIndex": "0x1",
      "blockHash": "0x392ede6fb9f19d4565f5c9c48819f62069fe60c67882418dd1c2f91719ff1d16",
      "blockNumber": "0xe331da8",
      "gasUsed": "0x13afc",
      "effectiveGasPrice": "0x1314470",
      "from": "0x77d1bb07e6f487f47c8f481dff80de5c27821d09",
      "to": "0xb87889a99accf70a2aea7f63fdcde302fcd2e006",
      "contractAddress": null,
      "gasUsedForL1": "0x28dc",
      "l1BlockNumber": "0x9af6af",
      "timeboosted": false
    },
    {
      "status": "0x1",
      "cumulativeGasUsed": "0x13af4",
      "logs": [
        {
          "address": "0xb87889a99accf70a2aea7f63fdcde302fcd2e006",
          "topics": [
            "0xb556fac599c3c70efb9ab1fa725ecace6c81cc48d1455f886607def065f3e0c0",
            "0x000000000000000000000000cc5f8fc3ccab02157f82afb7e19fc65f4808849e"
          ],
          "data": "0x0000000000000000000000000000000000000000000000000de0b6b3a764000000000000000000000000000000000000000000000000000000000000697cb477",
          "blockHash": "0x7a2cca9b59dc204869b61343031cc5c8b0269e06092ef6655a33638ebadbd8ac",
          "blockNumber": "0xe331dab",
          "blockTimestamp": "0x697cb477",
          "transactionHash": "0x143197a9107c6ea48092e4cd1fb13ced791ee940375cb8a5e41826f42c40e30a",
          "transactionIndex": "0x1",
          "logIndex": "0x0",
          "removed": false
        }
      ],
      "logsBloom": "0x00000000000000000000000000000000000000000000000400000000000000000000000000000000404000000000000000000000000000000000000000000000000000000000000000000000000000000000000000000000000000000000000000000000000000000000000000000000000004000000000000000000000000000000000000000000040000000000000000000000000000000000000000000000400000000000000100000000000000000000000000000000000000000000000000000080000000000000000000000000000000000000000000000000000000000000000002000000000000000000000000000000000000000000000000000000",
      "type": "0x2",
      "transactionHash": "0x143197a9107c6ea48092e4cd1fb13ced791ee940375cb8a5e41826f42c40e30a",
      "transactionIndex": "0x1",
      "blockHash": "0x7a2cca9b59dc204869b61343031cc5c8b0269e06092ef6655a33638ebadbd8ac",
      "blockNumber": "0xe331dab",
      "gasUsed": "0x13af4",
      "effectiveGasPrice": "0x1312d00",
      "from": "0x77d1bb07e6f487f47c8f481dff80de5c27821d09",
      "to": "0xb87889a99accf70a2aea7f63fdcde302fcd2e006",
      "contractAddress": null,
      "gasUsedForL1": "0x28e0",
      "l1BlockNumber": "0x9af6b1",
      "timeboosted": false
    },
    {
      "status": "0x1",
      "cumulativeGasUsed": "0x13af2",
      "logs": [
        {
          "address": "0xb87889a99accf70a2aea7f63fdcde302fcd2e006",
          "topics": [
            "0xb556fac599c3c70efb9ab1fa725ecace6c81cc48d1455f886607def065f3e0c0",
            "0x000000000000000000000000da222533d71c37a9370c6b5a26bcb4c07ecb0454"
          ],
          "data": "0x0000000000000000000000000000000000000000000000000de0b6b3a764000000000000000000000000000000000000000000000000000000000000697cb478",
          "blockHash": "0x98e86d78910fcb8c5e291eb6c733e5c1abf1a3c6f3c855caf143e88967a79527",
          "blockNumber": "0xe331dae",
          "blockTimestamp": "0x697cb478",
          "transactionHash": "0x09c7492f42cf4dda779c9e1a21c200ed8197dcbf00a76c433a9f49a145bf9223",
          "transactionIndex": "0x1",
          "logIndex": "0x0",
          "removed": false
        }
      ],
      "logsBloom": "0x00000000000000000000000000000000000000000000000000000000000000000000000000000000400000000000000000000000000000000000000000000000000000000000000000000000000000000000000000000000000000000000000000000000000000000000000000000000000004000200000000000000000000000000000000000000040000000000000000000000000000000000000000000000000000000100000100000000000000000000000000000000000000000000000000000080000000000000000000000000000000000000000000000000000000000000000002000000000000000000000000000000040000000000000000000000",
      "type": "0x2",
      "transactionHash": "0x09c7492f42cf4dda779c9e1a21c200ed8197dcbf00a76c433a9f49a145bf9223",
      "transactionIndex": "0x1",
      "blockHash": "0x98e86d78910fcb8c5e291eb6c733e5c1abf1a3c6f3c855caf143e88967a79527",
      "blockNumber": "0xe331dae",
      "gasUsed": "0x13af2",
      "effectiveGasPrice": "0x13134d0",
      "from": "0x77d1bb07e6f487f47c8f481dff80de5c27821d09",
      "to": "0xb87889a99accf70a2aea7f63fdcde302fcd2e006",
      "contractAddress": null,
      "gasUsedForL1": "0x28de",
      "l1BlockNumber": "0x9af6b1",
      "timeboosted": false
    },
    {
      "status": "0x1",
      "cumulativeGasUsed": "0x96d9",
      "logs": [
        {
          "address": "0xfe8722f1eb898851b9d14f40084a57e3e27dd7a8",
          "topics": [
            "0xe5b20b8497e4f3e2435ef9c20e2e26b47497ee13745ce1c681ad6640653119e6",
            "0x000000000000000000000000b87889a99accf70a2aea7f63fdcde302fcd2e006"
          ],
          "data": "0x",
          "blockHash": "0xcabc6babfd6895c56c4825ff8743c00f015154215af0e30b190b7db3f81f89a3",
          "blockNumber": "0xe331db4",
          "blockTimestamp": "0x697cb47a",
          "transactionHash": "0xd8bc20fc4739439af55d8ff318d5f916c56771fbb37ac8057a0bbfb2540f7137",
          "transactionIndex": "0x1",
          "logIndex": "0x0",
          "removed": false
        }
      ],
      "logsBloom": "0x00000000000000000000000000000000000000000000000004000004000000000000000000000000000000000000000000000000000000000000000000000000000000000000000000000000000000000000000000000000000000000000000000000000000000000000000000000000000000100000000000000000000000000000000000000000000000000000000000000020000000000000000000000000000000000000000000004000000000000000000000000000000000000000000000000000000200000000020000000000000000000000000000000040000000000000000000000002000000000000000000000000000000000000000000000000",
      "type": "0x2",
      "transactionHash": "0xd8bc20fc4739439af55d8ff318d5f916c56771fbb37ac8057a0bbfb2540f7137",
      "transactionIndex": "0x1",
      "blockHash": "0xcabc6babfd6895c56c4825ff8743c00f015154215af0e30b190b7db3f81f89a3",
      "blockNumber": "0xe331db4",
      "gasUsed": "0x96d9",
      "effectiveGasPrice": "0x13524a0",
      "from": "0x77d1bb07e6f487f47c8f481dff80de5c27821d09",
      "to": "0xfe8722f1eb898851b9d14f40084a57e3e27dd7a8",
      "contractAddress": null,
      "gasUsedForL1": "0x20d0",
      "l1BlockNumber": "0x9af6b1",
      "timeboosted": false
    }
  ],
  "libraries": [],
  "pending": [],
  "returns": {},
  "timestamp": 1769780346926,
  "chain": 421614,
  "commit": null
}